{
	"AnimalsStorage.sol": {
		"AnimalsStorage": {
			"abi": [
				{
					"inputs": [],
					"stateMutability": "nonpayable",
					"type": "constructor"
				},
				{
					"inputs": [
						{
							"internalType": "string",
							"name": "_name",
							"type": "string"
						},
						{
							"internalType": "uint16",
							"name": "_age",
							"type": "uint16"
						}
					],
					"name": "add_animal",
					"outputs": [],
					"stateMutability": "nonpayable",
					"type": "function"
				},
				{
					"inputs": [
						{
							"internalType": "uint256",
							"name": "",
							"type": "uint256"
						}
					],
					"name": "listOfAnimals",
					"outputs": [
						{
							"internalType": "string",
							"name": "name",
							"type": "string"
						},
						{
							"internalType": "uint16",
							"name": "age",
							"type": "uint16"
						}
					],
					"stateMutability": "view",
					"type": "function"
				}
			],
			"devdoc": {
				"kind": "dev",
				"methods": {},
				"version": 1
			},
			"evm": {
				"assembly": "    /* \"AnimalsStorage.sol\":890:1331  contract AnimalsStorage {... */\n  mstore(0x40, 0x80)\n    /* \"AnimalsStorage.sol\":1025:1204  constructor() {... */\n  callvalue\n  dup1\n  iszero\n  tag_1\n  jumpi\n  0x00\n  dup1\n  revert\ntag_1:\n  pop\n    /* \"AnimalsStorage.sol\":1049:1062  listOfAnimals */\n  0x00\n    /* \"AnimalsStorage.sol\":1068:1092  Animal(\"Peter Lion\", 26) */\n  mload(0x40)\n  dup1\n  0x40\n  add\n  0x40\n  mstore\n  dup1\n  mload(0x40)\n  dup1\n  0x40\n  add\n  0x40\n  mstore\n  dup1\n  0x0a\n  dup2\n  mstore\n  0x20\n  add\n  0x5065746572204c696f6e00000000000000000000000000000000000000000000\n  dup2\n  mstore\n  pop\n  dup2\n  mstore\n  0x20\n  add\n    /* \"AnimalsStorage.sol\":1089:1091  26 */\n  0x1a\n    /* \"AnimalsStorage.sol\":1068:1092  Animal(\"Peter Lion\", 26) */\n  0xffff\n  and\n  dup2\n  mstore\n  pop\n    /* \"AnimalsStorage.sol\":1049:1093  listOfAnimals.push(Animal(\"Peter Lion\", 26)) */\n  swap1\n  dup1\n  0x01\n  dup2\n  sload\n  add\n  dup1\n  dup3\n  sstore\n  dup1\n  swap2\n  pop\n  pop\n  0x01\n  swap1\n  sub\n  swap1\n  0x00\n  mstore\n  keccak256(0x00, 0x20)\n  swap1\n  0x02\n  mul\n  add\n  0x00\n  swap1\n  swap2\n  swap1\n  swap2\n  swap1\n  swap2\n  pop\n  0x00\n  dup3\n  add\n  mload\n  dup2\n  0x00\n  add\n  swap1\n  dup2\n  tag_5\n  swap2\n  swap1\n  tag_6\n  jump\t// in\ntag_5:\n  pop\n  0x20\n  dup3\n  add\n  mload\n  dup2\n  0x01\n  add\n  exp(0x0100, 0x00)\n  dup2\n  sload\n  dup2\n  0xffff\n  mul\n  not\n  and\n  swap1\n  dup4\n  0xffff\n  and\n  mul\n  or\n  swap1\n  sstore\n  pop\n  pop\n  pop\n    /* \"AnimalsStorage.sol\":1103:1116  listOfAnimals */\n  0x00\n    /* \"AnimalsStorage.sol\":1122:1144  Animal(\"Mad shark\", 4) */\n  mload(0x40)\n  dup1\n  0x40\n  add\n  0x40\n  mstore\n  dup1\n  mload(0x40)\n  dup1\n  0x40\n  add\n  0x40\n  mstore\n  dup1\n  0x09\n  dup2\n  mstore\n  0x20\n  add\n  0x4d616420736861726b0000000000000000000000000000000000000000000000\n  dup2\n  mstore\n  pop\n  dup2\n  mstore\n  0x20\n  add\n    /* \"AnimalsStorage.sol\":1142:1143  4 */\n  0x04\n    /* \"AnimalsStorage.sol\":1122:1144  Animal(\"Mad shark\", 4) */\n  0xffff\n  and\n  dup2\n  mstore\n  pop\n    /* \"AnimalsStorage.sol\":1103:1145  listOfAnimals.push(Animal(\"Mad shark\", 4)) */\n  swap1\n  dup1\n  0x01\n  dup2\n  sload\n  add\n  dup1\n  dup3\n  sstore\n  dup1\n  swap2\n  pop\n  pop\n  0x01\n  swap1\n  sub\n  swap1\n  0x00\n  mstore\n  keccak256(0x00, 0x20)\n  swap1\n  0x02\n  mul\n  add\n  0x00\n  swap1\n  swap2\n  swap1\n  swap2\n  swap1\n  swap2\n  pop\n  0x00\n  dup3\n  add\n  mload\n  dup2\n  0x00\n  add\n  swap1\n  dup2\n  tag_8\n  swap2\n  swap1\n  tag_6\n  jump\t// in\ntag_8:\n  pop\n  0x20\n  dup3\n  add\n  mload\n  dup2\n  0x01\n  add\n  exp(0x0100, 0x00)\n  dup2\n  sload\n  dup2\n  0xffff\n  mul\n  not\n  and\n  swap1\n  dup4\n  0xffff\n  and\n  mul\n  or\n  swap1\n  sstore\n  pop\n  pop\n  pop\n    /* \"AnimalsStorage.sol\":1155:1168  listOfAnimals */\n  0x00\n    /* \"AnimalsStorage.sol\":1174:1196  Animal(\"Pluto dog\", 8) */\n  mload(0x40)\n  dup1\n  0x40\n  add\n  0x40\n  mstore\n  dup1\n  mload(0x40)\n  dup1\n  0x40\n  add\n  0x40\n  mstore\n  dup1\n  0x09\n  dup2\n  mstore\n  0x20\n  add\n  0x506c75746f20646f670000000000000000000000000000000000000000000000\n  dup2\n  mstore\n  pop\n  dup2\n  mstore\n  0x20\n  add\n    /* \"AnimalsStorage.sol\":1194:1195  8 */\n  0x08\n    /* \"AnimalsStorage.sol\":1174:1196  Animal(\"Pluto dog\", 8) */\n  0xffff\n  and\n  dup2\n  mstore\n  pop\n    /* \"AnimalsStorage.sol\":1155:1197  listOfAnimals.push(Animal(\"Pluto dog\", 8)) */\n  swap1\n  dup1\n  0x01\n  dup2\n  sload\n  add\n  dup1\n  dup3\n  sstore\n  dup1\n  swap2\n  pop\n  pop\n  0x01\n  swap1\n  sub\n  swap1\n  0x00\n  mstore\n  keccak256(0x00, 0x20)\n  swap1\n  0x02\n  mul\n  add\n  0x00\n  swap1\n  swap2\n  swap1\n  swap2\n  swap1\n  swap2\n  pop\n  0x00\n  dup3\n  add\n  mload\n  dup2\n  0x00\n  add\n  swap1\n  dup2\n  tag_10\n  swap2\n  swap1\n  tag_6\n  jump\t// in\ntag_10:\n  pop\n  0x20\n  dup3\n  add\n  mload\n  dup2\n  0x01\n  add\n  exp(0x0100, 0x00)\n  dup2\n  sload\n  dup2\n  0xffff\n  mul\n  not\n  and\n  swap1\n  dup4\n  0xffff\n  and\n  mul\n  or\n  swap1\n  sstore\n  pop\n  pop\n  pop\n    /* \"AnimalsStorage.sol\":890:1331  contract AnimalsStorage {... */\n  jump(tag_11)\n    /* \"#utility.yul\":7:106   */\ntag_12:\n    /* \"#utility.yul\":59:65   */\n  0x00\n    /* \"#utility.yul\":93:98   */\n  dup2\n    /* \"#utility.yul\":87:99   */\n  mload\n    /* \"#utility.yul\":77:99   */\n  swap1\n  pop\n    /* \"#utility.yul\":7:106   */\n  swap2\n  swap1\n  pop\n  jump\t// out\n    /* \"#utility.yul\":112:292   */\ntag_13:\n    /* \"#utility.yul\":160:237   */\n  0x4e487b7100000000000000000000000000000000000000000000000000000000\n    /* \"#utility.yul\":157:158   */\n  0x00\n    /* \"#utility.yul\":150:238   */\n  mstore\n    /* \"#utility.yul\":257:261   */\n  0x41\n    /* \"#utility.yul\":254:255   */\n  0x04\n    /* \"#utility.yul\":247:262   */\n  mstore\n    /* \"#utility.yul\":281:285   */\n  0x24\n    /* \"#utility.yul\":278:279   */\n  0x00\n    /* \"#utility.yul\":271:286   */\n  revert\n    /* \"#utility.yul\":298:478   */\ntag_14:\n    /* \"#utility.yul\":346:423   */\n  0x4e487b7100000000000000000000000000000000000000000000000000000000\n    /* \"#utility.yul\":343:344   */\n  0x00\n    /* \"#utility.yul\":336:424   */\n  mstore\n    /* \"#utility.yul\":443:447   */\n  0x22\n    /* \"#utility.yul\":440:441   */\n  0x04\n    /* \"#utility.yul\":433:448   */\n  mstore\n    /* \"#utility.yul\":467:471   */\n  0x24\n    /* \"#utility.yul\":464:465   */\n  0x00\n    /* \"#utility.yul\":457:472   */\n  revert\n    /* \"#utility.yul\":484:804   */\ntag_15:\n    /* \"#utility.yul\":528:534   */\n  0x00\n    /* \"#utility.yul\":565:566   */\n  0x02\n    /* \"#utility.yul\":559:563   */\n  dup3\n    /* \"#utility.yul\":555:567   */\n  div\n    /* \"#utility.yul\":545:567   */\n  swap1\n  pop\n    /* \"#utility.yul\":612:613   */\n  0x01\n    /* \"#utility.yul\":606:610   */\n  dup3\n    /* \"#utility.yul\":602:614   */\n  and\n    /* \"#utility.yul\":633:651   */\n  dup1\n    /* \"#utility.yul\":623:704   */\n  tag_37\n  jumpi\n    /* \"#utility.yul\":689:693   */\n  0x7f\n    /* \"#utility.yul\":681:687   */\n  dup3\n    /* \"#utility.yul\":677:694   */\n  and\n    /* \"#utility.yul\":667:694   */\n  swap2\n  pop\n    /* \"#utility.yul\":623:704   */\ntag_37:\n    /* \"#utility.yul\":751:753   */\n  0x20\n    /* \"#utility.yul\":743:749   */\n  dup3\n    /* \"#utility.yul\":740:754   */\n  lt\n    /* \"#utility.yul\":720:738   */\n  dup2\n    /* \"#utility.yul\":717:755   */\n  sub\n    /* \"#utility.yul\":714:798   */\n  tag_38\n  jumpi\n    /* \"#utility.yul\":770:788   */\n  tag_39\n  tag_14\n  jump\t// in\ntag_39:\n    /* \"#utility.yul\":714:798   */\ntag_38:\n    /* \"#utility.yul\":535:804   */\n  pop\n    /* \"#utility.yul\":484:804   */\n  swap2\n  swap1\n  pop\n  jump\t// out\n    /* \"#utility.yul\":810:951   */\ntag_16:\n    /* \"#utility.yul\":859:863   */\n  0x00\n    /* \"#utility.yul\":882:885   */\n  dup2\n    /* \"#utility.yul\":874:885   */\n  swap1\n  pop\n    /* \"#utility.yul\":905:908   */\n  dup2\n    /* \"#utility.yul\":902:903   */\n  0x00\n    /* \"#utility.yul\":895:909   */\n  mstore\n    /* \"#utility.yul\":939:943   */\n  0x20\n    /* \"#utility.yul\":936:937   */\n  0x00\n    /* \"#utility.yul\":926:944   */\n  keccak256\n    /* \"#utility.yul\":918:944   */\n  swap1\n  pop\n    /* \"#utility.yul\":810:951   */\n  swap2\n  swap1\n  pop\n  jump\t// out\n    /* \"#utility.yul\":957:1050   */\ntag_17:\n    /* \"#utility.yul\":994:1000   */\n  0x00\n    /* \"#utility.yul\":1041:1043   */\n  0x20\n    /* \"#utility.yul\":1036:1038   */\n  0x1f\n    /* \"#utility.yul\":1029:1034   */\n  dup4\n    /* \"#utility.yul\":1025:1039   */\n  add\n    /* \"#utility.yul\":1021:1044   */\n  div\n    /* \"#utility.yul\":1011:1044   */\n  swap1\n  pop\n    /* \"#utility.yul\":957:1050   */\n  swap2\n  swap1\n  pop\n  jump\t// out\n    /* \"#utility.yul\":1056:1163   */\ntag_18:\n    /* \"#utility.yul\":1100:1108   */\n  0x00\n    /* \"#utility.yul\":1150:1155   */\n  dup3\n    /* \"#utility.yul\":1144:1148   */\n  dup3\n    /* \"#utility.yul\":1140:1156   */\n  shl\n    /* \"#utility.yul\":1119:1156   */\n  swap1\n  pop\n    /* \"#utility.yul\":1056:1163   */\n  swap3\n  swap2\n  pop\n  pop\n  jump\t// out\n    /* \"#utility.yul\":1169:1562   */\ntag_19:\n    /* \"#utility.yul\":1238:1244   */\n  0x00\n    /* \"#utility.yul\":1288:1289   */\n  0x08\n    /* \"#utility.yul\":1276:1286   */\n  dup4\n    /* \"#utility.yul\":1272:1290   */\n  mul\n    /* \"#utility.yul\":1311:1408   */\n  tag_44\n    /* \"#utility.yul\":1341:1407   */\n  0xffffffffffffffffffffffffffffffffffffffffffffffffffffffffffffffff\n    /* \"#utility.yul\":1330:1339   */\n  dup3\n    /* \"#utility.yul\":1311:1408   */\n  tag_18\n  jump\t// in\ntag_44:\n    /* \"#utility.yul\":1429:1468   */\n  tag_45\n    /* \"#utility.yul\":1459:1467   */\n  dup7\n    /* \"#utility.yul\":1448:1457   */\n  dup4\n    /* \"#utility.yul\":1429:1468   */\n  tag_18\n  jump\t// in\ntag_45:\n    /* \"#utility.yul\":1417:1468   */\n  swap6\n  pop\n    /* \"#utility.yul\":1501:1505   */\n  dup1\n    /* \"#utility.yul\":1497:1506   */\n  not\n    /* \"#utility.yul\":1490:1495   */\n  dup5\n    /* \"#utility.yul\":1486:1507   */\n  and\n    /* \"#utility.yul\":1477:1507   */\n  swap4\n  pop\n    /* \"#utility.yul\":1550:1554   */\n  dup1\n    /* \"#utility.yul\":1540:1548   */\n  dup7\n    /* \"#utility.yul\":1536:1555   */\n  and\n    /* \"#utility.yul\":1529:1534   */\n  dup5\n    /* \"#utility.yul\":1526:1556   */\n  or\n    /* \"#utility.yul\":1516:1556   */\n  swap3\n  pop\n    /* \"#utility.yul\":1245:1562   */\n  pop\n  pop\n    /* \"#utility.yul\":1169:1562   */\n  swap4\n  swap3\n  pop\n  pop\n  pop\n  jump\t// out\n    /* \"#utility.yul\":1568:1645   */\ntag_20:\n    /* \"#utility.yul\":1605:1612   */\n  0x00\n    /* \"#utility.yul\":1634:1639   */\n  dup2\n    /* \"#utility.yul\":1623:1639   */\n  swap1\n  pop\n    /* \"#utility.yul\":1568:1645   */\n  swap2\n  swap1\n  pop\n  jump\t// out\n    /* \"#utility.yul\":1651:1711   */\ntag_21:\n    /* \"#utility.yul\":1679:1682   */\n  0x00\n    /* \"#utility.yul\":1700:1705   */\n  dup2\n    /* \"#utility.yul\":1693:1705   */\n  swap1\n  pop\n    /* \"#utility.yul\":1651:1711   */\n  swap2\n  swap1\n  pop\n  jump\t// out\n    /* \"#utility.yul\":1717:1859   */\ntag_22:\n    /* \"#utility.yul\":1767:1776   */\n  0x00\n    /* \"#utility.yul\":1800:1853   */\n  tag_49\n    /* \"#utility.yul\":1818:1852   */\n  tag_50\n    /* \"#utility.yul\":1827:1851   */\n  tag_51\n    /* \"#utility.yul\":1845:1850   */\n  dup5\n    /* \"#utility.yul\":1827:1851   */\n  tag_20\n  jump\t// in\ntag_51:\n    /* \"#utility.yul\":1818:1852   */\n  tag_21\n  jump\t// in\ntag_50:\n    /* \"#utility.yul\":1800:1853   */\n  tag_20\n  jump\t// in\ntag_49:\n    /* \"#utility.yul\":1787:1853   */\n  swap1\n  pop\n    /* \"#utility.yul\":1717:1859   */\n  swap2\n  swap1\n  pop\n  jump\t// out\n    /* \"#utility.yul\":1865:1940   */\ntag_23:\n    /* \"#utility.yul\":1908:1911   */\n  0x00\n    /* \"#utility.yul\":1929:1934   */\n  dup2\n    /* \"#utility.yul\":1922:1934   */\n  swap1\n  pop\n    /* \"#utility.yul\":1865:1940   */\n  swap2\n  swap1\n  pop\n  jump\t// out\n    /* \"#utility.yul\":1946:2215   */\ntag_24:\n    /* \"#utility.yul\":2056:2095   */\n  tag_54\n    /* \"#utility.yul\":2087:2094   */\n  dup4\n    /* \"#utility.yul\":2056:2095   */\n  tag_22\n  jump\t// in\ntag_54:\n    /* \"#utility.yul\":2117:2208   */\n  tag_55\n    /* \"#utility.yul\":2166:2207   */\n  tag_56\n    /* \"#utility.yul\":2190:2206   */\n  dup3\n    /* \"#utility.yul\":2166:2207   */\n  tag_23\n  jump\t// in\ntag_56:\n    /* \"#utility.yul\":2158:2164   */\n  dup5\n    /* \"#utility.yul\":2151:2155   */\n  dup5\n    /* \"#utility.yul\":2145:2156   */\n  sload\n    /* \"#utility.yul\":2117:2208   */\n  tag_19\n  jump\t// in\ntag_55:\n    /* \"#utility.yul\":2111:2115   */\n  dup3\n    /* \"#utility.yul\":2104:2209   */\n  sstore\n    /* \"#utility.yul\":2022:2215   */\n  pop\n    /* \"#utility.yul\":1946:2215   */\n  pop\n  pop\n  pop\n  jump\t// out\n    /* \"#utility.yul\":2221:2294   */\ntag_25:\n    /* \"#utility.yul\":2266:2269   */\n  0x00\n    /* \"#utility.yul\":2221:2294   */\n  swap1\n  jump\t// out\n    /* \"#utility.yul\":2300:2489   */\ntag_26:\n    /* \"#utility.yul\":2377:2409   */\n  tag_59\n  tag_25\n  jump\t// in\ntag_59:\n    /* \"#utility.yul\":2418:2483   */\n  tag_60\n    /* \"#utility.yul\":2476:2482   */\n  dup2\n    /* \"#utility.yul\":2468:2474   */\n  dup5\n    /* \"#utility.yul\":2462:2466   */\n  dup5\n    /* \"#utility.yul\":2418:2483   */\n  tag_24\n  jump\t// in\ntag_60:\n    /* \"#utility.yul\":2353:2489   */\n  pop\n    /* \"#utility.yul\":2300:2489   */\n  pop\n  pop\n  jump\t// out\n    /* \"#utility.yul\":2495:2681   */\ntag_27:\n    /* \"#utility.yul\":2555:2675   */\ntag_62:\n    /* \"#utility.yul\":2572:2575   */\n  dup2\n    /* \"#utility.yul\":2565:2570   */\n  dup2\n    /* \"#utility.yul\":2562:2576   */\n  lt\n    /* \"#utility.yul\":2555:2675   */\n  iszero\n  tag_64\n  jumpi\n    /* \"#utility.yul\":2626:2665   */\n  tag_65\n    /* \"#utility.yul\":2663:2664   */\n  0x00\n    /* \"#utility.yul\":2656:2661   */\n  dup3\n    /* \"#utility.yul\":2626:2665   */\n  tag_26\n  jump\t// in\ntag_65:\n    /* \"#utility.yul\":2599:2600   */\n  0x01\n    /* \"#utility.yul\":2592:2597   */\n  dup2\n    /* \"#utility.yul\":2588:2601   */\n  add\n    /* \"#utility.yul\":2579:2601   */\n  swap1\n  pop\n    /* \"#utility.yul\":2555:2675   */\n  jump(tag_62)\ntag_64:\n    /* \"#utility.yul\":2495:2681   */\n  pop\n  pop\n  jump\t// out\n    /* \"#utility.yul\":2687:3230   */\ntag_28:\n    /* \"#utility.yul\":2788:2790   */\n  0x1f\n    /* \"#utility.yul\":2783:2786   */\n  dup3\n    /* \"#utility.yul\":2780:2791   */\n  gt\n    /* \"#utility.yul\":2777:3223   */\n  iszero\n  tag_67\n  jumpi\n    /* \"#utility.yul\":2822:2860   */\n  tag_68\n    /* \"#utility.yul\":2854:2859   */\n  dup2\n    /* \"#utility.yul\":2822:2860   */\n  tag_16\n  jump\t// in\ntag_68:\n    /* \"#utility.yul\":2906:2935   */\n  tag_69\n    /* \"#utility.yul\":2924:2934   */\n  dup5\n    /* \"#utility.yul\":2906:2935   */\n  tag_17\n  jump\t// in\ntag_69:\n    /* \"#utility.yul\":2896:2904   */\n  dup2\n    /* \"#utility.yul\":2892:2936   */\n  add\n    /* \"#utility.yul\":3089:3091   */\n  0x20\n    /* \"#utility.yul\":3077:3087   */\n  dup6\n    /* \"#utility.yul\":3074:3092   */\n  lt\n    /* \"#utility.yul\":3071:3120   */\n  iszero\n  tag_70\n  jumpi\n    /* \"#utility.yul\":3110:3118   */\n  dup2\n    /* \"#utility.yul\":3095:3118   */\n  swap1\n  pop\n    /* \"#utility.yul\":3071:3120   */\ntag_70:\n    /* \"#utility.yul\":3133:3213   */\n  tag_71\n    /* \"#utility.yul\":3189:3211   */\n  tag_72\n    /* \"#utility.yul\":3207:3210   */\n  dup6\n    /* \"#utility.yul\":3189:3211   */\n  tag_17\n  jump\t// in\ntag_72:\n    /* \"#utility.yul\":3179:3187   */\n  dup4\n    /* \"#utility.yul\":3175:3212   */\n  add\n    /* \"#utility.yul\":3162:3173   */\n  dup3\n    /* \"#utility.yul\":3133:3213   */\n  tag_27\n  jump\t// in\ntag_71:\n    /* \"#utility.yul\":2792:3223   */\n  pop\n  pop\n    /* \"#utility.yul\":2777:3223   */\ntag_67:\n    /* \"#utility.yul\":2687:3230   */\n  pop\n  pop\n  pop\n  jump\t// out\n    /* \"#utility.yul\":3236:3353   */\ntag_29:\n    /* \"#utility.yul\":3290:3298   */\n  0x00\n    /* \"#utility.yul\":3340:3345   */\n  dup3\n    /* \"#utility.yul\":3334:3338   */\n  dup3\n    /* \"#utility.yul\":3330:3346   */\n  shr\n    /* \"#utility.yul\":3309:3346   */\n  swap1\n  pop\n    /* \"#utility.yul\":3236:3353   */\n  swap3\n  swap2\n  pop\n  pop\n  jump\t// out\n    /* \"#utility.yul\":3359:3528   */\ntag_30:\n    /* \"#utility.yul\":3403:3409   */\n  0x00\n    /* \"#utility.yul\":3436:3487   */\n  tag_75\n    /* \"#utility.yul\":3484:3485   */\n  0x00\n    /* \"#utility.yul\":3480:3486   */\n  not\n    /* \"#utility.yul\":3472:3477   */\n  dup5\n    /* \"#utility.yul\":3469:3470   */\n  0x08\n    /* \"#utility.yul\":3465:3478   */\n  mul\n    /* \"#utility.yul\":3436:3487   */\n  tag_29\n  jump\t// in\ntag_75:\n    /* \"#utility.yul\":3432:3488   */\n  not\n    /* \"#utility.yul\":3517:3521   */\n  dup1\n    /* \"#utility.yul\":3511:3515   */\n  dup4\n    /* \"#utility.yul\":3507:3522   */\n  and\n    /* \"#utility.yul\":3497:3522   */\n  swap2\n  pop\n    /* \"#utility.yul\":3410:3528   */\n  pop\n    /* \"#utility.yul\":3359:3528   */\n  swap3\n  swap2\n  pop\n  pop\n  jump\t// out\n    /* \"#utility.yul\":3533:3828   */\ntag_31:\n    /* \"#utility.yul\":3609:3613   */\n  0x00\n    /* \"#utility.yul\":3755:3784   */\n  tag_77\n    /* \"#utility.yul\":3780:3783   */\n  dup4\n    /* \"#utility.yul\":3774:3778   */\n  dup4\n    /* \"#utility.yul\":3755:3784   */\n  tag_30\n  jump\t// in\ntag_77:\n    /* \"#utility.yul\":3747:3784   */\n  swap2\n  pop\n    /* \"#utility.yul\":3817:3820   */\n  dup3\n    /* \"#utility.yul\":3814:3815   */\n  0x02\n    /* \"#utility.yul\":3810:3821   */\n  mul\n    /* \"#utility.yul\":3804:3808   */\n  dup3\n    /* \"#utility.yul\":3801:3822   */\n  or\n    /* \"#utility.yul\":3793:3822   */\n  swap1\n  pop\n    /* \"#utility.yul\":3533:3828   */\n  swap3\n  swap2\n  pop\n  pop\n  jump\t// out\n    /* \"#utility.yul\":3833:5228   */\ntag_6:\n    /* \"#utility.yul\":3950:3987   */\n  tag_79\n    /* \"#utility.yul\":3983:3986   */\n  dup3\n    /* \"#utility.yul\":3950:3987   */\n  tag_12\n  jump\t// in\ntag_79:\n    /* \"#utility.yul\":4052:4070   */\n  0xffffffffffffffff\n    /* \"#utility.yul\":4044:4050   */\n  dup2\n    /* \"#utility.yul\":4041:4071   */\n  gt\n    /* \"#utility.yul\":4038:4094   */\n  iszero\n  tag_80\n  jumpi\n    /* \"#utility.yul\":4074:4092   */\n  tag_81\n  tag_13\n  jump\t// in\ntag_81:\n    /* \"#utility.yul\":4038:4094   */\ntag_80:\n    /* \"#utility.yul\":4118:4156   */\n  tag_82\n    /* \"#utility.yul\":4150:4154   */\n  dup3\n    /* \"#utility.yul\":4144:4155   */\n  sload\n    /* \"#utility.yul\":4118:4156   */\n  tag_15\n  jump\t// in\ntag_82:\n    /* \"#utility.yul\":4203:4270   */\n  tag_83\n    /* \"#utility.yul\":4263:4269   */\n  dup3\n    /* \"#utility.yul\":4255:4261   */\n  dup3\n    /* \"#utility.yul\":4249:4253   */\n  dup6\n    /* \"#utility.yul\":4203:4270   */\n  tag_28\n  jump\t// in\ntag_83:\n    /* \"#utility.yul\":4297:4298   */\n  0x00\n    /* \"#utility.yul\":4321:4325   */\n  0x20\n    /* \"#utility.yul\":4308:4325   */\n  swap1\n  pop\n    /* \"#utility.yul\":4353:4355   */\n  0x1f\n    /* \"#utility.yul\":4345:4351   */\n  dup4\n    /* \"#utility.yul\":4342:4356   */\n  gt\n    /* \"#utility.yul\":4370:4371   */\n  0x01\n    /* \"#utility.yul\":4365:4983   */\n  dup2\n  eq\n  tag_85\n  jumpi\n    /* \"#utility.yul\":5027:5028   */\n  0x00\n    /* \"#utility.yul\":5044:5050   */\n  dup5\n    /* \"#utility.yul\":5041:5118   */\n  iszero\n  tag_86\n  jumpi\n    /* \"#utility.yul\":5093:5102   */\n  dup3\n    /* \"#utility.yul\":5088:5091   */\n  dup8\n    /* \"#utility.yul\":5084:5103   */\n  add\n    /* \"#utility.yul\":5078:5104   */\n  mload\n    /* \"#utility.yul\":5069:5104   */\n  swap1\n  pop\n    /* \"#utility.yul\":5041:5118   */\ntag_86:\n    /* \"#utility.yul\":5144:5211   */\n  tag_87\n    /* \"#utility.yul\":5204:5210   */\n  dup6\n    /* \"#utility.yul\":5197:5202   */\n  dup3\n    /* \"#utility.yul\":5144:5211   */\n  tag_31\n  jump\t// in\ntag_87:\n    /* \"#utility.yul\":5138:5142   */\n  dup7\n    /* \"#utility.yul\":5131:5212   */\n  sstore\n    /* \"#utility.yul\":5000:5222   */\n  pop\n    /* \"#utility.yul\":4335:5222   */\n  jump(tag_84)\n    /* \"#utility.yul\":4365:4983   */\ntag_85:\n    /* \"#utility.yul\":4417:4421   */\n  0x1f\n    /* \"#utility.yul\":4413:4422   */\n  not\n    /* \"#utility.yul\":4405:4411   */\n  dup5\n    /* \"#utility.yul\":4401:4423   */\n  and\n    /* \"#utility.yul\":4451:4488   */\n  tag_88\n    /* \"#utility.yul\":4483:4487   */\n  dup7\n    /* \"#utility.yul\":4451:4488   */\n  tag_16\n  jump\t// in\ntag_88:\n    /* \"#utility.yul\":4510:4511   */\n  0x00\n    /* \"#utility.yul\":4524:4732   */\ntag_89:\n    /* \"#utility.yul\":4538:4545   */\n  dup3\n    /* \"#utility.yul\":4535:4536   */\n  dup2\n    /* \"#utility.yul\":4532:4546   */\n  lt\n    /* \"#utility.yul\":4524:4732   */\n  iszero\n  tag_91\n  jumpi\n    /* \"#utility.yul\":4617:4626   */\n  dup5\n    /* \"#utility.yul\":4612:4615   */\n  dup10\n    /* \"#utility.yul\":4608:4627   */\n  add\n    /* \"#utility.yul\":4602:4628   */\n  mload\n    /* \"#utility.yul\":4594:4600   */\n  dup3\n    /* \"#utility.yul\":4587:4629   */\n  sstore\n    /* \"#utility.yul\":4668:4669   */\n  0x01\n    /* \"#utility.yul\":4660:4666   */\n  dup3\n    /* \"#utility.yul\":4656:4670   */\n  add\n    /* \"#utility.yul\":4646:4670   */\n  swap2\n  pop\n    /* \"#utility.yul\":4715:4717   */\n  0x20\n    /* \"#utility.yul\":4704:4713   */\n  dup6\n    /* \"#utility.yul\":4700:4718   */\n  add\n    /* \"#utility.yul\":4687:4718   */\n  swap5\n  pop\n    /* \"#utility.yul\":4561:4565   */\n  0x20\n    /* \"#utility.yul\":4558:4559   */\n  dup2\n    /* \"#utility.yul\":4554:4566   */\n  add\n    /* \"#utility.yul\":4549:4566   */\n  swap1\n  pop\n    /* \"#utility.yul\":4524:4732   */\n  jump(tag_89)\ntag_91:\n    /* \"#utility.yul\":4760:4766   */\n  dup7\n    /* \"#utility.yul\":4751:4758   */\n  dup4\n    /* \"#utility.yul\":4748:4767   */\n  lt\n    /* \"#utility.yul\":4745:4924   */\n  iszero\n  tag_92\n  jumpi\n    /* \"#utility.yul\":4818:4827   */\n  dup5\n    /* \"#utility.yul\":4813:4816   */\n  dup10\n    /* \"#utility.yul\":4809:4828   */\n  add\n    /* \"#utility.yul\":4803:4829   */\n  mload\n    /* \"#utility.yul\":4861:4909   */\n  tag_93\n    /* \"#utility.yul\":4903:4907   */\n  0x1f\n    /* \"#utility.yul\":4895:4901   */\n  dup10\n    /* \"#utility.yul\":4891:4908   */\n  and\n    /* \"#utility.yul\":4880:4889   */\n  dup3\n    /* \"#utility.yul\":4861:4909   */\n  tag_30\n  jump\t// in\ntag_93:\n    /* \"#utility.yul\":4853:4859   */\n  dup4\n    /* \"#utility.yul\":4846:4910   */\n  sstore\n    /* \"#utility.yul\":4768:4924   */\n  pop\n    /* \"#utility.yul\":4745:4924   */\ntag_92:\n    /* \"#utility.yul\":4970:4971   */\n  0x01\n    /* \"#utility.yul\":4966:4967   */\n  0x02\n    /* \"#utility.yul\":4958:4964   */\n  dup9\n    /* \"#utility.yul\":4954:4968   */\n  mul\n    /* \"#utility.yul\":4950:4972   */\n  add\n    /* \"#utility.yul\":4944:4948   */\n  dup9\n    /* \"#utility.yul\":4937:4973   */\n  sstore\n    /* \"#utility.yul\":4372:4983   */\n  pop\n  pop\n  pop\n    /* \"#utility.yul\":4335:5222   */\ntag_84:\n  pop\n    /* \"#utility.yul\":3925:5228   */\n  pop\n  pop\n  pop\n    /* \"#utility.yul\":3833:5228   */\n  pop\n  pop\n  jump\t// out\n    /* \"AnimalsStorage.sol\":890:1331  contract AnimalsStorage {... */\ntag_11:\n  dataSize(sub_0)\n  dup1\n  dataOffset(sub_0)\n  0x00\n  codecopy\n  0x00\n  return\nstop\n\nsub_0: assembly {\n        /* \"AnimalsStorage.sol\":890:1331  contract AnimalsStorage {... */\n      mstore(0x40, 0x80)\n      callvalue\n      dup1\n      iszero\n      tag_1\n      jumpi\n      0x00\n      dup1\n      revert\n    tag_1:\n      pop\n      jumpi(tag_2, lt(calldatasize, 0x04))\n      shr(0xe0, calldataload(0x00))\n      dup1\n      0x793e9812\n      eq\n      tag_3\n      jumpi\n      dup1\n      0xf6b30cf5\n      eq\n      tag_4\n      jumpi\n    tag_2:\n      0x00\n      dup1\n      revert\n        /* \"AnimalsStorage.sol\":1211:1328  function add_animal(string memory _name, uint16 _age) public {... */\n    tag_3:\n      tag_5\n      0x04\n      dup1\n      calldatasize\n      sub\n      dup2\n      add\n      swap1\n      tag_6\n      swap2\n      swap1\n      tag_7\n      jump\t// in\n    tag_6:\n      tag_8\n      jump\t// in\n    tag_5:\n      stop\n        /* \"AnimalsStorage.sol\":989:1018  Animal[] public listOfAnimals */\n    tag_4:\n      tag_9\n      0x04\n      dup1\n      calldatasize\n      sub\n      dup2\n      add\n      swap1\n      tag_10\n      swap2\n      swap1\n      tag_11\n      jump\t// in\n    tag_10:\n      tag_12\n      jump\t// in\n    tag_9:\n      mload(0x40)\n      tag_13\n      swap3\n      swap2\n      swap1\n      tag_14\n      jump\t// in\n    tag_13:\n      mload(0x40)\n      dup1\n      swap2\n      sub\n      swap1\n      return\n        /* \"AnimalsStorage.sol\":1211:1328  function add_animal(string memory _name, uint16 _age) public {... */\n    tag_8:\n        /* \"AnimalsStorage.sol\":1282:1295  listOfAnimals */\n      0x00\n        /* \"AnimalsStorage.sol\":1301:1320  Animal(_name, _age) */\n      mload(0x40)\n      dup1\n      0x40\n      add\n      0x40\n      mstore\n      dup1\n        /* \"AnimalsStorage.sol\":1308:1313  _name */\n      dup5\n        /* \"AnimalsStorage.sol\":1301:1320  Animal(_name, _age) */\n      dup2\n      mstore\n      0x20\n      add\n        /* \"AnimalsStorage.sol\":1315:1319  _age */\n      dup4\n        /* \"AnimalsStorage.sol\":1301:1320  Animal(_name, _age) */\n      0xffff\n      and\n      dup2\n      mstore\n      pop\n        /* \"AnimalsStorage.sol\":1282:1321  listOfAnimals.push(Animal(_name, _age)) */\n      swap1\n      dup1\n      0x01\n      dup2\n      sload\n      add\n      dup1\n      dup3\n      sstore\n      dup1\n      swap2\n      pop\n      pop\n      0x01\n      swap1\n      sub\n      swap1\n      0x00\n      mstore\n      keccak256(0x00, 0x20)\n      swap1\n      0x02\n      mul\n      add\n      0x00\n      swap1\n      swap2\n      swap1\n      swap2\n      swap1\n      swap2\n      pop\n      0x00\n      dup3\n      add\n      mload\n      dup2\n      0x00\n      add\n      swap1\n      dup2\n      tag_17\n      swap2\n      swap1\n      tag_18\n      jump\t// in\n    tag_17:\n      pop\n      0x20\n      dup3\n      add\n      mload\n      dup2\n      0x01\n      add\n      exp(0x0100, 0x00)\n      dup2\n      sload\n      dup2\n      0xffff\n      mul\n      not\n      and\n      swap1\n      dup4\n      0xffff\n      and\n      mul\n      or\n      swap1\n      sstore\n      pop\n      pop\n      pop\n        /* \"AnimalsStorage.sol\":1211:1328  function add_animal(string memory _name, uint16 _age) public {... */\n      pop\n      pop\n      jump\t// out\n        /* \"AnimalsStorage.sol\":989:1018  Animal[] public listOfAnimals */\n    tag_12:\n      0x00\n      dup2\n      dup2\n      sload\n      dup2\n      lt\n      tag_19\n      jumpi\n      0x00\n      dup1\n      revert\n    tag_19:\n      swap1\n      0x00\n      mstore\n      keccak256(0x00, 0x20)\n      swap1\n      0x02\n      mul\n      add\n      0x00\n      swap2\n      pop\n      swap1\n      pop\n      dup1\n      0x00\n      add\n      dup1\n      sload\n      tag_21\n      swap1\n      tag_22\n      jump\t// in\n    tag_21:\n      dup1\n      0x1f\n      add\n      0x20\n      dup1\n      swap2\n      div\n      mul\n      0x20\n      add\n      mload(0x40)\n      swap1\n      dup2\n      add\n      0x40\n      mstore\n      dup1\n      swap3\n      swap2\n      swap1\n      dup2\n      dup2\n      mstore\n      0x20\n      add\n      dup3\n      dup1\n      sload\n      tag_23\n      swap1\n      tag_22\n      jump\t// in\n    tag_23:\n      dup1\n      iszero\n      tag_24\n      jumpi\n      dup1\n      0x1f\n      lt\n      tag_25\n      jumpi\n      0x0100\n      dup1\n      dup4\n      sload\n      div\n      mul\n      dup4\n      mstore\n      swap2\n      0x20\n      add\n      swap2\n      jump(tag_24)\n    tag_25:\n      dup3\n      add\n      swap2\n      swap1\n      0x00\n      mstore\n      keccak256(0x00, 0x20)\n      swap1\n    tag_26:\n      dup2\n      sload\n      dup2\n      mstore\n      swap1\n      0x01\n      add\n      swap1\n      0x20\n      add\n      dup1\n      dup4\n      gt\n      tag_26\n      jumpi\n      dup3\n      swap1\n      sub\n      0x1f\n      and\n      dup3\n      add\n      swap2\n    tag_24:\n      pop\n      pop\n      pop\n      pop\n      pop\n      swap1\n      dup1\n      0x01\n      add\n      0x00\n      swap1\n      sload\n      swap1\n      0x0100\n      exp\n      swap1\n      div\n      0xffff\n      and\n      swap1\n      pop\n      dup3\n      jump\t// out\n        /* \"#utility.yul\":7:82   */\n    tag_27:\n        /* \"#utility.yul\":40:46   */\n      0x00\n        /* \"#utility.yul\":73:75   */\n      0x40\n        /* \"#utility.yul\":67:76   */\n      mload\n        /* \"#utility.yul\":57:76   */\n      swap1\n      pop\n        /* \"#utility.yul\":7:82   */\n      swap1\n      jump\t// out\n        /* \"#utility.yul\":88:205   */\n    tag_28:\n        /* \"#utility.yul\":197:198   */\n      0x00\n        /* \"#utility.yul\":194:195   */\n      dup1\n        /* \"#utility.yul\":187:199   */\n      revert\n        /* \"#utility.yul\":211:328   */\n    tag_29:\n        /* \"#utility.yul\":320:321   */\n      0x00\n        /* \"#utility.yul\":317:318   */\n      dup1\n        /* \"#utility.yul\":310:322   */\n      revert\n        /* \"#utility.yul\":334:451   */\n    tag_30:\n        /* \"#utility.yul\":443:444   */\n      0x00\n        /* \"#utility.yul\":440:441   */\n      dup1\n        /* \"#utility.yul\":433:445   */\n      revert\n        /* \"#utility.yul\":457:574   */\n    tag_31:\n        /* \"#utility.yul\":566:567   */\n      0x00\n        /* \"#utility.yul\":563:564   */\n      dup1\n        /* \"#utility.yul\":556:568   */\n      revert\n        /* \"#utility.yul\":580:682   */\n    tag_32:\n        /* \"#utility.yul\":621:627   */\n      0x00\n        /* \"#utility.yul\":672:674   */\n      0x1f\n        /* \"#utility.yul\":668:675   */\n      not\n        /* \"#utility.yul\":663:665   */\n      0x1f\n        /* \"#utility.yul\":656:661   */\n      dup4\n        /* \"#utility.yul\":652:666   */\n      add\n        /* \"#utility.yul\":648:676   */\n      and\n        /* \"#utility.yul\":638:676   */\n      swap1\n      pop\n        /* \"#utility.yul\":580:682   */\n      swap2\n      swap1\n      pop\n      jump\t// out\n        /* \"#utility.yul\":688:868   */\n    tag_33:\n        /* \"#utility.yul\":736:813   */\n      0x4e487b7100000000000000000000000000000000000000000000000000000000\n        /* \"#utility.yul\":733:734   */\n      0x00\n        /* \"#utility.yul\":726:814   */\n      mstore\n        /* \"#utility.yul\":833:837   */\n      0x41\n        /* \"#utility.yul\":830:831   */\n      0x04\n        /* \"#utility.yul\":823:838   */\n      mstore\n        /* \"#utility.yul\":857:861   */\n      0x24\n        /* \"#utility.yul\":854:855   */\n      0x00\n        /* \"#utility.yul\":847:862   */\n      revert\n        /* \"#utility.yul\":874:1155   */\n    tag_34:\n        /* \"#utility.yul\":957:984   */\n      tag_76\n        /* \"#utility.yul\":979:983   */\n      dup3\n        /* \"#utility.yul\":957:984   */\n      tag_32\n      jump\t// in\n    tag_76:\n        /* \"#utility.yul\":949:955   */\n      dup2\n        /* \"#utility.yul\":945:985   */\n      add\n        /* \"#utility.yul\":1087:1093   */\n      dup2\n        /* \"#utility.yul\":1075:1085   */\n      dup2\n        /* \"#utility.yul\":1072:1094   */\n      lt\n        /* \"#utility.yul\":1051:1069   */\n      0xffffffffffffffff\n        /* \"#utility.yul\":1039:1049   */\n      dup3\n        /* \"#utility.yul\":1036:1070   */\n      gt\n        /* \"#utility.yul\":1033:1095   */\n      or\n        /* \"#utility.yul\":1030:1118   */\n      iszero\n      tag_77\n      jumpi\n        /* \"#utility.yul\":1098:1116   */\n      tag_78\n      tag_33\n      jump\t// in\n    tag_78:\n        /* \"#utility.yul\":1030:1118   */\n    tag_77:\n        /* \"#utility.yul\":1138:1148   */\n      dup1\n        /* \"#utility.yul\":1134:1136   */\n      0x40\n        /* \"#utility.yul\":1127:1149   */\n      mstore\n        /* \"#utility.yul\":917:1155   */\n      pop\n        /* \"#utility.yul\":874:1155   */\n      pop\n      pop\n      jump\t// out\n        /* \"#utility.yul\":1161:1290   */\n    tag_35:\n        /* \"#utility.yul\":1195:1201   */\n      0x00\n        /* \"#utility.yul\":1222:1242   */\n      tag_80\n      tag_27\n      jump\t// in\n    tag_80:\n        /* \"#utility.yul\":1212:1242   */\n      swap1\n      pop\n        /* \"#utility.yul\":1251:1284   */\n      tag_81\n        /* \"#utility.yul\":1279:1283   */\n      dup3\n        /* \"#utility.yul\":1271:1277   */\n      dup3\n        /* \"#utility.yul\":1251:1284   */\n      tag_34\n      jump\t// in\n    tag_81:\n        /* \"#utility.yul\":1161:1290   */\n      swap2\n      swap1\n      pop\n      jump\t// out\n        /* \"#utility.yul\":1296:1604   */\n    tag_36:\n        /* \"#utility.yul\":1358:1362   */\n      0x00\n        /* \"#utility.yul\":1448:1466   */\n      0xffffffffffffffff\n        /* \"#utility.yul\":1440:1446   */\n      dup3\n        /* \"#utility.yul\":1437:1467   */\n      gt\n        /* \"#utility.yul\":1434:1490   */\n      iszero\n      tag_83\n      jumpi\n        /* \"#utility.yul\":1470:1488   */\n      tag_84\n      tag_33\n      jump\t// in\n    tag_84:\n        /* \"#utility.yul\":1434:1490   */\n    tag_83:\n        /* \"#utility.yul\":1508:1537   */\n      tag_85\n        /* \"#utility.yul\":1530:1536   */\n      dup3\n        /* \"#utility.yul\":1508:1537   */\n      tag_32\n      jump\t// in\n    tag_85:\n        /* \"#utility.yul\":1500:1537   */\n      swap1\n      pop\n        /* \"#utility.yul\":1592:1596   */\n      0x20\n        /* \"#utility.yul\":1586:1590   */\n      dup2\n        /* \"#utility.yul\":1582:1597   */\n      add\n        /* \"#utility.yul\":1574:1597   */\n      swap1\n      pop\n        /* \"#utility.yul\":1296:1604   */\n      swap2\n      swap1\n      pop\n      jump\t// out\n        /* \"#utility.yul\":1610:1758   */\n    tag_37:\n        /* \"#utility.yul\":1708:1714   */\n      dup3\n        /* \"#utility.yul\":1703:1706   */\n      dup2\n        /* \"#utility.yul\":1698:1701   */\n      dup4\n        /* \"#utility.yul\":1685:1715   */\n      calldatacopy\n        /* \"#utility.yul\":1749:1750   */\n      0x00\n        /* \"#utility.yul\":1740:1746   */\n      dup4\n        /* \"#utility.yul\":1735:1738   */\n      dup4\n        /* \"#utility.yul\":1731:1747   */\n      add\n        /* \"#utility.yul\":1724:1751   */\n      mstore\n        /* \"#utility.yul\":1610:1758   */\n      pop\n      pop\n      pop\n      jump\t// out\n        /* \"#utility.yul\":1764:2189   */\n    tag_38:\n        /* \"#utility.yul\":1842:1847   */\n      0x00\n        /* \"#utility.yul\":1867:1933   */\n      tag_88\n        /* \"#utility.yul\":1883:1932   */\n      tag_89\n        /* \"#utility.yul\":1925:1931   */\n      dup5\n        /* \"#utility.yul\":1883:1932   */\n      tag_36\n      jump\t// in\n    tag_89:\n        /* \"#utility.yul\":1867:1933   */\n      tag_35\n      jump\t// in\n    tag_88:\n        /* \"#utility.yul\":1858:1933   */\n      swap1\n      pop\n        /* \"#utility.yul\":1956:1962   */\n      dup3\n        /* \"#utility.yul\":1949:1954   */\n      dup2\n        /* \"#utility.yul\":1942:1963   */\n      mstore\n        /* \"#utility.yul\":1994:1998   */\n      0x20\n        /* \"#utility.yul\":1987:1992   */\n      dup2\n        /* \"#utility.yul\":1983:1999   */\n      add\n        /* \"#utility.yul\":2032:2035   */\n      dup5\n        /* \"#utility.yul\":2023:2029   */\n      dup5\n        /* \"#utility.yul\":2018:2021   */\n      dup5\n        /* \"#utility.yul\":2014:2030   */\n      add\n        /* \"#utility.yul\":2011:2036   */\n      gt\n        /* \"#utility.yul\":2008:2120   */\n      iszero\n      tag_90\n      jumpi\n        /* \"#utility.yul\":2039:2118   */\n      tag_91\n      tag_31\n      jump\t// in\n    tag_91:\n        /* \"#utility.yul\":2008:2120   */\n    tag_90:\n        /* \"#utility.yul\":2129:2183   */\n      tag_92\n        /* \"#utility.yul\":2176:2182   */\n      dup5\n        /* \"#utility.yul\":2171:2174   */\n      dup3\n        /* \"#utility.yul\":2166:2169   */\n      dup6\n        /* \"#utility.yul\":2129:2183   */\n      tag_37\n      jump\t// in\n    tag_92:\n        /* \"#utility.yul\":1848:2189   */\n      pop\n        /* \"#utility.yul\":1764:2189   */\n      swap4\n      swap3\n      pop\n      pop\n      pop\n      jump\t// out\n        /* \"#utility.yul\":2209:2549   */\n    tag_39:\n        /* \"#utility.yul\":2265:2270   */\n      0x00\n        /* \"#utility.yul\":2314:2317   */\n      dup3\n        /* \"#utility.yul\":2307:2311   */\n      0x1f\n        /* \"#utility.yul\":2299:2305   */\n      dup4\n        /* \"#utility.yul\":2295:2312   */\n      add\n        /* \"#utility.yul\":2291:2318   */\n      slt\n        /* \"#utility.yul\":2281:2403   */\n      tag_94\n      jumpi\n        /* \"#utility.yul\":2322:2401   */\n      tag_95\n      tag_30\n      jump\t// in\n    tag_95:\n        /* \"#utility.yul\":2281:2403   */\n    tag_94:\n        /* \"#utility.yul\":2439:2445   */\n      dup2\n        /* \"#utility.yul\":2426:2446   */\n      calldataload\n        /* \"#utility.yul\":2464:2543   */\n      tag_96\n        /* \"#utility.yul\":2539:2542   */\n      dup5\n        /* \"#utility.yul\":2531:2537   */\n      dup3\n        /* \"#utility.yul\":2524:2528   */\n      0x20\n        /* \"#utility.yul\":2516:2522   */\n      dup7\n        /* \"#utility.yul\":2512:2529   */\n      add\n        /* \"#utility.yul\":2464:2543   */\n      tag_38\n      jump\t// in\n    tag_96:\n        /* \"#utility.yul\":2455:2543   */\n      swap2\n      pop\n        /* \"#utility.yul\":2271:2549   */\n      pop\n        /* \"#utility.yul\":2209:2549   */\n      swap3\n      swap2\n      pop\n      pop\n      jump\t// out\n        /* \"#utility.yul\":2555:2644   */\n    tag_40:\n        /* \"#utility.yul\":2591:2598   */\n      0x00\n        /* \"#utility.yul\":2631:2637   */\n      0xffff\n        /* \"#utility.yul\":2624:2629   */\n      dup3\n        /* \"#utility.yul\":2620:2638   */\n      and\n        /* \"#utility.yul\":2609:2638   */\n      swap1\n      pop\n        /* \"#utility.yul\":2555:2644   */\n      swap2\n      swap1\n      pop\n      jump\t// out\n        /* \"#utility.yul\":2650:2770   */\n    tag_41:\n        /* \"#utility.yul\":2722:2745   */\n      tag_99\n        /* \"#utility.yul\":2739:2744   */\n      dup2\n        /* \"#utility.yul\":2722:2745   */\n      tag_40\n      jump\t// in\n    tag_99:\n        /* \"#utility.yul\":2715:2720   */\n      dup2\n        /* \"#utility.yul\":2712:2746   */\n      eq\n        /* \"#utility.yul\":2702:2764   */\n      tag_100\n      jumpi\n        /* \"#utility.yul\":2760:2761   */\n      0x00\n        /* \"#utility.yul\":2757:2758   */\n      dup1\n        /* \"#utility.yul\":2750:2762   */\n      revert\n        /* \"#utility.yul\":2702:2764   */\n    tag_100:\n        /* \"#utility.yul\":2650:2770   */\n      pop\n      jump\t// out\n        /* \"#utility.yul\":2776:2913   */\n    tag_42:\n        /* \"#utility.yul\":2821:2826   */\n      0x00\n        /* \"#utility.yul\":2859:2865   */\n      dup2\n        /* \"#utility.yul\":2846:2866   */\n      calldataload\n        /* \"#utility.yul\":2837:2866   */\n      swap1\n      pop\n        /* \"#utility.yul\":2875:2907   */\n      tag_102\n        /* \"#utility.yul\":2901:2906   */\n      dup2\n        /* \"#utility.yul\":2875:2907   */\n      tag_41\n      jump\t// in\n    tag_102:\n        /* \"#utility.yul\":2776:2913   */\n      swap3\n      swap2\n      pop\n      pop\n      jump\t// out\n        /* \"#utility.yul\":2919:3571   */\n    tag_7:\n        /* \"#utility.yul\":2996:3002   */\n      0x00\n        /* \"#utility.yul\":3004:3010   */\n      dup1\n        /* \"#utility.yul\":3053:3055   */\n      0x40\n        /* \"#utility.yul\":3041:3050   */\n      dup4\n        /* \"#utility.yul\":3032:3039   */\n      dup6\n        /* \"#utility.yul\":3028:3051   */\n      sub\n        /* \"#utility.yul\":3024:3056   */\n      slt\n        /* \"#utility.yul\":3021:3140   */\n      iszero\n      tag_104\n      jumpi\n        /* \"#utility.yul\":3059:3138   */\n      tag_105\n      tag_28\n      jump\t// in\n    tag_105:\n        /* \"#utility.yul\":3021:3140   */\n    tag_104:\n        /* \"#utility.yul\":3207:3208   */\n      0x00\n        /* \"#utility.yul\":3196:3205   */\n      dup4\n        /* \"#utility.yul\":3192:3209   */\n      add\n        /* \"#utility.yul\":3179:3210   */\n      calldataload\n        /* \"#utility.yul\":3237:3255   */\n      0xffffffffffffffff\n        /* \"#utility.yul\":3229:3235   */\n      dup2\n        /* \"#utility.yul\":3226:3256   */\n      gt\n        /* \"#utility.yul\":3223:3340   */\n      iszero\n      tag_106\n      jumpi\n        /* \"#utility.yul\":3259:3338   */\n      tag_107\n      tag_29\n      jump\t// in\n    tag_107:\n        /* \"#utility.yul\":3223:3340   */\n    tag_106:\n        /* \"#utility.yul\":3364:3427   */\n      tag_108\n        /* \"#utility.yul\":3419:3426   */\n      dup6\n        /* \"#utility.yul\":3410:3416   */\n      dup3\n        /* \"#utility.yul\":3399:3408   */\n      dup7\n        /* \"#utility.yul\":3395:3417   */\n      add\n        /* \"#utility.yul\":3364:3427   */\n      tag_39\n      jump\t// in\n    tag_108:\n        /* \"#utility.yul\":3354:3427   */\n      swap3\n      pop\n        /* \"#utility.yul\":3150:3437   */\n      pop\n        /* \"#utility.yul\":3476:3478   */\n      0x20\n        /* \"#utility.yul\":3502:3554   */\n      tag_109\n        /* \"#utility.yul\":3546:3553   */\n      dup6\n        /* \"#utility.yul\":3537:3543   */\n      dup3\n        /* \"#utility.yul\":3526:3535   */\n      dup7\n        /* \"#utility.yul\":3522:3544   */\n      add\n        /* \"#utility.yul\":3502:3554   */\n      tag_42\n      jump\t// in\n    tag_109:\n        /* \"#utility.yul\":3492:3554   */\n      swap2\n      pop\n        /* \"#utility.yul\":3447:3564   */\n      pop\n        /* \"#utility.yul\":2919:3571   */\n      swap3\n      pop\n      swap3\n      swap1\n      pop\n      jump\t// out\n        /* \"#utility.yul\":3577:3654   */\n    tag_43:\n        /* \"#utility.yul\":3614:3621   */\n      0x00\n        /* \"#utility.yul\":3643:3648   */\n      dup2\n        /* \"#utility.yul\":3632:3648   */\n      swap1\n      pop\n        /* \"#utility.yul\":3577:3654   */\n      swap2\n      swap1\n      pop\n      jump\t// out\n        /* \"#utility.yul\":3660:3782   */\n    tag_44:\n        /* \"#utility.yul\":3733:3757   */\n      tag_112\n        /* \"#utility.yul\":3751:3756   */\n      dup2\n        /* \"#utility.yul\":3733:3757   */\n      tag_43\n      jump\t// in\n    tag_112:\n        /* \"#utility.yul\":3726:3731   */\n      dup2\n        /* \"#utility.yul\":3723:3758   */\n      eq\n        /* \"#utility.yul\":3713:3776   */\n      tag_113\n      jumpi\n        /* \"#utility.yul\":3772:3773   */\n      0x00\n        /* \"#utility.yul\":3769:3770   */\n      dup1\n        /* \"#utility.yul\":3762:3774   */\n      revert\n        /* \"#utility.yul\":3713:3776   */\n    tag_113:\n        /* \"#utility.yul\":3660:3782   */\n      pop\n      jump\t// out\n        /* \"#utility.yul\":3788:3927   */\n    tag_45:\n        /* \"#utility.yul\":3834:3839   */\n      0x00\n        /* \"#utility.yul\":3872:3878   */\n      dup2\n        /* \"#utility.yul\":3859:3879   */\n      calldataload\n        /* \"#utility.yul\":3850:3879   */\n      swap1\n      pop\n        /* \"#utility.yul\":3888:3921   */\n      tag_115\n        /* \"#utility.yul\":3915:3920   */\n      dup2\n        /* \"#utility.yul\":3888:3921   */\n      tag_44\n      jump\t// in\n    tag_115:\n        /* \"#utility.yul\":3788:3927   */\n      swap3\n      swap2\n      pop\n      pop\n      jump\t// out\n        /* \"#utility.yul\":3933:4262   */\n    tag_11:\n        /* \"#utility.yul\":3992:3998   */\n      0x00\n        /* \"#utility.yul\":4041:4043   */\n      0x20\n        /* \"#utility.yul\":4029:4038   */\n      dup3\n        /* \"#utility.yul\":4020:4027   */\n      dup5\n        /* \"#utility.yul\":4016:4039   */\n      sub\n        /* \"#utility.yul\":4012:4044   */\n      slt\n        /* \"#utility.yul\":4009:4128   */\n      iszero\n      tag_117\n      jumpi\n        /* \"#utility.yul\":4047:4126   */\n      tag_118\n      tag_28\n      jump\t// in\n    tag_118:\n        /* \"#utility.yul\":4009:4128   */\n    tag_117:\n        /* \"#utility.yul\":4167:4168   */\n      0x00\n        /* \"#utility.yul\":4192:4245   */\n      tag_119\n        /* \"#utility.yul\":4237:4244   */\n      dup5\n        /* \"#utility.yul\":4228:4234   */\n      dup3\n        /* \"#utility.yul\":4217:4226   */\n      dup6\n        /* \"#utility.yul\":4213:4235   */\n      add\n        /* \"#utility.yul\":4192:4245   */\n      tag_45\n      jump\t// in\n    tag_119:\n        /* \"#utility.yul\":4182:4245   */\n      swap2\n      pop\n        /* \"#utility.yul\":4138:4255   */\n      pop\n        /* \"#utility.yul\":3933:4262   */\n      swap3\n      swap2\n      pop\n      pop\n      jump\t// out\n        /* \"#utility.yul\":4268:4367   */\n    tag_46:\n        /* \"#utility.yul\":4320:4326   */\n      0x00\n        /* \"#utility.yul\":4354:4359   */\n      dup2\n        /* \"#utility.yul\":4348:4360   */\n      mload\n        /* \"#utility.yul\":4338:4360   */\n      swap1\n      pop\n        /* \"#utility.yul\":4268:4367   */\n      swap2\n      swap1\n      pop\n      jump\t// out\n        /* \"#utility.yul\":4373:4542   */\n    tag_47:\n        /* \"#utility.yul\":4457:4468   */\n      0x00\n        /* \"#utility.yul\":4491:4497   */\n      dup3\n        /* \"#utility.yul\":4486:4489   */\n      dup3\n        /* \"#utility.yul\":4479:4498   */\n      mstore\n        /* \"#utility.yul\":4531:4535   */\n      0x20\n        /* \"#utility.yul\":4526:4529   */\n      dup3\n        /* \"#utility.yul\":4522:4536   */\n      add\n        /* \"#utility.yul\":4507:4536   */\n      swap1\n      pop\n        /* \"#utility.yul\":4373:4542   */\n      swap3\n      swap2\n      pop\n      pop\n      jump\t// out\n        /* \"#utility.yul\":4548:4687   */\n    tag_48:\n        /* \"#utility.yul\":4637:4643   */\n      dup3\n        /* \"#utility.yul\":4632:4635   */\n      dup2\n        /* \"#utility.yul\":4627:4630   */\n      dup4\n        /* \"#utility.yul\":4621:4644   */\n      mcopy\n        /* \"#utility.yul\":4678:4679   */\n      0x00\n        /* \"#utility.yul\":4669:4675   */\n      dup4\n        /* \"#utility.yul\":4664:4667   */\n      dup4\n        /* \"#utility.yul\":4660:4676   */\n      add\n        /* \"#utility.yul\":4653:4680   */\n      mstore\n        /* \"#utility.yul\":4548:4687   */\n      pop\n      pop\n      pop\n      jump\t// out\n        /* \"#utility.yul\":4693:5070   */\n    tag_49:\n        /* \"#utility.yul\":4781:4784   */\n      0x00\n        /* \"#utility.yul\":4809:4848   */\n      tag_124\n        /* \"#utility.yul\":4842:4847   */\n      dup3\n        /* \"#utility.yul\":4809:4848   */\n      tag_46\n      jump\t// in\n    tag_124:\n        /* \"#utility.yul\":4864:4935   */\n      tag_125\n        /* \"#utility.yul\":4928:4934   */\n      dup2\n        /* \"#utility.yul\":4923:4926   */\n      dup6\n        /* \"#utility.yul\":4864:4935   */\n      tag_47\n      jump\t// in\n    tag_125:\n        /* \"#utility.yul\":4857:4935   */\n      swap4\n      pop\n        /* \"#utility.yul\":4944:5009   */\n      tag_126\n        /* \"#utility.yul\":5002:5008   */\n      dup2\n        /* \"#utility.yul\":4997:5000   */\n      dup6\n        /* \"#utility.yul\":4990:4994   */\n      0x20\n        /* \"#utility.yul\":4983:4988   */\n      dup7\n        /* \"#utility.yul\":4979:4995   */\n      add\n        /* \"#utility.yul\":4944:5009   */\n      tag_48\n      jump\t// in\n    tag_126:\n        /* \"#utility.yul\":5034:5063   */\n      tag_127\n        /* \"#utility.yul\":5056:5062   */\n      dup2\n        /* \"#utility.yul\":5034:5063   */\n      tag_32\n      jump\t// in\n    tag_127:\n        /* \"#utility.yul\":5029:5032   */\n      dup5\n        /* \"#utility.yul\":5025:5064   */\n      add\n        /* \"#utility.yul\":5018:5064   */\n      swap2\n      pop\n        /* \"#utility.yul\":4785:5070   */\n      pop\n        /* \"#utility.yul\":4693:5070   */\n      swap3\n      swap2\n      pop\n      pop\n      jump\t// out\n        /* \"#utility.yul\":5076:5191   */\n    tag_50:\n        /* \"#utility.yul\":5161:5184   */\n      tag_129\n        /* \"#utility.yul\":5178:5183   */\n      dup2\n        /* \"#utility.yul\":5161:5184   */\n      tag_40\n      jump\t// in\n    tag_129:\n        /* \"#utility.yul\":5156:5159   */\n      dup3\n        /* \"#utility.yul\":5149:5185   */\n      mstore\n        /* \"#utility.yul\":5076:5191   */\n      pop\n      pop\n      jump\t// out\n        /* \"#utility.yul\":5197:5616   */\n    tag_14:\n        /* \"#utility.yul\":5336:5340   */\n      0x00\n        /* \"#utility.yul\":5374:5376   */\n      0x40\n        /* \"#utility.yul\":5363:5372   */\n      dup3\n        /* \"#utility.yul\":5359:5377   */\n      add\n        /* \"#utility.yul\":5351:5377   */\n      swap1\n      pop\n        /* \"#utility.yul\":5423:5432   */\n      dup2\n        /* \"#utility.yul\":5417:5421   */\n      dup2\n        /* \"#utility.yul\":5413:5433   */\n      sub\n        /* \"#utility.yul\":5409:5410   */\n      0x00\n        /* \"#utility.yul\":5398:5407   */\n      dup4\n        /* \"#utility.yul\":5394:5411   */\n      add\n        /* \"#utility.yul\":5387:5434   */\n      mstore\n        /* \"#utility.yul\":5451:5529   */\n      tag_131\n        /* \"#utility.yul\":5524:5528   */\n      dup2\n        /* \"#utility.yul\":5515:5521   */\n      dup6\n        /* \"#utility.yul\":5451:5529   */\n      tag_49\n      jump\t// in\n    tag_131:\n        /* \"#utility.yul\":5443:5529   */\n      swap1\n      pop\n        /* \"#utility.yul\":5539:5609   */\n      tag_132\n        /* \"#utility.yul\":5605:5607   */\n      0x20\n        /* \"#utility.yul\":5594:5603   */\n      dup4\n        /* \"#utility.yul\":5590:5608   */\n      add\n        /* \"#utility.yul\":5581:5587   */\n      dup5\n        /* \"#utility.yul\":5539:5609   */\n      tag_50\n      jump\t// in\n    tag_132:\n        /* \"#utility.yul\":5197:5616   */\n      swap4\n      swap3\n      pop\n      pop\n      pop\n      jump\t// out\n        /* \"#utility.yul\":5622:5802   */\n    tag_51:\n        /* \"#utility.yul\":5670:5747   */\n      0x4e487b7100000000000000000000000000000000000000000000000000000000\n        /* \"#utility.yul\":5667:5668   */\n      0x00\n        /* \"#utility.yul\":5660:5748   */\n      mstore\n        /* \"#utility.yul\":5767:5771   */\n      0x22\n        /* \"#utility.yul\":5764:5765   */\n      0x04\n        /* \"#utility.yul\":5757:5772   */\n      mstore\n        /* \"#utility.yul\":5791:5795   */\n      0x24\n        /* \"#utility.yul\":5788:5789   */\n      0x00\n        /* \"#utility.yul\":5781:5796   */\n      revert\n        /* \"#utility.yul\":5808:6128   */\n    tag_22:\n        /* \"#utility.yul\":5852:5858   */\n      0x00\n        /* \"#utility.yul\":5889:5890   */\n      0x02\n        /* \"#utility.yul\":5883:5887   */\n      dup3\n        /* \"#utility.yul\":5879:5891   */\n      div\n        /* \"#utility.yul\":5869:5891   */\n      swap1\n      pop\n        /* \"#utility.yul\":5936:5937   */\n      0x01\n        /* \"#utility.yul\":5930:5934   */\n      dup3\n        /* \"#utility.yul\":5926:5938   */\n      and\n        /* \"#utility.yul\":5957:5975   */\n      dup1\n        /* \"#utility.yul\":5947:6028   */\n      tag_135\n      jumpi\n        /* \"#utility.yul\":6013:6017   */\n      0x7f\n        /* \"#utility.yul\":6005:6011   */\n      dup3\n        /* \"#utility.yul\":6001:6018   */\n      and\n        /* \"#utility.yul\":5991:6018   */\n      swap2\n      pop\n        /* \"#utility.yul\":5947:6028   */\n    tag_135:\n        /* \"#utility.yul\":6075:6077   */\n      0x20\n        /* \"#utility.yul\":6067:6073   */\n      dup3\n        /* \"#utility.yul\":6064:6078   */\n      lt\n        /* \"#utility.yul\":6044:6062   */\n      dup2\n        /* \"#utility.yul\":6041:6079   */\n      sub\n        /* \"#utility.yul\":6038:6122   */\n      tag_136\n      jumpi\n        /* \"#utility.yul\":6094:6112   */\n      tag_137\n      tag_51\n      jump\t// in\n    tag_137:\n        /* \"#utility.yul\":6038:6122   */\n    tag_136:\n        /* \"#utility.yul\":5859:6128   */\n      pop\n        /* \"#utility.yul\":5808:6128   */\n      swap2\n      swap1\n      pop\n      jump\t// out\n        /* \"#utility.yul\":6134:6275   */\n    tag_52:\n        /* \"#utility.yul\":6183:6187   */\n      0x00\n        /* \"#utility.yul\":6206:6209   */\n      dup2\n        /* \"#utility.yul\":6198:6209   */\n      swap1\n      pop\n        /* \"#utility.yul\":6229:6232   */\n      dup2\n        /* \"#utility.yul\":6226:6227   */\n      0x00\n        /* \"#utility.yul\":6219:6233   */\n      mstore\n        /* \"#utility.yul\":6263:6267   */\n      0x20\n        /* \"#utility.yul\":6260:6261   */\n      0x00\n        /* \"#utility.yul\":6250:6268   */\n      keccak256\n        /* \"#utility.yul\":6242:6268   */\n      swap1\n      pop\n        /* \"#utility.yul\":6134:6275   */\n      swap2\n      swap1\n      pop\n      jump\t// out\n        /* \"#utility.yul\":6281:6374   */\n    tag_53:\n        /* \"#utility.yul\":6318:6324   */\n      0x00\n        /* \"#utility.yul\":6365:6367   */\n      0x20\n        /* \"#utility.yul\":6360:6362   */\n      0x1f\n        /* \"#utility.yul\":6353:6358   */\n      dup4\n        /* \"#utility.yul\":6349:6363   */\n      add\n        /* \"#utility.yul\":6345:6368   */\n      div\n        /* \"#utility.yul\":6335:6368   */\n      swap1\n      pop\n        /* \"#utility.yul\":6281:6374   */\n      swap2\n      swap1\n      pop\n      jump\t// out\n        /* \"#utility.yul\":6380:6487   */\n    tag_54:\n        /* \"#utility.yul\":6424:6432   */\n      0x00\n        /* \"#utility.yul\":6474:6479   */\n      dup3\n        /* \"#utility.yul\":6468:6472   */\n      dup3\n        /* \"#utility.yul\":6464:6480   */\n      shl\n        /* \"#utility.yul\":6443:6480   */\n      swap1\n      pop\n        /* \"#utility.yul\":6380:6487   */\n      swap3\n      swap2\n      pop\n      pop\n      jump\t// out\n        /* \"#utility.yul\":6493:6886   */\n    tag_55:\n        /* \"#utility.yul\":6562:6568   */\n      0x00\n        /* \"#utility.yul\":6612:6613   */\n      0x08\n        /* \"#utility.yul\":6600:6610   */\n      dup4\n        /* \"#utility.yul\":6596:6614   */\n      mul\n        /* \"#utility.yul\":6635:6732   */\n      tag_142\n        /* \"#utility.yul\":6665:6731   */\n      0xffffffffffffffffffffffffffffffffffffffffffffffffffffffffffffffff\n        /* \"#utility.yul\":6654:6663   */\n      dup3\n        /* \"#utility.yul\":6635:6732   */\n      tag_54\n      jump\t// in\n    tag_142:\n        /* \"#utility.yul\":6753:6792   */\n      tag_143\n        /* \"#utility.yul\":6783:6791   */\n      dup7\n        /* \"#utility.yul\":6772:6781   */\n      dup4\n        /* \"#utility.yul\":6753:6792   */\n      tag_54\n      jump\t// in\n    tag_143:\n        /* \"#utility.yul\":6741:6792   */\n      swap6\n      pop\n        /* \"#utility.yul\":6825:6829   */\n      dup1\n        /* \"#utility.yul\":6821:6830   */\n      not\n        /* \"#utility.yul\":6814:6819   */\n      dup5\n        /* \"#utility.yul\":6810:6831   */\n      and\n        /* \"#utility.yul\":6801:6831   */\n      swap4\n      pop\n        /* \"#utility.yul\":6874:6878   */\n      dup1\n        /* \"#utility.yul\":6864:6872   */\n      dup7\n        /* \"#utility.yul\":6860:6879   */\n      and\n        /* \"#utility.yul\":6853:6858   */\n      dup5\n        /* \"#utility.yul\":6850:6880   */\n      or\n        /* \"#utility.yul\":6840:6880   */\n      swap3\n      pop\n        /* \"#utility.yul\":6569:6886   */\n      pop\n      pop\n        /* \"#utility.yul\":6493:6886   */\n      swap4\n      swap3\n      pop\n      pop\n      pop\n      jump\t// out\n        /* \"#utility.yul\":6892:6952   */\n    tag_56:\n        /* \"#utility.yul\":6920:6923   */\n      0x00\n        /* \"#utility.yul\":6941:6946   */\n      dup2\n        /* \"#utility.yul\":6934:6946   */\n      swap1\n      pop\n        /* \"#utility.yul\":6892:6952   */\n      swap2\n      swap1\n      pop\n      jump\t// out\n        /* \"#utility.yul\":6958:7100   */\n    tag_57:\n        /* \"#utility.yul\":7008:7017   */\n      0x00\n        /* \"#utility.yul\":7041:7094   */\n      tag_146\n        /* \"#utility.yul\":7059:7093   */\n      tag_147\n        /* \"#utility.yul\":7068:7092   */\n      tag_148\n        /* \"#utility.yul\":7086:7091   */\n      dup5\n        /* \"#utility.yul\":7068:7092   */\n      tag_43\n      jump\t// in\n    tag_148:\n        /* \"#utility.yul\":7059:7093   */\n      tag_56\n      jump\t// in\n    tag_147:\n        /* \"#utility.yul\":7041:7094   */\n      tag_43\n      jump\t// in\n    tag_146:\n        /* \"#utility.yul\":7028:7094   */\n      swap1\n      pop\n        /* \"#utility.yul\":6958:7100   */\n      swap2\n      swap1\n      pop\n      jump\t// out\n        /* \"#utility.yul\":7106:7181   */\n    tag_58:\n        /* \"#utility.yul\":7149:7152   */\n      0x00\n        /* \"#utility.yul\":7170:7175   */\n      dup2\n        /* \"#utility.yul\":7163:7175   */\n      swap1\n      pop\n        /* \"#utility.yul\":7106:7181   */\n      swap2\n      swap1\n      pop\n      jump\t// out\n        /* \"#utility.yul\":7187:7456   */\n    tag_59:\n        /* \"#utility.yul\":7297:7336   */\n      tag_151\n        /* \"#utility.yul\":7328:7335   */\n      dup4\n        /* \"#utility.yul\":7297:7336   */\n      tag_57\n      jump\t// in\n    tag_151:\n        /* \"#utility.yul\":7358:7449   */\n      tag_152\n        /* \"#utility.yul\":7407:7448   */\n      tag_153\n        /* \"#utility.yul\":7431:7447   */\n      dup3\n        /* \"#utility.yul\":7407:7448   */\n      tag_58\n      jump\t// in\n    tag_153:\n        /* \"#utility.yul\":7399:7405   */\n      dup5\n        /* \"#utility.yul\":7392:7396   */\n      dup5\n        /* \"#utility.yul\":7386:7397   */\n      sload\n        /* \"#utility.yul\":7358:7449   */\n      tag_55\n      jump\t// in\n    tag_152:\n        /* \"#utility.yul\":7352:7356   */\n      dup3\n        /* \"#utility.yul\":7345:7450   */\n      sstore\n        /* \"#utility.yul\":7263:7456   */\n      pop\n        /* \"#utility.yul\":7187:7456   */\n      pop\n      pop\n      pop\n      jump\t// out\n        /* \"#utility.yul\":7462:7535   */\n    tag_60:\n        /* \"#utility.yul\":7507:7510   */\n      0x00\n        /* \"#utility.yul\":7462:7535   */\n      swap1\n      jump\t// out\n        /* \"#utility.yul\":7541:7730   */\n    tag_61:\n        /* \"#utility.yul\":7618:7650   */\n      tag_156\n      tag_60\n      jump\t// in\n    tag_156:\n        /* \"#utility.yul\":7659:7724   */\n      tag_157\n        /* \"#utility.yul\":7717:7723   */\n      dup2\n        /* \"#utility.yul\":7709:7715   */\n      dup5\n        /* \"#utility.yul\":7703:7707   */\n      dup5\n        /* \"#utility.yul\":7659:7724   */\n      tag_59\n      jump\t// in\n    tag_157:\n        /* \"#utility.yul\":7594:7730   */\n      pop\n        /* \"#utility.yul\":7541:7730   */\n      pop\n      pop\n      jump\t// out\n        /* \"#utility.yul\":7736:7922   */\n    tag_62:\n        /* \"#utility.yul\":7796:7916   */\n    tag_159:\n        /* \"#utility.yul\":7813:7816   */\n      dup2\n        /* \"#utility.yul\":7806:7811   */\n      dup2\n        /* \"#utility.yul\":7803:7817   */\n      lt\n        /* \"#utility.yul\":7796:7916   */\n      iszero\n      tag_161\n      jumpi\n        /* \"#utility.yul\":7867:7906   */\n      tag_162\n        /* \"#utility.yul\":7904:7905   */\n      0x00\n        /* \"#utility.yul\":7897:7902   */\n      dup3\n        /* \"#utility.yul\":7867:7906   */\n      tag_61\n      jump\t// in\n    tag_162:\n        /* \"#utility.yul\":7840:7841   */\n      0x01\n        /* \"#utility.yul\":7833:7838   */\n      dup2\n        /* \"#utility.yul\":7829:7842   */\n      add\n        /* \"#utility.yul\":7820:7842   */\n      swap1\n      pop\n        /* \"#utility.yul\":7796:7916   */\n      jump(tag_159)\n    tag_161:\n        /* \"#utility.yul\":7736:7922   */\n      pop\n      pop\n      jump\t// out\n        /* \"#utility.yul\":7928:8471   */\n    tag_63:\n        /* \"#utility.yul\":8029:8031   */\n      0x1f\n        /* \"#utility.yul\":8024:8027   */\n      dup3\n        /* \"#utility.yul\":8021:8032   */\n      gt\n        /* \"#utility.yul\":8018:8464   */\n      iszero\n      tag_164\n      jumpi\n        /* \"#utility.yul\":8063:8101   */\n      tag_165\n        /* \"#utility.yul\":8095:8100   */\n      dup2\n        /* \"#utility.yul\":8063:8101   */\n      tag_52\n      jump\t// in\n    tag_165:\n        /* \"#utility.yul\":8147:8176   */\n      tag_166\n        /* \"#utility.yul\":8165:8175   */\n      dup5\n        /* \"#utility.yul\":8147:8176   */\n      tag_53\n      jump\t// in\n    tag_166:\n        /* \"#utility.yul\":8137:8145   */\n      dup2\n        /* \"#utility.yul\":8133:8177   */\n      add\n        /* \"#utility.yul\":8330:8332   */\n      0x20\n        /* \"#utility.yul\":8318:8328   */\n      dup6\n        /* \"#utility.yul\":8315:8333   */\n      lt\n        /* \"#utility.yul\":8312:8361   */\n      iszero\n      tag_167\n      jumpi\n        /* \"#utility.yul\":8351:8359   */\n      dup2\n        /* \"#utility.yul\":8336:8359   */\n      swap1\n      pop\n        /* \"#utility.yul\":8312:8361   */\n    tag_167:\n        /* \"#utility.yul\":8374:8454   */\n      tag_168\n        /* \"#utility.yul\":8430:8452   */\n      tag_169\n        /* \"#utility.yul\":8448:8451   */\n      dup6\n        /* \"#utility.yul\":8430:8452   */\n      tag_53\n      jump\t// in\n    tag_169:\n        /* \"#utility.yul\":8420:8428   */\n      dup4\n        /* \"#utility.yul\":8416:8453   */\n      add\n        /* \"#utility.yul\":8403:8414   */\n      dup3\n        /* \"#utility.yul\":8374:8454   */\n      tag_62\n      jump\t// in\n    tag_168:\n        /* \"#utility.yul\":8033:8464   */\n      pop\n      pop\n        /* \"#utility.yul\":8018:8464   */\n    tag_164:\n        /* \"#utility.yul\":7928:8471   */\n      pop\n      pop\n      pop\n      jump\t// out\n        /* \"#utility.yul\":8477:8594   */\n    tag_64:\n        /* \"#utility.yul\":8531:8539   */\n      0x00\n        /* \"#utility.yul\":8581:8586   */\n      dup3\n        /* \"#utility.yul\":8575:8579   */\n      dup3\n        /* \"#utility.yul\":8571:8587   */\n      shr\n        /* \"#utility.yul\":8550:8587   */\n      swap1\n      pop\n        /* \"#utility.yul\":8477:8594   */\n      swap3\n      swap2\n      pop\n      pop\n      jump\t// out\n        /* \"#utility.yul\":8600:8769   */\n    tag_65:\n        /* \"#utility.yul\":8644:8650   */\n      0x00\n        /* \"#utility.yul\":8677:8728   */\n      tag_172\n        /* \"#utility.yul\":8725:8726   */\n      0x00\n        /* \"#utility.yul\":8721:8727   */\n      not\n        /* \"#utility.yul\":8713:8718   */\n      dup5\n        /* \"#utility.yul\":8710:8711   */\n      0x08\n        /* \"#utility.yul\":8706:8719   */\n      mul\n        /* \"#utility.yul\":8677:8728   */\n      tag_64\n      jump\t// in\n    tag_172:\n        /* \"#utility.yul\":8673:8729   */\n      not\n        /* \"#utility.yul\":8758:8762   */\n      dup1\n        /* \"#utility.yul\":8752:8756   */\n      dup4\n        /* \"#utility.yul\":8748:8763   */\n      and\n        /* \"#utility.yul\":8738:8763   */\n      swap2\n      pop\n        /* \"#utility.yul\":8651:8769   */\n      pop\n        /* \"#utility.yul\":8600:8769   */\n      swap3\n      swap2\n      pop\n      pop\n      jump\t// out\n        /* \"#utility.yul\":8774:9069   */\n    tag_66:\n        /* \"#utility.yul\":8850:8854   */\n      0x00\n        /* \"#utility.yul\":8996:9025   */\n      tag_174\n        /* \"#utility.yul\":9021:9024   */\n      dup4\n        /* \"#utility.yul\":9015:9019   */\n      dup4\n        /* \"#utility.yul\":8996:9025   */\n      tag_65\n      jump\t// in\n    tag_174:\n        /* \"#utility.yul\":8988:9025   */\n      swap2\n      pop\n        /* \"#utility.yul\":9058:9061   */\n      dup3\n        /* \"#utility.yul\":9055:9056   */\n      0x02\n        /* \"#utility.yul\":9051:9062   */\n      mul\n        /* \"#utility.yul\":9045:9049   */\n      dup3\n        /* \"#utility.yul\":9042:9063   */\n      or\n        /* \"#utility.yul\":9034:9063   */\n      swap1\n      pop\n        /* \"#utility.yul\":8774:9069   */\n      swap3\n      swap2\n      pop\n      pop\n      jump\t// out\n        /* \"#utility.yul\":9074:10469   */\n    tag_18:\n        /* \"#utility.yul\":9191:9228   */\n      tag_176\n        /* \"#utility.yul\":9224:9227   */\n      dup3\n        /* \"#utility.yul\":9191:9228   */\n      tag_46\n      jump\t// in\n    tag_176:\n        /* \"#utility.yul\":9293:9311   */\n      0xffffffffffffffff\n        /* \"#utility.yul\":9285:9291   */\n      dup2\n        /* \"#utility.yul\":9282:9312   */\n      gt\n        /* \"#utility.yul\":9279:9335   */\n      iszero\n      tag_177\n      jumpi\n        /* \"#utility.yul\":9315:9333   */\n      tag_178\n      tag_33\n      jump\t// in\n    tag_178:\n        /* \"#utility.yul\":9279:9335   */\n    tag_177:\n        /* \"#utility.yul\":9359:9397   */\n      tag_179\n        /* \"#utility.yul\":9391:9395   */\n      dup3\n        /* \"#utility.yul\":9385:9396   */\n      sload\n        /* \"#utility.yul\":9359:9397   */\n      tag_22\n      jump\t// in\n    tag_179:\n        /* \"#utility.yul\":9444:9511   */\n      tag_180\n        /* \"#utility.yul\":9504:9510   */\n      dup3\n        /* \"#utility.yul\":9496:9502   */\n      dup3\n        /* \"#utility.yul\":9490:9494   */\n      dup6\n        /* \"#utility.yul\":9444:9511   */\n      tag_63\n      jump\t// in\n    tag_180:\n        /* \"#utility.yul\":9538:9539   */\n      0x00\n        /* \"#utility.yul\":9562:9566   */\n      0x20\n        /* \"#utility.yul\":9549:9566   */\n      swap1\n      pop\n        /* \"#utility.yul\":9594:9596   */\n      0x1f\n        /* \"#utility.yul\":9586:9592   */\n      dup4\n        /* \"#utility.yul\":9583:9597   */\n      gt\n        /* \"#utility.yul\":9611:9612   */\n      0x01\n        /* \"#utility.yul\":9606:10224   */\n      dup2\n      eq\n      tag_182\n      jumpi\n        /* \"#utility.yul\":10268:10269   */\n      0x00\n        /* \"#utility.yul\":10285:10291   */\n      dup5\n        /* \"#utility.yul\":10282:10359   */\n      iszero\n      tag_183\n      jumpi\n        /* \"#utility.yul\":10334:10343   */\n      dup3\n        /* \"#utility.yul\":10329:10332   */\n      dup8\n        /* \"#utility.yul\":10325:10344   */\n      add\n        /* \"#utility.yul\":10319:10345   */\n      mload\n        /* \"#utility.yul\":10310:10345   */\n      swap1\n      pop\n        /* \"#utility.yul\":10282:10359   */\n    tag_183:\n        /* \"#utility.yul\":10385:10452   */\n      tag_184\n        /* \"#utility.yul\":10445:10451   */\n      dup6\n        /* \"#utility.yul\":10438:10443   */\n      dup3\n        /* \"#utility.yul\":10385:10452   */\n      tag_66\n      jump\t// in\n    tag_184:\n        /* \"#utility.yul\":10379:10383   */\n      dup7\n        /* \"#utility.yul\":10372:10453   */\n      sstore\n        /* \"#utility.yul\":10241:10463   */\n      pop\n        /* \"#utility.yul\":9576:10463   */\n      jump(tag_181)\n        /* \"#utility.yul\":9606:10224   */\n    tag_182:\n        /* \"#utility.yul\":9658:9662   */\n      0x1f\n        /* \"#utility.yul\":9654:9663   */\n      not\n        /* \"#utility.yul\":9646:9652   */\n      dup5\n        /* \"#utility.yul\":9642:9664   */\n      and\n        /* \"#utility.yul\":9692:9729   */\n      tag_185\n        /* \"#utility.yul\":9724:9728   */\n      dup7\n        /* \"#utility.yul\":9692:9729   */\n      tag_52\n      jump\t// in\n    tag_185:\n        /* \"#utility.yul\":9751:9752   */\n      0x00\n        /* \"#utility.yul\":9765:9973   */\n    tag_186:\n        /* \"#utility.yul\":9779:9786   */\n      dup3\n        /* \"#utility.yul\":9776:9777   */\n      dup2\n        /* \"#utility.yul\":9773:9787   */\n      lt\n        /* \"#utility.yul\":9765:9973   */\n      iszero\n      tag_188\n      jumpi\n        /* \"#utility.yul\":9858:9867   */\n      dup5\n        /* \"#utility.yul\":9853:9856   */\n      dup10\n        /* \"#utility.yul\":9849:9868   */\n      add\n        /* \"#utility.yul\":9843:9869   */\n      mload\n        /* \"#utility.yul\":9835:9841   */\n      dup3\n        /* \"#utility.yul\":9828:9870   */\n      sstore\n        /* \"#utility.yul\":9909:9910   */\n      0x01\n        /* \"#utility.yul\":9901:9907   */\n      dup3\n        /* \"#utility.yul\":9897:9911   */\n      add\n        /* \"#utility.yul\":9887:9911   */\n      swap2\n      pop\n        /* \"#utility.yul\":9956:9958   */\n      0x20\n        /* \"#utility.yul\":9945:9954   */\n      dup6\n        /* \"#utility.yul\":9941:9959   */\n      add\n        /* \"#utility.yul\":9928:9959   */\n      swap5\n      pop\n        /* \"#utility.yul\":9802:9806   */\n      0x20\n        /* \"#utility.yul\":9799:9800   */\n      dup2\n        /* \"#utility.yul\":9795:9807   */\n      add\n        /* \"#utility.yul\":9790:9807   */\n      swap1\n      pop\n        /* \"#utility.yul\":9765:9973   */\n      jump(tag_186)\n    tag_188:\n        /* \"#utility.yul\":10001:10007   */\n      dup7\n        /* \"#utility.yul\":9992:9999   */\n      dup4\n        /* \"#utility.yul\":9989:10008   */\n      lt\n        /* \"#utility.yul\":9986:10165   */\n      iszero\n      tag_189\n      jumpi\n        /* \"#utility.yul\":10059:10068   */\n      dup5\n        /* \"#utility.yul\":10054:10057   */\n      dup10\n        /* \"#utility.yul\":10050:10069   */\n      add\n        /* \"#utility.yul\":10044:10070   */\n      mload\n        /* \"#utility.yul\":10102:10150   */\n      tag_190\n        /* \"#utility.yul\":10144:10148   */\n      0x1f\n        /* \"#utility.yul\":10136:10142   */\n      dup10\n        /* \"#utility.yul\":10132:10149   */\n      and\n        /* \"#utility.yul\":10121:10130   */\n      dup3\n        /* \"#utility.yul\":10102:10150   */\n      tag_65\n      jump\t// in\n    tag_190:\n        /* \"#utility.yul\":10094:10100   */\n      dup4\n        /* \"#utility.yul\":10087:10151   */\n      sstore\n        /* \"#utility.yul\":10009:10165   */\n      pop\n        /* \"#utility.yul\":9986:10165   */\n    tag_189:\n        /* \"#utility.yul\":10211:10212   */\n      0x01\n        /* \"#utility.yul\":10207:10208   */\n      0x02\n        /* \"#utility.yul\":10199:10205   */\n      dup9\n        /* \"#utility.yul\":10195:10209   */\n      mul\n        /* \"#utility.yul\":10191:10213   */\n      add\n        /* \"#utility.yul\":10185:10189   */\n      dup9\n        /* \"#utility.yul\":10178:10214   */\n      sstore\n        /* \"#utility.yul\":9613:10224   */\n      pop\n      pop\n      pop\n        /* \"#utility.yul\":9576:10463   */\n    tag_181:\n      pop\n        /* \"#utility.yul\":9166:10469   */\n      pop\n      pop\n      pop\n        /* \"#utility.yul\":9074:10469   */\n      pop\n      pop\n      jump\t// out\n\n    auxdata: 0xa26469706673582212207701e1544790d8a42579f1e1797626fd072cb2147f87833fc20c271e850dc88264736f6c634300081a0033\n}\n",
				"bytecode": {
					"linkReferences": {},
					"object": "608060405234801561000f575f80fd5b505f60405180604001604052806040518060400160405280600a81526020017f5065746572204c696f6e000000000000000000000000000000000000000000008152508152602001601a61ffff16815250908060018154018082558091505060019003905f5260205f2090600202015f909190919091505f820151815f0190816100999190610459565b506020820151816001015f6101000a81548161ffff021916908361ffff16021790555050505f60405180604001604052806040518060400160405280600981526020017f4d616420736861726b00000000000000000000000000000000000000000000008152508152602001600461ffff16815250908060018154018082558091505060019003905f5260205f2090600202015f909190919091505f820151815f0190816101479190610459565b506020820151816001015f6101000a81548161ffff021916908361ffff16021790555050505f60405180604001604052806040518060400160405280600981526020017f506c75746f20646f6700000000000000000000000000000000000000000000008152508152602001600861ffff16815250908060018154018082558091505060019003905f5260205f2090600202015f909190919091505f820151815f0190816101f59190610459565b506020820151816001015f6101000a81548161ffff021916908361ffff1602179055505050610528565b5f81519050919050565b7f4e487b71000000000000000000000000000000000000000000000000000000005f52604160045260245ffd5b7f4e487b71000000000000000000000000000000000000000000000000000000005f52602260045260245ffd5b5f600282049050600182168061029a57607f821691505b6020821081036102ad576102ac610256565b5b50919050565b5f819050815f5260205f209050919050565b5f6020601f8301049050919050565b5f82821b905092915050565b5f6008830261030f7fffffffffffffffffffffffffffffffffffffffffffffffffffffffffffffffff826102d4565b61031986836102d4565b95508019841693508086168417925050509392505050565b5f819050919050565b5f819050919050565b5f61035d61035861035384610331565b61033a565b610331565b9050919050565b5f819050919050565b61037683610343565b61038a61038282610364565b8484546102e0565b825550505050565b5f90565b61039e610392565b6103a981848461036d565b505050565b5b818110156103cc576103c15f82610396565b6001810190506103af565b5050565b601f821115610411576103e2816102b3565b6103eb846102c5565b810160208510156103fa578190505b61040e610406856102c5565b8301826103ae565b50505b505050565b5f82821c905092915050565b5f6104315f1984600802610416565b1980831691505092915050565b5f6104498383610422565b9150826002028217905092915050565b6104628261021f565b67ffffffffffffffff81111561047b5761047a610229565b5b6104858254610283565b6104908282856103d0565b5f60209050601f8311600181146104c1575f84156104af578287015190505b6104b9858261043e565b865550610520565b601f1984166104cf866102b3565b5f5b828110156104f6578489015182556001820191506020850194506020810190506104d1565b86831015610513578489015161050f601f891682610422565b8355505b6001600288020188555050505b505050505050565b61079a806105355f395ff3fe608060405234801561000f575f80fd5b5060043610610034575f3560e01c8063793e981214610038578063f6b30cf514610054575b5f80fd5b610052600480360381019061004d9190610346565b610085565b005b61006e600480360381019061006991906103d3565b610101565b60405161007c92919061046d565b60405180910390f35b5f60405180604001604052808481526020018361ffff16815250908060018154018082558091505060019003905f5260205f2090600202015f909190919091505f820151815f0190816100d89190610695565b506020820151816001015f6101000a81548161ffff021916908361ffff16021790555050505050565b5f818154811061010f575f80fd5b905f5260205f2090600202015f91509050805f01805461012e906104c8565b80601f016020809104026020016040519081016040528092919081815260200182805461015a906104c8565b80156101a55780601f1061017c576101008083540402835291602001916101a5565b820191905f5260205f20905b81548152906001019060200180831161018857829003601f168201915b505050505090806001015f9054906101000a900461ffff16905082565b5f604051905090565b5f80fd5b5f80fd5b5f80fd5b5f80fd5b5f601f19601f8301169050919050565b7f4e487b71000000000000000000000000000000000000000000000000000000005f52604160045260245ffd5b610221826101db565b810181811067ffffffffffffffff821117156102405761023f6101eb565b5b80604052505050565b5f6102526101c2565b905061025e8282610218565b919050565b5f67ffffffffffffffff82111561027d5761027c6101eb565b5b610286826101db565b9050602081019050919050565b828183375f83830152505050565b5f6102b36102ae84610263565b610249565b9050828152602081018484840111156102cf576102ce6101d7565b5b6102da848285610293565b509392505050565b5f82601f8301126102f6576102f56101d3565b5b81356103068482602086016102a1565b91505092915050565b5f61ffff82169050919050565b6103258161030f565b811461032f575f80fd5b50565b5f813590506103408161031c565b92915050565b5f806040838503121561035c5761035b6101cb565b5b5f83013567ffffffffffffffff811115610379576103786101cf565b5b610385858286016102e2565b925050602061039685828601610332565b9150509250929050565b5f819050919050565b6103b2816103a0565b81146103bc575f80fd5b50565b5f813590506103cd816103a9565b92915050565b5f602082840312156103e8576103e76101cb565b5b5f6103f5848285016103bf565b91505092915050565b5f81519050919050565b5f82825260208201905092915050565b8281835e5f83830152505050565b5f610430826103fe565b61043a8185610408565b935061044a818560208601610418565b610453816101db565b840191505092915050565b6104678161030f565b82525050565b5f6040820190508181035f8301526104858185610426565b9050610494602083018461045e565b9392505050565b7f4e487b71000000000000000000000000000000000000000000000000000000005f52602260045260245ffd5b5f60028204905060018216806104df57607f821691505b6020821081036104f2576104f161049b565b5b50919050565b5f819050815f5260205f209050919050565b5f6020601f8301049050919050565b5f82821b905092915050565b5f600883026105547fffffffffffffffffffffffffffffffffffffffffffffffffffffffffffffffff82610519565b61055e8683610519565b95508019841693508086168417925050509392505050565b5f819050919050565b5f61059961059461058f846103a0565b610576565b6103a0565b9050919050565b5f819050919050565b6105b28361057f565b6105c66105be826105a0565b848454610525565b825550505050565b5f90565b6105da6105ce565b6105e58184846105a9565b505050565b5b81811015610608576105fd5f826105d2565b6001810190506105eb565b5050565b601f82111561064d5761061e816104f8565b6106278461050a565b81016020851015610636578190505b61064a6106428561050a565b8301826105ea565b50505b505050565b5f82821c905092915050565b5f61066d5f1984600802610652565b1980831691505092915050565b5f610685838361065e565b9150826002028217905092915050565b61069e826103fe565b67ffffffffffffffff8111156106b7576106b66101eb565b5b6106c182546104c8565b6106cc82828561060c565b5f60209050601f8311600181146106fd575f84156106eb578287015190505b6106f5858261067a565b86555061075c565b601f19841661070b866104f8565b5f5b828110156107325784890151825560018201915060208501945060208101905061070d565b8683101561074f578489015161074b601f89168261065e565b8355505b6001600288020188555050505b50505050505056fea26469706673582212207701e1544790d8a42579f1e1797626fd072cb2147f87833fc20c271e850dc88264736f6c634300081a0033",
					"opcodes": "PUSH1 0x80 PUSH1 0x40 MSTORE CALLVALUE DUP1 ISZERO PUSH2 0xF JUMPI PUSH0 DUP1 REVERT JUMPDEST POP PUSH0 PUSH1 0x40 MLOAD DUP1 PUSH1 0x40 ADD PUSH1 0x40 MSTORE DUP1 PUSH1 0x40 MLOAD DUP1 PUSH1 0x40 ADD PUSH1 0x40 MSTORE DUP1 PUSH1 0xA DUP2 MSTORE PUSH1 0x20 ADD PUSH32 0x5065746572204C696F6E00000000000000000000000000000000000000000000 DUP2 MSTORE POP DUP2 MSTORE PUSH1 0x20 ADD PUSH1 0x1A PUSH2 0xFFFF AND DUP2 MSTORE POP SWAP1 DUP1 PUSH1 0x1 DUP2 SLOAD ADD DUP1 DUP3 SSTORE DUP1 SWAP2 POP POP PUSH1 0x1 SWAP1 SUB SWAP1 PUSH0 MSTORE PUSH1 0x20 PUSH0 KECCAK256 SWAP1 PUSH1 0x2 MUL ADD PUSH0 SWAP1 SWAP2 SWAP1 SWAP2 SWAP1 SWAP2 POP PUSH0 DUP3 ADD MLOAD DUP2 PUSH0 ADD SWAP1 DUP2 PUSH2 0x99 SWAP2 SWAP1 PUSH2 0x459 JUMP JUMPDEST POP PUSH1 0x20 DUP3 ADD MLOAD DUP2 PUSH1 0x1 ADD PUSH0 PUSH2 0x100 EXP DUP2 SLOAD DUP2 PUSH2 0xFFFF MUL NOT AND SWAP1 DUP4 PUSH2 0xFFFF AND MUL OR SWAP1 SSTORE POP POP POP PUSH0 PUSH1 0x40 MLOAD DUP1 PUSH1 0x40 ADD PUSH1 0x40 MSTORE DUP1 PUSH1 0x40 MLOAD DUP1 PUSH1 0x40 ADD PUSH1 0x40 MSTORE DUP1 PUSH1 0x9 DUP2 MSTORE PUSH1 0x20 ADD PUSH32 0x4D616420736861726B0000000000000000000000000000000000000000000000 DUP2 MSTORE POP DUP2 MSTORE PUSH1 0x20 ADD PUSH1 0x4 PUSH2 0xFFFF AND DUP2 MSTORE POP SWAP1 DUP1 PUSH1 0x1 DUP2 SLOAD ADD DUP1 DUP3 SSTORE DUP1 SWAP2 POP POP PUSH1 0x1 SWAP1 SUB SWAP1 PUSH0 MSTORE PUSH1 0x20 PUSH0 KECCAK256 SWAP1 PUSH1 0x2 MUL ADD PUSH0 SWAP1 SWAP2 SWAP1 SWAP2 SWAP1 SWAP2 POP PUSH0 DUP3 ADD MLOAD DUP2 PUSH0 ADD SWAP1 DUP2 PUSH2 0x147 SWAP2 SWAP1 PUSH2 0x459 JUMP JUMPDEST POP PUSH1 0x20 DUP3 ADD MLOAD DUP2 PUSH1 0x1 ADD PUSH0 PUSH2 0x100 EXP DUP2 SLOAD DUP2 PUSH2 0xFFFF MUL NOT AND SWAP1 DUP4 PUSH2 0xFFFF AND MUL OR SWAP1 SSTORE POP POP POP PUSH0 PUSH1 0x40 MLOAD DUP1 PUSH1 0x40 ADD PUSH1 0x40 MSTORE DUP1 PUSH1 0x40 MLOAD DUP1 PUSH1 0x40 ADD PUSH1 0x40 MSTORE DUP1 PUSH1 0x9 DUP2 MSTORE PUSH1 0x20 ADD PUSH32 0x506C75746F20646F670000000000000000000000000000000000000000000000 DUP2 MSTORE POP DUP2 MSTORE PUSH1 0x20 ADD PUSH1 0x8 PUSH2 0xFFFF AND DUP2 MSTORE POP SWAP1 DUP1 PUSH1 0x1 DUP2 SLOAD ADD DUP1 DUP3 SSTORE DUP1 SWAP2 POP POP PUSH1 0x1 SWAP1 SUB SWAP1 PUSH0 MSTORE PUSH1 0x20 PUSH0 KECCAK256 SWAP1 PUSH1 0x2 MUL ADD PUSH0 SWAP1 SWAP2 SWAP1 SWAP2 SWAP1 SWAP2 POP PUSH0 DUP3 ADD MLOAD DUP2 PUSH0 ADD SWAP1 DUP2 PUSH2 0x1F5 SWAP2 SWAP1 PUSH2 0x459 JUMP JUMPDEST POP PUSH1 0x20 DUP3 ADD MLOAD DUP2 PUSH1 0x1 ADD PUSH0 PUSH2 0x100 EXP DUP2 SLOAD DUP2 PUSH2 0xFFFF MUL NOT AND SWAP1 DUP4 PUSH2 0xFFFF AND MUL OR SWAP1 SSTORE POP POP POP PUSH2 0x528 JUMP JUMPDEST PUSH0 DUP2 MLOAD SWAP1 POP SWAP2 SWAP1 POP JUMP JUMPDEST PUSH32 0x4E487B7100000000000000000000000000000000000000000000000000000000 PUSH0 MSTORE PUSH1 0x41 PUSH1 0x4 MSTORE PUSH1 0x24 PUSH0 REVERT JUMPDEST PUSH32 0x4E487B7100000000000000000000000000000000000000000000000000000000 PUSH0 MSTORE PUSH1 0x22 PUSH1 0x4 MSTORE PUSH1 0x24 PUSH0 REVERT JUMPDEST PUSH0 PUSH1 0x2 DUP3 DIV SWAP1 POP PUSH1 0x1 DUP3 AND DUP1 PUSH2 0x29A JUMPI PUSH1 0x7F DUP3 AND SWAP2 POP JUMPDEST PUSH1 0x20 DUP3 LT DUP2 SUB PUSH2 0x2AD JUMPI PUSH2 0x2AC PUSH2 0x256 JUMP JUMPDEST JUMPDEST POP SWAP2 SWAP1 POP JUMP JUMPDEST PUSH0 DUP2 SWAP1 POP DUP2 PUSH0 MSTORE PUSH1 0x20 PUSH0 KECCAK256 SWAP1 POP SWAP2 SWAP1 POP JUMP JUMPDEST PUSH0 PUSH1 0x20 PUSH1 0x1F DUP4 ADD DIV SWAP1 POP SWAP2 SWAP1 POP JUMP JUMPDEST PUSH0 DUP3 DUP3 SHL SWAP1 POP SWAP3 SWAP2 POP POP JUMP JUMPDEST PUSH0 PUSH1 0x8 DUP4 MUL PUSH2 0x30F PUSH32 0xFFFFFFFFFFFFFFFFFFFFFFFFFFFFFFFFFFFFFFFFFFFFFFFFFFFFFFFFFFFFFFFF DUP3 PUSH2 0x2D4 JUMP JUMPDEST PUSH2 0x319 DUP7 DUP4 PUSH2 0x2D4 JUMP JUMPDEST SWAP6 POP DUP1 NOT DUP5 AND SWAP4 POP DUP1 DUP7 AND DUP5 OR SWAP3 POP POP POP SWAP4 SWAP3 POP POP POP JUMP JUMPDEST PUSH0 DUP2 SWAP1 POP SWAP2 SWAP1 POP JUMP JUMPDEST PUSH0 DUP2 SWAP1 POP SWAP2 SWAP1 POP JUMP JUMPDEST PUSH0 PUSH2 0x35D PUSH2 0x358 PUSH2 0x353 DUP5 PUSH2 0x331 JUMP JUMPDEST PUSH2 0x33A JUMP JUMPDEST PUSH2 0x331 JUMP JUMPDEST SWAP1 POP SWAP2 SWAP1 POP JUMP JUMPDEST PUSH0 DUP2 SWAP1 POP SWAP2 SWAP1 POP JUMP JUMPDEST PUSH2 0x376 DUP4 PUSH2 0x343 JUMP JUMPDEST PUSH2 0x38A PUSH2 0x382 DUP3 PUSH2 0x364 JUMP JUMPDEST DUP5 DUP5 SLOAD PUSH2 0x2E0 JUMP JUMPDEST DUP3 SSTORE POP POP POP POP JUMP JUMPDEST PUSH0 SWAP1 JUMP JUMPDEST PUSH2 0x39E PUSH2 0x392 JUMP JUMPDEST PUSH2 0x3A9 DUP2 DUP5 DUP5 PUSH2 0x36D JUMP JUMPDEST POP POP POP JUMP JUMPDEST JUMPDEST DUP2 DUP2 LT ISZERO PUSH2 0x3CC JUMPI PUSH2 0x3C1 PUSH0 DUP3 PUSH2 0x396 JUMP JUMPDEST PUSH1 0x1 DUP2 ADD SWAP1 POP PUSH2 0x3AF JUMP JUMPDEST POP POP JUMP JUMPDEST PUSH1 0x1F DUP3 GT ISZERO PUSH2 0x411 JUMPI PUSH2 0x3E2 DUP2 PUSH2 0x2B3 JUMP JUMPDEST PUSH2 0x3EB DUP5 PUSH2 0x2C5 JUMP JUMPDEST DUP2 ADD PUSH1 0x20 DUP6 LT ISZERO PUSH2 0x3FA JUMPI DUP2 SWAP1 POP JUMPDEST PUSH2 0x40E PUSH2 0x406 DUP6 PUSH2 0x2C5 JUMP JUMPDEST DUP4 ADD DUP3 PUSH2 0x3AE JUMP JUMPDEST POP POP JUMPDEST POP POP POP JUMP JUMPDEST PUSH0 DUP3 DUP3 SHR SWAP1 POP SWAP3 SWAP2 POP POP JUMP JUMPDEST PUSH0 PUSH2 0x431 PUSH0 NOT DUP5 PUSH1 0x8 MUL PUSH2 0x416 JUMP JUMPDEST NOT DUP1 DUP4 AND SWAP2 POP POP SWAP3 SWAP2 POP POP JUMP JUMPDEST PUSH0 PUSH2 0x449 DUP4 DUP4 PUSH2 0x422 JUMP JUMPDEST SWAP2 POP DUP3 PUSH1 0x2 MUL DUP3 OR SWAP1 POP SWAP3 SWAP2 POP POP JUMP JUMPDEST PUSH2 0x462 DUP3 PUSH2 0x21F JUMP JUMPDEST PUSH8 0xFFFFFFFFFFFFFFFF DUP2 GT ISZERO PUSH2 0x47B JUMPI PUSH2 0x47A PUSH2 0x229 JUMP JUMPDEST JUMPDEST PUSH2 0x485 DUP3 SLOAD PUSH2 0x283 JUMP JUMPDEST PUSH2 0x490 DUP3 DUP3 DUP6 PUSH2 0x3D0 JUMP JUMPDEST PUSH0 PUSH1 0x20 SWAP1 POP PUSH1 0x1F DUP4 GT PUSH1 0x1 DUP2 EQ PUSH2 0x4C1 JUMPI PUSH0 DUP5 ISZERO PUSH2 0x4AF JUMPI DUP3 DUP8 ADD MLOAD SWAP1 POP JUMPDEST PUSH2 0x4B9 DUP6 DUP3 PUSH2 0x43E JUMP JUMPDEST DUP7 SSTORE POP PUSH2 0x520 JUMP JUMPDEST PUSH1 0x1F NOT DUP5 AND PUSH2 0x4CF DUP7 PUSH2 0x2B3 JUMP JUMPDEST PUSH0 JUMPDEST DUP3 DUP2 LT ISZERO PUSH2 0x4F6 JUMPI DUP5 DUP10 ADD MLOAD DUP3 SSTORE PUSH1 0x1 DUP3 ADD SWAP2 POP PUSH1 0x20 DUP6 ADD SWAP5 POP PUSH1 0x20 DUP2 ADD SWAP1 POP PUSH2 0x4D1 JUMP JUMPDEST DUP7 DUP4 LT ISZERO PUSH2 0x513 JUMPI DUP5 DUP10 ADD MLOAD PUSH2 0x50F PUSH1 0x1F DUP10 AND DUP3 PUSH2 0x422 JUMP JUMPDEST DUP4 SSTORE POP JUMPDEST PUSH1 0x1 PUSH1 0x2 DUP9 MUL ADD DUP9 SSTORE POP POP POP JUMPDEST POP POP POP POP POP POP JUMP JUMPDEST PUSH2 0x79A DUP1 PUSH2 0x535 PUSH0 CODECOPY PUSH0 RETURN INVALID PUSH1 0x80 PUSH1 0x40 MSTORE CALLVALUE DUP1 ISZERO PUSH2 0xF JUMPI PUSH0 DUP1 REVERT JUMPDEST POP PUSH1 0x4 CALLDATASIZE LT PUSH2 0x34 JUMPI PUSH0 CALLDATALOAD PUSH1 0xE0 SHR DUP1 PUSH4 0x793E9812 EQ PUSH2 0x38 JUMPI DUP1 PUSH4 0xF6B30CF5 EQ PUSH2 0x54 JUMPI JUMPDEST PUSH0 DUP1 REVERT JUMPDEST PUSH2 0x52 PUSH1 0x4 DUP1 CALLDATASIZE SUB DUP2 ADD SWAP1 PUSH2 0x4D SWAP2 SWAP1 PUSH2 0x346 JUMP JUMPDEST PUSH2 0x85 JUMP JUMPDEST STOP JUMPDEST PUSH2 0x6E PUSH1 0x4 DUP1 CALLDATASIZE SUB DUP2 ADD SWAP1 PUSH2 0x69 SWAP2 SWAP1 PUSH2 0x3D3 JUMP JUMPDEST PUSH2 0x101 JUMP JUMPDEST PUSH1 0x40 MLOAD PUSH2 0x7C SWAP3 SWAP2 SWAP1 PUSH2 0x46D JUMP JUMPDEST PUSH1 0x40 MLOAD DUP1 SWAP2 SUB SWAP1 RETURN JUMPDEST PUSH0 PUSH1 0x40 MLOAD DUP1 PUSH1 0x40 ADD PUSH1 0x40 MSTORE DUP1 DUP5 DUP2 MSTORE PUSH1 0x20 ADD DUP4 PUSH2 0xFFFF AND DUP2 MSTORE POP SWAP1 DUP1 PUSH1 0x1 DUP2 SLOAD ADD DUP1 DUP3 SSTORE DUP1 SWAP2 POP POP PUSH1 0x1 SWAP1 SUB SWAP1 PUSH0 MSTORE PUSH1 0x20 PUSH0 KECCAK256 SWAP1 PUSH1 0x2 MUL ADD PUSH0 SWAP1 SWAP2 SWAP1 SWAP2 SWAP1 SWAP2 POP PUSH0 DUP3 ADD MLOAD DUP2 PUSH0 ADD SWAP1 DUP2 PUSH2 0xD8 SWAP2 SWAP1 PUSH2 0x695 JUMP JUMPDEST POP PUSH1 0x20 DUP3 ADD MLOAD DUP2 PUSH1 0x1 ADD PUSH0 PUSH2 0x100 EXP DUP2 SLOAD DUP2 PUSH2 0xFFFF MUL NOT AND SWAP1 DUP4 PUSH2 0xFFFF AND MUL OR SWAP1 SSTORE POP POP POP POP POP JUMP JUMPDEST PUSH0 DUP2 DUP2 SLOAD DUP2 LT PUSH2 0x10F JUMPI PUSH0 DUP1 REVERT JUMPDEST SWAP1 PUSH0 MSTORE PUSH1 0x20 PUSH0 KECCAK256 SWAP1 PUSH1 0x2 MUL ADD PUSH0 SWAP2 POP SWAP1 POP DUP1 PUSH0 ADD DUP1 SLOAD PUSH2 0x12E SWAP1 PUSH2 0x4C8 JUMP JUMPDEST DUP1 PUSH1 0x1F ADD PUSH1 0x20 DUP1 SWAP2 DIV MUL PUSH1 0x20 ADD PUSH1 0x40 MLOAD SWAP1 DUP2 ADD PUSH1 0x40 MSTORE DUP1 SWAP3 SWAP2 SWAP1 DUP2 DUP2 MSTORE PUSH1 0x20 ADD DUP3 DUP1 SLOAD PUSH2 0x15A SWAP1 PUSH2 0x4C8 JUMP JUMPDEST DUP1 ISZERO PUSH2 0x1A5 JUMPI DUP1 PUSH1 0x1F LT PUSH2 0x17C JUMPI PUSH2 0x100 DUP1 DUP4 SLOAD DIV MUL DUP4 MSTORE SWAP2 PUSH1 0x20 ADD SWAP2 PUSH2 0x1A5 JUMP JUMPDEST DUP3 ADD SWAP2 SWAP1 PUSH0 MSTORE PUSH1 0x20 PUSH0 KECCAK256 SWAP1 JUMPDEST DUP2 SLOAD DUP2 MSTORE SWAP1 PUSH1 0x1 ADD SWAP1 PUSH1 0x20 ADD DUP1 DUP4 GT PUSH2 0x188 JUMPI DUP3 SWAP1 SUB PUSH1 0x1F AND DUP3 ADD SWAP2 JUMPDEST POP POP POP POP POP SWAP1 DUP1 PUSH1 0x1 ADD PUSH0 SWAP1 SLOAD SWAP1 PUSH2 0x100 EXP SWAP1 DIV PUSH2 0xFFFF AND SWAP1 POP DUP3 JUMP JUMPDEST PUSH0 PUSH1 0x40 MLOAD SWAP1 POP SWAP1 JUMP JUMPDEST PUSH0 DUP1 REVERT JUMPDEST PUSH0 DUP1 REVERT JUMPDEST PUSH0 DUP1 REVERT JUMPDEST PUSH0 DUP1 REVERT JUMPDEST PUSH0 PUSH1 0x1F NOT PUSH1 0x1F DUP4 ADD AND SWAP1 POP SWAP2 SWAP1 POP JUMP JUMPDEST PUSH32 0x4E487B7100000000000000000000000000000000000000000000000000000000 PUSH0 MSTORE PUSH1 0x41 PUSH1 0x4 MSTORE PUSH1 0x24 PUSH0 REVERT JUMPDEST PUSH2 0x221 DUP3 PUSH2 0x1DB JUMP JUMPDEST DUP2 ADD DUP2 DUP2 LT PUSH8 0xFFFFFFFFFFFFFFFF DUP3 GT OR ISZERO PUSH2 0x240 JUMPI PUSH2 0x23F PUSH2 0x1EB JUMP JUMPDEST JUMPDEST DUP1 PUSH1 0x40 MSTORE POP POP POP JUMP JUMPDEST PUSH0 PUSH2 0x252 PUSH2 0x1C2 JUMP JUMPDEST SWAP1 POP PUSH2 0x25E DUP3 DUP3 PUSH2 0x218 JUMP JUMPDEST SWAP2 SWAP1 POP JUMP JUMPDEST PUSH0 PUSH8 0xFFFFFFFFFFFFFFFF DUP3 GT ISZERO PUSH2 0x27D JUMPI PUSH2 0x27C PUSH2 0x1EB JUMP JUMPDEST JUMPDEST PUSH2 0x286 DUP3 PUSH2 0x1DB JUMP JUMPDEST SWAP1 POP PUSH1 0x20 DUP2 ADD SWAP1 POP SWAP2 SWAP1 POP JUMP JUMPDEST DUP3 DUP2 DUP4 CALLDATACOPY PUSH0 DUP4 DUP4 ADD MSTORE POP POP POP JUMP JUMPDEST PUSH0 PUSH2 0x2B3 PUSH2 0x2AE DUP5 PUSH2 0x263 JUMP JUMPDEST PUSH2 0x249 JUMP JUMPDEST SWAP1 POP DUP3 DUP2 MSTORE PUSH1 0x20 DUP2 ADD DUP5 DUP5 DUP5 ADD GT ISZERO PUSH2 0x2CF JUMPI PUSH2 0x2CE PUSH2 0x1D7 JUMP JUMPDEST JUMPDEST PUSH2 0x2DA DUP5 DUP3 DUP6 PUSH2 0x293 JUMP JUMPDEST POP SWAP4 SWAP3 POP POP POP JUMP JUMPDEST PUSH0 DUP3 PUSH1 0x1F DUP4 ADD SLT PUSH2 0x2F6 JUMPI PUSH2 0x2F5 PUSH2 0x1D3 JUMP JUMPDEST JUMPDEST DUP2 CALLDATALOAD PUSH2 0x306 DUP5 DUP3 PUSH1 0x20 DUP7 ADD PUSH2 0x2A1 JUMP JUMPDEST SWAP2 POP POP SWAP3 SWAP2 POP POP JUMP JUMPDEST PUSH0 PUSH2 0xFFFF DUP3 AND SWAP1 POP SWAP2 SWAP1 POP JUMP JUMPDEST PUSH2 0x325 DUP2 PUSH2 0x30F JUMP JUMPDEST DUP2 EQ PUSH2 0x32F JUMPI PUSH0 DUP1 REVERT JUMPDEST POP JUMP JUMPDEST PUSH0 DUP2 CALLDATALOAD SWAP1 POP PUSH2 0x340 DUP2 PUSH2 0x31C JUMP JUMPDEST SWAP3 SWAP2 POP POP JUMP JUMPDEST PUSH0 DUP1 PUSH1 0x40 DUP4 DUP6 SUB SLT ISZERO PUSH2 0x35C JUMPI PUSH2 0x35B PUSH2 0x1CB JUMP JUMPDEST JUMPDEST PUSH0 DUP4 ADD CALLDATALOAD PUSH8 0xFFFFFFFFFFFFFFFF DUP2 GT ISZERO PUSH2 0x379 JUMPI PUSH2 0x378 PUSH2 0x1CF JUMP JUMPDEST JUMPDEST PUSH2 0x385 DUP6 DUP3 DUP7 ADD PUSH2 0x2E2 JUMP JUMPDEST SWAP3 POP POP PUSH1 0x20 PUSH2 0x396 DUP6 DUP3 DUP7 ADD PUSH2 0x332 JUMP JUMPDEST SWAP2 POP POP SWAP3 POP SWAP3 SWAP1 POP JUMP JUMPDEST PUSH0 DUP2 SWAP1 POP SWAP2 SWAP1 POP JUMP JUMPDEST PUSH2 0x3B2 DUP2 PUSH2 0x3A0 JUMP JUMPDEST DUP2 EQ PUSH2 0x3BC JUMPI PUSH0 DUP1 REVERT JUMPDEST POP JUMP JUMPDEST PUSH0 DUP2 CALLDATALOAD SWAP1 POP PUSH2 0x3CD DUP2 PUSH2 0x3A9 JUMP JUMPDEST SWAP3 SWAP2 POP POP JUMP JUMPDEST PUSH0 PUSH1 0x20 DUP3 DUP5 SUB SLT ISZERO PUSH2 0x3E8 JUMPI PUSH2 0x3E7 PUSH2 0x1CB JUMP JUMPDEST JUMPDEST PUSH0 PUSH2 0x3F5 DUP5 DUP3 DUP6 ADD PUSH2 0x3BF JUMP JUMPDEST SWAP2 POP POP SWAP3 SWAP2 POP POP JUMP JUMPDEST PUSH0 DUP2 MLOAD SWAP1 POP SWAP2 SWAP1 POP JUMP JUMPDEST PUSH0 DUP3 DUP3 MSTORE PUSH1 0x20 DUP3 ADD SWAP1 POP SWAP3 SWAP2 POP POP JUMP JUMPDEST DUP3 DUP2 DUP4 MCOPY PUSH0 DUP4 DUP4 ADD MSTORE POP POP POP JUMP JUMPDEST PUSH0 PUSH2 0x430 DUP3 PUSH2 0x3FE JUMP JUMPDEST PUSH2 0x43A DUP2 DUP6 PUSH2 0x408 JUMP JUMPDEST SWAP4 POP PUSH2 0x44A DUP2 DUP6 PUSH1 0x20 DUP7 ADD PUSH2 0x418 JUMP JUMPDEST PUSH2 0x453 DUP2 PUSH2 0x1DB JUMP JUMPDEST DUP5 ADD SWAP2 POP POP SWAP3 SWAP2 POP POP JUMP JUMPDEST PUSH2 0x467 DUP2 PUSH2 0x30F JUMP JUMPDEST DUP3 MSTORE POP POP JUMP JUMPDEST PUSH0 PUSH1 0x40 DUP3 ADD SWAP1 POP DUP2 DUP2 SUB PUSH0 DUP4 ADD MSTORE PUSH2 0x485 DUP2 DUP6 PUSH2 0x426 JUMP JUMPDEST SWAP1 POP PUSH2 0x494 PUSH1 0x20 DUP4 ADD DUP5 PUSH2 0x45E JUMP JUMPDEST SWAP4 SWAP3 POP POP POP JUMP JUMPDEST PUSH32 0x4E487B7100000000000000000000000000000000000000000000000000000000 PUSH0 MSTORE PUSH1 0x22 PUSH1 0x4 MSTORE PUSH1 0x24 PUSH0 REVERT JUMPDEST PUSH0 PUSH1 0x2 DUP3 DIV SWAP1 POP PUSH1 0x1 DUP3 AND DUP1 PUSH2 0x4DF JUMPI PUSH1 0x7F DUP3 AND SWAP2 POP JUMPDEST PUSH1 0x20 DUP3 LT DUP2 SUB PUSH2 0x4F2 JUMPI PUSH2 0x4F1 PUSH2 0x49B JUMP JUMPDEST JUMPDEST POP SWAP2 SWAP1 POP JUMP JUMPDEST PUSH0 DUP2 SWAP1 POP DUP2 PUSH0 MSTORE PUSH1 0x20 PUSH0 KECCAK256 SWAP1 POP SWAP2 SWAP1 POP JUMP JUMPDEST PUSH0 PUSH1 0x20 PUSH1 0x1F DUP4 ADD DIV SWAP1 POP SWAP2 SWAP1 POP JUMP JUMPDEST PUSH0 DUP3 DUP3 SHL SWAP1 POP SWAP3 SWAP2 POP POP JUMP JUMPDEST PUSH0 PUSH1 0x8 DUP4 MUL PUSH2 0x554 PUSH32 0xFFFFFFFFFFFFFFFFFFFFFFFFFFFFFFFFFFFFFFFFFFFFFFFFFFFFFFFFFFFFFFFF DUP3 PUSH2 0x519 JUMP JUMPDEST PUSH2 0x55E DUP7 DUP4 PUSH2 0x519 JUMP JUMPDEST SWAP6 POP DUP1 NOT DUP5 AND SWAP4 POP DUP1 DUP7 AND DUP5 OR SWAP3 POP POP POP SWAP4 SWAP3 POP POP POP JUMP JUMPDEST PUSH0 DUP2 SWAP1 POP SWAP2 SWAP1 POP JUMP JUMPDEST PUSH0 PUSH2 0x599 PUSH2 0x594 PUSH2 0x58F DUP5 PUSH2 0x3A0 JUMP JUMPDEST PUSH2 0x576 JUMP JUMPDEST PUSH2 0x3A0 JUMP JUMPDEST SWAP1 POP SWAP2 SWAP1 POP JUMP JUMPDEST PUSH0 DUP2 SWAP1 POP SWAP2 SWAP1 POP JUMP JUMPDEST PUSH2 0x5B2 DUP4 PUSH2 0x57F JUMP JUMPDEST PUSH2 0x5C6 PUSH2 0x5BE DUP3 PUSH2 0x5A0 JUMP JUMPDEST DUP5 DUP5 SLOAD PUSH2 0x525 JUMP JUMPDEST DUP3 SSTORE POP POP POP POP JUMP JUMPDEST PUSH0 SWAP1 JUMP JUMPDEST PUSH2 0x5DA PUSH2 0x5CE JUMP JUMPDEST PUSH2 0x5E5 DUP2 DUP5 DUP5 PUSH2 0x5A9 JUMP JUMPDEST POP POP POP JUMP JUMPDEST JUMPDEST DUP2 DUP2 LT ISZERO PUSH2 0x608 JUMPI PUSH2 0x5FD PUSH0 DUP3 PUSH2 0x5D2 JUMP JUMPDEST PUSH1 0x1 DUP2 ADD SWAP1 POP PUSH2 0x5EB JUMP JUMPDEST POP POP JUMP JUMPDEST PUSH1 0x1F DUP3 GT ISZERO PUSH2 0x64D JUMPI PUSH2 0x61E DUP2 PUSH2 0x4F8 JUMP JUMPDEST PUSH2 0x627 DUP5 PUSH2 0x50A JUMP JUMPDEST DUP2 ADD PUSH1 0x20 DUP6 LT ISZERO PUSH2 0x636 JUMPI DUP2 SWAP1 POP JUMPDEST PUSH2 0x64A PUSH2 0x642 DUP6 PUSH2 0x50A JUMP JUMPDEST DUP4 ADD DUP3 PUSH2 0x5EA JUMP JUMPDEST POP POP JUMPDEST POP POP POP JUMP JUMPDEST PUSH0 DUP3 DUP3 SHR SWAP1 POP SWAP3 SWAP2 POP POP JUMP JUMPDEST PUSH0 PUSH2 0x66D PUSH0 NOT DUP5 PUSH1 0x8 MUL PUSH2 0x652 JUMP JUMPDEST NOT DUP1 DUP4 AND SWAP2 POP POP SWAP3 SWAP2 POP POP JUMP JUMPDEST PUSH0 PUSH2 0x685 DUP4 DUP4 PUSH2 0x65E JUMP JUMPDEST SWAP2 POP DUP3 PUSH1 0x2 MUL DUP3 OR SWAP1 POP SWAP3 SWAP2 POP POP JUMP JUMPDEST PUSH2 0x69E DUP3 PUSH2 0x3FE JUMP JUMPDEST PUSH8 0xFFFFFFFFFFFFFFFF DUP2 GT ISZERO PUSH2 0x6B7 JUMPI PUSH2 0x6B6 PUSH2 0x1EB JUMP JUMPDEST JUMPDEST PUSH2 0x6C1 DUP3 SLOAD PUSH2 0x4C8 JUMP JUMPDEST PUSH2 0x6CC DUP3 DUP3 DUP6 PUSH2 0x60C JUMP JUMPDEST PUSH0 PUSH1 0x20 SWAP1 POP PUSH1 0x1F DUP4 GT PUSH1 0x1 DUP2 EQ PUSH2 0x6FD JUMPI PUSH0 DUP5 ISZERO PUSH2 0x6EB JUMPI DUP3 DUP8 ADD MLOAD SWAP1 POP JUMPDEST PUSH2 0x6F5 DUP6 DUP3 PUSH2 0x67A JUMP JUMPDEST DUP7 SSTORE POP PUSH2 0x75C JUMP JUMPDEST PUSH1 0x1F NOT DUP5 AND PUSH2 0x70B DUP7 PUSH2 0x4F8 JUMP JUMPDEST PUSH0 JUMPDEST DUP3 DUP2 LT ISZERO PUSH2 0x732 JUMPI DUP5 DUP10 ADD MLOAD DUP3 SSTORE PUSH1 0x1 DUP3 ADD SWAP2 POP PUSH1 0x20 DUP6 ADD SWAP5 POP PUSH1 0x20 DUP2 ADD SWAP1 POP PUSH2 0x70D JUMP JUMPDEST DUP7 DUP4 LT ISZERO PUSH2 0x74F JUMPI DUP5 DUP10 ADD MLOAD PUSH2 0x74B PUSH1 0x1F DUP10 AND DUP3 PUSH2 0x65E JUMP JUMPDEST DUP4 SSTORE POP JUMPDEST PUSH1 0x1 PUSH1 0x2 DUP9 MUL ADD DUP9 SSTORE POP POP POP JUMPDEST POP POP POP POP POP POP JUMP INVALID LOG2 PUSH5 0x6970667358 0x22 SLT KECCAK256 PUSH24 0x1E1544790D8A42579F1E1797626FD072CB2147F87833FC2 0xC 0x27 0x1E DUP6 0xD 0xC8 DUP3 PUSH5 0x736F6C6343 STOP ADDMOD BYTE STOP CALLER "
				},
				"gasEstimates": {
					"creation": {
						"codeDepositCost": "389200",
						"executionCost": "infinite",
						"totalCost": "infinite"
					},
					"external": {
						"add_animal(string,uint16)": "infinite",
						"listOfAnimals(uint256)": "infinite"
					}
				},
				"methodIdentifiers": {
					"add_animal(string,uint16)": "793e9812",
					"listOfAnimals(uint256)": "f6b30cf5"
				}
			},
			"storageLayout": {
				"storage": [
					{
						"astId": 10,
						"contract": "AnimalsStorage.sol:AnimalsStorage",
						"label": "listOfAnimals",
						"offset": 0,
						"slot": "0",
						"type": "t_array(t_struct(Animal)6_storage)dyn_storage"
					}
				],
				"types": {
					"t_array(t_struct(Animal)6_storage)dyn_storage": {
						"base": "t_struct(Animal)6_storage",
						"encoding": "dynamic_array",
						"label": "struct AnimalsStorage.Animal[]",
						"numberOfBytes": "32"
					},
					"t_string_storage": {
						"encoding": "bytes",
						"label": "string",
						"numberOfBytes": "32"
					},
					"t_struct(Animal)6_storage": {
						"encoding": "inplace",
						"label": "struct AnimalsStorage.Animal",
						"members": [
							{
								"astId": 3,
								"contract": "AnimalsStorage.sol:AnimalsStorage",
								"label": "name",
								"offset": 0,
								"slot": "0",
								"type": "t_string_storage"
							},
							{
								"astId": 5,
								"contract": "AnimalsStorage.sol:AnimalsStorage",
								"label": "age",
								"offset": 0,
								"slot": "1",
								"type": "t_uint16"
							}
						],
						"numberOfBytes": "64"
					},
					"t_uint16": {
						"encoding": "inplace",
						"label": "uint16",
						"numberOfBytes": "2"
					}
				}
			},
			"userdoc": {
				"kind": "user",
				"methods": {},
				"version": 1
			}
		}
	}
}