{
	"UserBalance.sol": {
		"UserBalance": {
			"abi": [
				{
					"inputs": [
						{
							"internalType": "address",
							"name": "_address",
							"type": "address"
						},
						{
							"internalType": "uint256",
							"name": "_balance",
							"type": "uint256"
						}
					],
					"name": "addUser",
					"outputs": [],
					"stateMutability": "nonpayable",
					"type": "function"
				},
				{
					"inputs": [
						{
							"internalType": "address",
							"name": "",
							"type": "address"
						}
					],
					"name": "addressToBalance",
					"outputs": [
						{
							"internalType": "uint256",
							"name": "",
							"type": "uint256"
						}
					],
					"stateMutability": "view",
					"type": "function"
				},
				{
					"inputs": [
						{
							"internalType": "uint256",
							"name": "",
							"type": "uint256"
						}
					],
					"name": "users",
					"outputs": [
						{
							"internalType": "address",
							"name": "account",
							"type": "address"
						},
						{
							"internalType": "uint256",
							"name": "balance",
							"type": "uint256"
						}
					],
					"stateMutability": "view",
					"type": "function"
				}
			],
			"devdoc": {
				"kind": "dev",
				"methods": {},
				"version": 1
			},
			"evm": {
				"assembly": "    /* \"UserBalance.sol\":443:762  contract UserBalance {... */\n  mstore(0x40, 0x80)\n  callvalue\n  dup1\n  iszero\n  tag_1\n  jumpi\n  0x00\n  dup1\n  revert\ntag_1:\n  pop\n  dataSize(sub_0)\n  dup1\n  dataOffset(sub_0)\n  0x00\n  codecopy\n  0x00\n  return\nstop\n\nsub_0: assembly {\n        /* \"UserBalance.sol\":443:762  contract UserBalance {... */\n      mstore(0x40, 0x80)\n      callvalue\n      dup1\n      iszero\n      tag_1\n      jumpi\n      0x00\n      dup1\n      revert\n    tag_1:\n      pop\n      jumpi(tag_2, lt(calldatasize, 0x04))\n      shr(0xe0, calldataload(0x00))\n      dup1\n      0x237c980a\n      eq\n      tag_3\n      jumpi\n      dup1\n      0x365b98b2\n      eq\n      tag_4\n      jumpi\n      dup1\n      0xd3017193\n      eq\n      tag_5\n      jumpi\n    tag_2:\n      0x00\n      dup1\n      revert\n        /* \"UserBalance.sol\":579:630  mapping(address => uint256) public addressToBalance */\n    tag_3:\n      tag_6\n      0x04\n      dup1\n      calldatasize\n      sub\n      dup2\n      add\n      swap1\n      tag_7\n      swap2\n      swap1\n      tag_8\n      jump\t// in\n    tag_7:\n      tag_9\n      jump\t// in\n    tag_6:\n      mload(0x40)\n      tag_10\n      swap2\n      swap1\n      tag_11\n      jump\t// in\n    tag_10:\n      mload(0x40)\n      dup1\n      swap2\n      sub\n      swap1\n      return\n        /* \"UserBalance.sol\":553:572  User[] public users */\n    tag_4:\n      tag_12\n      0x04\n      dup1\n      calldatasize\n      sub\n      dup2\n      add\n      swap1\n      tag_13\n      swap2\n      swap1\n      tag_14\n      jump\t// in\n    tag_13:\n      tag_15\n      jump\t// in\n    tag_12:\n      mload(0x40)\n      tag_16\n      swap3\n      swap2\n      swap1\n      tag_17\n      jump\t// in\n    tag_16:\n      mload(0x40)\n      dup1\n      swap2\n      sub\n      swap1\n      return\n        /* \"UserBalance.sol\":639:756  function addUser (address _address, uint256 _balance) public {... */\n    tag_5:\n      tag_18\n      0x04\n      dup1\n      calldatasize\n      sub\n      dup2\n      add\n      swap1\n      tag_19\n      swap2\n      swap1\n      tag_20\n      jump\t// in\n    tag_19:\n      tag_21\n      jump\t// in\n    tag_18:\n      stop\n        /* \"UserBalance.sol\":579:630  mapping(address => uint256) public addressToBalance */\n    tag_9:\n      mstore(0x20, 0x01)\n      dup1\n      0x00\n      mstore\n      keccak256(0x00, 0x40)\n      0x00\n      swap2\n      pop\n      swap1\n      pop\n      sload\n      dup2\n      jump\t// out\n        /* \"UserBalance.sol\":553:572  User[] public users */\n    tag_15:\n      0x00\n      dup2\n      dup2\n      sload\n      dup2\n      lt\n      tag_22\n      jumpi\n      0x00\n      dup1\n      revert\n    tag_22:\n      swap1\n      0x00\n      mstore\n      keccak256(0x00, 0x20)\n      swap1\n      0x02\n      mul\n      add\n      0x00\n      swap2\n      pop\n      swap1\n      pop\n      dup1\n      0x00\n      add\n      0x00\n      swap1\n      sload\n      swap1\n      0x0100\n      exp\n      swap1\n      div\n      0xffffffffffffffffffffffffffffffffffffffff\n      and\n      swap1\n      dup1\n      0x01\n      add\n      sload\n      swap1\n      pop\n      dup3\n      jump\t// out\n        /* \"UserBalance.sol\":639:756  function addUser (address _address, uint256 _balance) public {... */\n    tag_21:\n        /* \"UserBalance.sol\":740:748  _balance */\n      dup1\n        /* \"UserBalance.sol\":711:727  addressToBalance */\n      0x01\n        /* \"UserBalance.sol\":711:737  addressToBalance[_address] */\n      0x00\n        /* \"UserBalance.sol\":728:736  _address */\n      dup5\n        /* \"UserBalance.sol\":711:737  addressToBalance[_address] */\n      0xffffffffffffffffffffffffffffffffffffffff\n      and\n      0xffffffffffffffffffffffffffffffffffffffff\n      and\n      dup2\n      mstore\n      0x20\n      add\n      swap1\n      dup2\n      mstore\n      0x20\n      add\n      0x00\n      keccak256\n        /* \"UserBalance.sol\":711:748  addressToBalance[_address] = _balance */\n      dup2\n      swap1\n      sstore\n      pop\n        /* \"UserBalance.sol\":639:756  function addUser (address _address, uint256 _balance) public {... */\n      pop\n      pop\n      jump\t// out\n        /* \"#utility.yul\":88:205   */\n    tag_26:\n        /* \"#utility.yul\":197:198   */\n      0x00\n        /* \"#utility.yul\":194:195   */\n      dup1\n        /* \"#utility.yul\":187:199   */\n      revert\n        /* \"#utility.yul\":334:460   */\n    tag_28:\n        /* \"#utility.yul\":371:378   */\n      0x00\n        /* \"#utility.yul\":411:453   */\n      0xffffffffffffffffffffffffffffffffffffffff\n        /* \"#utility.yul\":404:409   */\n      dup3\n        /* \"#utility.yul\":400:454   */\n      and\n        /* \"#utility.yul\":389:454   */\n      swap1\n      pop\n        /* \"#utility.yul\":334:460   */\n      swap2\n      swap1\n      pop\n      jump\t// out\n        /* \"#utility.yul\":466:562   */\n    tag_29:\n        /* \"#utility.yul\":503:510   */\n      0x00\n        /* \"#utility.yul\":532:556   */\n      tag_43\n        /* \"#utility.yul\":550:555   */\n      dup3\n        /* \"#utility.yul\":532:556   */\n      tag_28\n      jump\t// in\n    tag_43:\n        /* \"#utility.yul\":521:556   */\n      swap1\n      pop\n        /* \"#utility.yul\":466:562   */\n      swap2\n      swap1\n      pop\n      jump\t// out\n        /* \"#utility.yul\":568:690   */\n    tag_30:\n        /* \"#utility.yul\":641:665   */\n      tag_45\n        /* \"#utility.yul\":659:664   */\n      dup2\n        /* \"#utility.yul\":641:665   */\n      tag_29\n      jump\t// in\n    tag_45:\n        /* \"#utility.yul\":634:639   */\n      dup2\n        /* \"#utility.yul\":631:666   */\n      eq\n        /* \"#utility.yul\":621:684   */\n      tag_46\n      jumpi\n        /* \"#utility.yul\":680:681   */\n      0x00\n        /* \"#utility.yul\":677:678   */\n      dup1\n        /* \"#utility.yul\":670:682   */\n      revert\n        /* \"#utility.yul\":621:684   */\n    tag_46:\n        /* \"#utility.yul\":568:690   */\n      pop\n      jump\t// out\n        /* \"#utility.yul\":696:835   */\n    tag_31:\n        /* \"#utility.yul\":742:747   */\n      0x00\n        /* \"#utility.yul\":780:786   */\n      dup2\n        /* \"#utility.yul\":767:787   */\n      calldataload\n        /* \"#utility.yul\":758:787   */\n      swap1\n      pop\n        /* \"#utility.yul\":796:829   */\n      tag_48\n        /* \"#utility.yul\":823:828   */\n      dup2\n        /* \"#utility.yul\":796:829   */\n      tag_30\n      jump\t// in\n    tag_48:\n        /* \"#utility.yul\":696:835   */\n      swap3\n      swap2\n      pop\n      pop\n      jump\t// out\n        /* \"#utility.yul\":841:1170   */\n    tag_8:\n        /* \"#utility.yul\":900:906   */\n      0x00\n        /* \"#utility.yul\":949:951   */\n      0x20\n        /* \"#utility.yul\":937:946   */\n      dup3\n        /* \"#utility.yul\":928:935   */\n      dup5\n        /* \"#utility.yul\":924:947   */\n      sub\n        /* \"#utility.yul\":920:952   */\n      slt\n        /* \"#utility.yul\":917:1036   */\n      iszero\n      tag_50\n      jumpi\n        /* \"#utility.yul\":955:1034   */\n      tag_51\n      tag_26\n      jump\t// in\n    tag_51:\n        /* \"#utility.yul\":917:1036   */\n    tag_50:\n        /* \"#utility.yul\":1075:1076   */\n      0x00\n        /* \"#utility.yul\":1100:1153   */\n      tag_52\n        /* \"#utility.yul\":1145:1152   */\n      dup5\n        /* \"#utility.yul\":1136:1142   */\n      dup3\n        /* \"#utility.yul\":1125:1134   */\n      dup6\n        /* \"#utility.yul\":1121:1143   */\n      add\n        /* \"#utility.yul\":1100:1153   */\n      tag_31\n      jump\t// in\n    tag_52:\n        /* \"#utility.yul\":1090:1153   */\n      swap2\n      pop\n        /* \"#utility.yul\":1046:1163   */\n      pop\n        /* \"#utility.yul\":841:1170   */\n      swap3\n      swap2\n      pop\n      pop\n      jump\t// out\n        /* \"#utility.yul\":1176:1253   */\n    tag_32:\n        /* \"#utility.yul\":1213:1220   */\n      0x00\n        /* \"#utility.yul\":1242:1247   */\n      dup2\n        /* \"#utility.yul\":1231:1247   */\n      swap1\n      pop\n        /* \"#utility.yul\":1176:1253   */\n      swap2\n      swap1\n      pop\n      jump\t// out\n        /* \"#utility.yul\":1259:1377   */\n    tag_33:\n        /* \"#utility.yul\":1346:1370   */\n      tag_55\n        /* \"#utility.yul\":1364:1369   */\n      dup2\n        /* \"#utility.yul\":1346:1370   */\n      tag_32\n      jump\t// in\n    tag_55:\n        /* \"#utility.yul\":1341:1344   */\n      dup3\n        /* \"#utility.yul\":1334:1371   */\n      mstore\n        /* \"#utility.yul\":1259:1377   */\n      pop\n      pop\n      jump\t// out\n        /* \"#utility.yul\":1383:1605   */\n    tag_11:\n        /* \"#utility.yul\":1476:1480   */\n      0x00\n        /* \"#utility.yul\":1514:1516   */\n      0x20\n        /* \"#utility.yul\":1503:1512   */\n      dup3\n        /* \"#utility.yul\":1499:1517   */\n      add\n        /* \"#utility.yul\":1491:1517   */\n      swap1\n      pop\n        /* \"#utility.yul\":1527:1598   */\n      tag_57\n        /* \"#utility.yul\":1595:1596   */\n      0x00\n        /* \"#utility.yul\":1584:1593   */\n      dup4\n        /* \"#utility.yul\":1580:1597   */\n      add\n        /* \"#utility.yul\":1571:1577   */\n      dup5\n        /* \"#utility.yul\":1527:1598   */\n      tag_33\n      jump\t// in\n    tag_57:\n        /* \"#utility.yul\":1383:1605   */\n      swap3\n      swap2\n      pop\n      pop\n      jump\t// out\n        /* \"#utility.yul\":1611:1733   */\n    tag_34:\n        /* \"#utility.yul\":1684:1708   */\n      tag_59\n        /* \"#utility.yul\":1702:1707   */\n      dup2\n        /* \"#utility.yul\":1684:1708   */\n      tag_32\n      jump\t// in\n    tag_59:\n        /* \"#utility.yul\":1677:1682   */\n      dup2\n        /* \"#utility.yul\":1674:1709   */\n      eq\n        /* \"#utility.yul\":1664:1727   */\n      tag_60\n      jumpi\n        /* \"#utility.yul\":1723:1724   */\n      0x00\n        /* \"#utility.yul\":1720:1721   */\n      dup1\n        /* \"#utility.yul\":1713:1725   */\n      revert\n        /* \"#utility.yul\":1664:1727   */\n    tag_60:\n        /* \"#utility.yul\":1611:1733   */\n      pop\n      jump\t// out\n        /* \"#utility.yul\":1739:1878   */\n    tag_35:\n        /* \"#utility.yul\":1785:1790   */\n      0x00\n        /* \"#utility.yul\":1823:1829   */\n      dup2\n        /* \"#utility.yul\":1810:1830   */\n      calldataload\n        /* \"#utility.yul\":1801:1830   */\n      swap1\n      pop\n        /* \"#utility.yul\":1839:1872   */\n      tag_62\n        /* \"#utility.yul\":1866:1871   */\n      dup2\n        /* \"#utility.yul\":1839:1872   */\n      tag_34\n      jump\t// in\n    tag_62:\n        /* \"#utility.yul\":1739:1878   */\n      swap3\n      swap2\n      pop\n      pop\n      jump\t// out\n        /* \"#utility.yul\":1884:2213   */\n    tag_14:\n        /* \"#utility.yul\":1943:1949   */\n      0x00\n        /* \"#utility.yul\":1992:1994   */\n      0x20\n        /* \"#utility.yul\":1980:1989   */\n      dup3\n        /* \"#utility.yul\":1971:1978   */\n      dup5\n        /* \"#utility.yul\":1967:1990   */\n      sub\n        /* \"#utility.yul\":1963:1995   */\n      slt\n        /* \"#utility.yul\":1960:2079   */\n      iszero\n      tag_64\n      jumpi\n        /* \"#utility.yul\":1998:2077   */\n      tag_65\n      tag_26\n      jump\t// in\n    tag_65:\n        /* \"#utility.yul\":1960:2079   */\n    tag_64:\n        /* \"#utility.yul\":2118:2119   */\n      0x00\n        /* \"#utility.yul\":2143:2196   */\n      tag_66\n        /* \"#utility.yul\":2188:2195   */\n      dup5\n        /* \"#utility.yul\":2179:2185   */\n      dup3\n        /* \"#utility.yul\":2168:2177   */\n      dup6\n        /* \"#utility.yul\":2164:2186   */\n      add\n        /* \"#utility.yul\":2143:2196   */\n      tag_35\n      jump\t// in\n    tag_66:\n        /* \"#utility.yul\":2133:2196   */\n      swap2\n      pop\n        /* \"#utility.yul\":2089:2206   */\n      pop\n        /* \"#utility.yul\":1884:2213   */\n      swap3\n      swap2\n      pop\n      pop\n      jump\t// out\n        /* \"#utility.yul\":2219:2337   */\n    tag_36:\n        /* \"#utility.yul\":2306:2330   */\n      tag_68\n        /* \"#utility.yul\":2324:2329   */\n      dup2\n        /* \"#utility.yul\":2306:2330   */\n      tag_29\n      jump\t// in\n    tag_68:\n        /* \"#utility.yul\":2301:2304   */\n      dup3\n        /* \"#utility.yul\":2294:2331   */\n      mstore\n        /* \"#utility.yul\":2219:2337   */\n      pop\n      pop\n      jump\t// out\n        /* \"#utility.yul\":2343:2675   */\n    tag_17:\n        /* \"#utility.yul\":2464:2468   */\n      0x00\n        /* \"#utility.yul\":2502:2504   */\n      0x40\n        /* \"#utility.yul\":2491:2500   */\n      dup3\n        /* \"#utility.yul\":2487:2505   */\n      add\n        /* \"#utility.yul\":2479:2505   */\n      swap1\n      pop\n        /* \"#utility.yul\":2515:2586   */\n      tag_70\n        /* \"#utility.yul\":2583:2584   */\n      0x00\n        /* \"#utility.yul\":2572:2581   */\n      dup4\n        /* \"#utility.yul\":2568:2585   */\n      add\n        /* \"#utility.yul\":2559:2565   */\n      dup6\n        /* \"#utility.yul\":2515:2586   */\n      tag_36\n      jump\t// in\n    tag_70:\n        /* \"#utility.yul\":2596:2668   */\n      tag_71\n        /* \"#utility.yul\":2664:2666   */\n      0x20\n        /* \"#utility.yul\":2653:2662   */\n      dup4\n        /* \"#utility.yul\":2649:2667   */\n      add\n        /* \"#utility.yul\":2640:2646   */\n      dup5\n        /* \"#utility.yul\":2596:2668   */\n      tag_33\n      jump\t// in\n    tag_71:\n        /* \"#utility.yul\":2343:2675   */\n      swap4\n      swap3\n      pop\n      pop\n      pop\n      jump\t// out\n        /* \"#utility.yul\":2681:3155   */\n    tag_20:\n        /* \"#utility.yul\":2749:2755   */\n      0x00\n        /* \"#utility.yul\":2757:2763   */\n      dup1\n        /* \"#utility.yul\":2806:2808   */\n      0x40\n        /* \"#utility.yul\":2794:2803   */\n      dup4\n        /* \"#utility.yul\":2785:2792   */\n      dup6\n        /* \"#utility.yul\":2781:2804   */\n      sub\n        /* \"#utility.yul\":2777:2809   */\n      slt\n        /* \"#utility.yul\":2774:2893   */\n      iszero\n      tag_73\n      jumpi\n        /* \"#utility.yul\":2812:2891   */\n      tag_74\n      tag_26\n      jump\t// in\n    tag_74:\n        /* \"#utility.yul\":2774:2893   */\n    tag_73:\n        /* \"#utility.yul\":2932:2933   */\n      0x00\n        /* \"#utility.yul\":2957:3010   */\n      tag_75\n        /* \"#utility.yul\":3002:3009   */\n      dup6\n        /* \"#utility.yul\":2993:2999   */\n      dup3\n        /* \"#utility.yul\":2982:2991   */\n      dup7\n        /* \"#utility.yul\":2978:3000   */\n      add\n        /* \"#utility.yul\":2957:3010   */\n      tag_31\n      jump\t// in\n    tag_75:\n        /* \"#utility.yul\":2947:3010   */\n      swap3\n      pop\n        /* \"#utility.yul\":2903:3020   */\n      pop\n        /* \"#utility.yul\":3059:3061   */\n      0x20\n        /* \"#utility.yul\":3085:3138   */\n      tag_76\n        /* \"#utility.yul\":3130:3137   */\n      dup6\n        /* \"#utility.yul\":3121:3127   */\n      dup3\n        /* \"#utility.yul\":3110:3119   */\n      dup7\n        /* \"#utility.yul\":3106:3128   */\n      add\n        /* \"#utility.yul\":3085:3138   */\n      tag_35\n      jump\t// in\n    tag_76:\n        /* \"#utility.yul\":3075:3138   */\n      swap2\n      pop\n        /* \"#utility.yul\":3030:3148   */\n      pop\n        /* \"#utility.yul\":2681:3155   */\n      swap3\n      pop\n      swap3\n      swap1\n      pop\n      jump\t// out\n\n    auxdata: 0xa264697066735822122036601a4f34ac57c275b66a9455e08a382e1772d2ba156ee33088fa92cc66925664736f6c634300081a0033\n}\n",
				"bytecode": {
					"linkReferences": {},
					"object": "6080604052348015600e575f80fd5b506103218061001c5f395ff3fe608060405234801561000f575f80fd5b506004361061003f575f3560e01c8063237c980a14610043578063365b98b214610073578063d3017193146100a4575b5f80fd5b61005d600480360381019061005891906101c6565b6100c0565b60405161006a9190610209565b60405180910390f35b61008d6004803603810190610088919061024c565b6100d5565b60405161009b929190610286565b60405180910390f35b6100be60048036038101906100b991906102ad565b610122565b005b6001602052805f5260405f205f915090505481565b5f81815481106100e3575f80fd5b905f5260205f2090600202015f91509050805f015f9054906101000a900473ffffffffffffffffffffffffffffffffffffffff16908060010154905082565b8060015f8473ffffffffffffffffffffffffffffffffffffffff1673ffffffffffffffffffffffffffffffffffffffff1681526020019081526020015f20819055505050565b5f80fd5b5f73ffffffffffffffffffffffffffffffffffffffff82169050919050565b5f6101958261016c565b9050919050565b6101a58161018b565b81146101af575f80fd5b50565b5f813590506101c08161019c565b92915050565b5f602082840312156101db576101da610168565b5b5f6101e8848285016101b2565b91505092915050565b5f819050919050565b610203816101f1565b82525050565b5f60208201905061021c5f8301846101fa565b92915050565b61022b816101f1565b8114610235575f80fd5b50565b5f8135905061024681610222565b92915050565b5f6020828403121561026157610260610168565b5b5f61026e84828501610238565b91505092915050565b6102808161018b565b82525050565b5f6040820190506102995f830185610277565b6102a660208301846101fa565b9392505050565b5f80604083850312156102c3576102c2610168565b5b5f6102d0858286016101b2565b92505060206102e185828601610238565b915050925092905056fea264697066735822122036601a4f34ac57c275b66a9455e08a382e1772d2ba156ee33088fa92cc66925664736f6c634300081a0033",
					"opcodes": "PUSH1 0x80 PUSH1 0x40 MSTORE CALLVALUE DUP1 ISZERO PUSH1 0xE JUMPI PUSH0 DUP1 REVERT JUMPDEST POP PUSH2 0x321 DUP1 PUSH2 0x1C PUSH0 CODECOPY PUSH0 RETURN INVALID PUSH1 0x80 PUSH1 0x40 MSTORE CALLVALUE DUP1 ISZERO PUSH2 0xF JUMPI PUSH0 DUP1 REVERT JUMPDEST POP PUSH1 0x4 CALLDATASIZE LT PUSH2 0x3F JUMPI PUSH0 CALLDATALOAD PUSH1 0xE0 SHR DUP1 PUSH4 0x237C980A EQ PUSH2 0x43 JUMPI DUP1 PUSH4 0x365B98B2 EQ PUSH2 0x73 JUMPI DUP1 PUSH4 0xD3017193 EQ PUSH2 0xA4 JUMPI JUMPDEST PUSH0 DUP1 REVERT JUMPDEST PUSH2 0x5D PUSH1 0x4 DUP1 CALLDATASIZE SUB DUP2 ADD SWAP1 PUSH2 0x58 SWAP2 SWAP1 PUSH2 0x1C6 JUMP JUMPDEST PUSH2 0xC0 JUMP JUMPDEST PUSH1 0x40 MLOAD PUSH2 0x6A SWAP2 SWAP1 PUSH2 0x209 JUMP JUMPDEST PUSH1 0x40 MLOAD DUP1 SWAP2 SUB SWAP1 RETURN JUMPDEST PUSH2 0x8D PUSH1 0x4 DUP1 CALLDATASIZE SUB DUP2 ADD SWAP1 PUSH2 0x88 SWAP2 SWAP1 PUSH2 0x24C JUMP JUMPDEST PUSH2 0xD5 JUMP JUMPDEST PUSH1 0x40 MLOAD PUSH2 0x9B SWAP3 SWAP2 SWAP1 PUSH2 0x286 JUMP JUMPDEST PUSH1 0x40 MLOAD DUP1 SWAP2 SUB SWAP1 RETURN JUMPDEST PUSH2 0xBE PUSH1 0x4 DUP1 CALLDATASIZE SUB DUP2 ADD SWAP1 PUSH2 0xB9 SWAP2 SWAP1 PUSH2 0x2AD JUMP JUMPDEST PUSH2 0x122 JUMP JUMPDEST STOP JUMPDEST PUSH1 0x1 PUSH1 0x20 MSTORE DUP1 PUSH0 MSTORE PUSH1 0x40 PUSH0 KECCAK256 PUSH0 SWAP2 POP SWAP1 POP SLOAD DUP2 JUMP JUMPDEST PUSH0 DUP2 DUP2 SLOAD DUP2 LT PUSH2 0xE3 JUMPI PUSH0 DUP1 REVERT JUMPDEST SWAP1 PUSH0 MSTORE PUSH1 0x20 PUSH0 KECCAK256 SWAP1 PUSH1 0x2 MUL ADD PUSH0 SWAP2 POP SWAP1 POP DUP1 PUSH0 ADD PUSH0 SWAP1 SLOAD SWAP1 PUSH2 0x100 EXP SWAP1 DIV PUSH20 0xFFFFFFFFFFFFFFFFFFFFFFFFFFFFFFFFFFFFFFFF AND SWAP1 DUP1 PUSH1 0x1 ADD SLOAD SWAP1 POP DUP3 JUMP JUMPDEST DUP1 PUSH1 0x1 PUSH0 DUP5 PUSH20 0xFFFFFFFFFFFFFFFFFFFFFFFFFFFFFFFFFFFFFFFF AND PUSH20 0xFFFFFFFFFFFFFFFFFFFFFFFFFFFFFFFFFFFFFFFF AND DUP2 MSTORE PUSH1 0x20 ADD SWAP1 DUP2 MSTORE PUSH1 0x20 ADD PUSH0 KECCAK256 DUP2 SWAP1 SSTORE POP POP POP JUMP JUMPDEST PUSH0 DUP1 REVERT JUMPDEST PUSH0 PUSH20 0xFFFFFFFFFFFFFFFFFFFFFFFFFFFFFFFFFFFFFFFF DUP3 AND SWAP1 POP SWAP2 SWAP1 POP JUMP JUMPDEST PUSH0 PUSH2 0x195 DUP3 PUSH2 0x16C JUMP JUMPDEST SWAP1 POP SWAP2 SWAP1 POP JUMP JUMPDEST PUSH2 0x1A5 DUP2 PUSH2 0x18B JUMP JUMPDEST DUP2 EQ PUSH2 0x1AF JUMPI PUSH0 DUP1 REVERT JUMPDEST POP JUMP JUMPDEST PUSH0 DUP2 CALLDATALOAD SWAP1 POP PUSH2 0x1C0 DUP2 PUSH2 0x19C JUMP JUMPDEST SWAP3 SWAP2 POP POP JUMP JUMPDEST PUSH0 PUSH1 0x20 DUP3 DUP5 SUB SLT ISZERO PUSH2 0x1DB JUMPI PUSH2 0x1DA PUSH2 0x168 JUMP JUMPDEST JUMPDEST PUSH0 PUSH2 0x1E8 DUP5 DUP3 DUP6 ADD PUSH2 0x1B2 JUMP JUMPDEST SWAP2 POP POP SWAP3 SWAP2 POP POP JUMP JUMPDEST PUSH0 DUP2 SWAP1 POP SWAP2 SWAP1 POP JUMP JUMPDEST PUSH2 0x203 DUP2 PUSH2 0x1F1 JUMP JUMPDEST DUP3 MSTORE POP POP JUMP JUMPDEST PUSH0 PUSH1 0x20 DUP3 ADD SWAP1 POP PUSH2 0x21C PUSH0 DUP4 ADD DUP5 PUSH2 0x1FA JUMP JUMPDEST SWAP3 SWAP2 POP POP JUMP JUMPDEST PUSH2 0x22B DUP2 PUSH2 0x1F1 JUMP JUMPDEST DUP2 EQ PUSH2 0x235 JUMPI PUSH0 DUP1 REVERT JUMPDEST POP JUMP JUMPDEST PUSH0 DUP2 CALLDATALOAD SWAP1 POP PUSH2 0x246 DUP2 PUSH2 0x222 JUMP JUMPDEST SWAP3 SWAP2 POP POP JUMP JUMPDEST PUSH0 PUSH1 0x20 DUP3 DUP5 SUB SLT ISZERO PUSH2 0x261 JUMPI PUSH2 0x260 PUSH2 0x168 JUMP JUMPDEST JUMPDEST PUSH0 PUSH2 0x26E DUP5 DUP3 DUP6 ADD PUSH2 0x238 JUMP JUMPDEST SWAP2 POP POP SWAP3 SWAP2 POP POP JUMP JUMPDEST PUSH2 0x280 DUP2 PUSH2 0x18B JUMP JUMPDEST DUP3 MSTORE POP POP JUMP JUMPDEST PUSH0 PUSH1 0x40 DUP3 ADD SWAP1 POP PUSH2 0x299 PUSH0 DUP4 ADD DUP6 PUSH2 0x277 JUMP JUMPDEST PUSH2 0x2A6 PUSH1 0x20 DUP4 ADD DUP5 PUSH2 0x1FA JUMP JUMPDEST SWAP4 SWAP3 POP POP POP JUMP JUMPDEST PUSH0 DUP1 PUSH1 0x40 DUP4 DUP6 SUB SLT ISZERO PUSH2 0x2C3 JUMPI PUSH2 0x2C2 PUSH2 0x168 JUMP JUMPDEST JUMPDEST PUSH0 PUSH2 0x2D0 DUP6 DUP3 DUP7 ADD PUSH2 0x1B2 JUMP JUMPDEST SWAP3 POP POP PUSH1 0x20 PUSH2 0x2E1 DUP6 DUP3 DUP7 ADD PUSH2 0x238 JUMP JUMPDEST SWAP2 POP POP SWAP3 POP SWAP3 SWAP1 POP JUMP INVALID LOG2 PUSH5 0x6970667358 0x22 SLT KECCAK256 CALLDATASIZE PUSH1 0x1A 0x4F CALLVALUE 0xAC JUMPI 0xC2 PUSH22 0xB66A9455E08A382E1772D2BA156EE33088FA92CC6692 JUMP PUSH5 0x736F6C6343 STOP ADDMOD BYTE STOP CALLER "
				},
				"gasEstimates": {
					"creation": {
						"codeDepositCost": "160200",
						"executionCost": "206",
						"totalCost": "160406"
					},
					"external": {
						"addUser(address,uint256)": "22844",
						"addressToBalance(address)": "2780",
						"users(uint256)": "infinite"
					}
				},
				"methodIdentifiers": {
					"addUser(address,uint256)": "d3017193",
					"addressToBalance(address)": "237c980a",
					"users(uint256)": "365b98b2"
				}
			},
			"storageLayout": {
				"storage": [
					{
						"astId": 10,
						"contract": "UserBalance.sol:UserBalance",
						"label": "users",
						"offset": 0,
						"slot": "0",
						"type": "t_array(t_struct(User)6_storage)dyn_storage"
					},
					{
						"astId": 14,
						"contract": "UserBalance.sol:UserBalance",
						"label": "addressToBalance",
						"offset": 0,
						"slot": "1",
						"type": "t_mapping(t_address,t_uint256)"
					}
				],
				"types": {
					"t_address": {
						"encoding": "inplace",
						"label": "address",
						"numberOfBytes": "20"
					},
					"t_array(t_struct(User)6_storage)dyn_storage": {
						"base": "t_struct(User)6_storage",
						"encoding": "dynamic_array",
						"label": "struct UserBalance.User[]",
						"numberOfBytes": "32"
					},
					"t_mapping(t_address,t_uint256)": {
						"encoding": "mapping",
						"key": "t_address",
						"label": "mapping(address => uint256)",
						"numberOfBytes": "32",
						"value": "t_uint256"
					},
					"t_struct(User)6_storage": {
						"encoding": "inplace",
						"label": "struct UserBalance.User",
						"members": [
							{
								"astId": 3,
								"contract": "UserBalance.sol:UserBalance",
								"label": "account",
								"offset": 0,
								"slot": "0",
								"type": "t_address"
							},
							{
								"astId": 5,
								"contract": "UserBalance.sol:UserBalance",
								"label": "balance",
								"offset": 0,
								"slot": "1",
								"type": "t_uint256"
							}
						],
						"numberOfBytes": "64"
					},
					"t_uint256": {
						"encoding": "inplace",
						"label": "uint256",
						"numberOfBytes": "32"
					}
				}
			},
			"userdoc": {
				"kind": "user",
				"methods": {},
				"version": 1
			}
		}
	}
}