{
	"MemoryStorage.sol": {
		"MemoryStorage": {
			"abi": [
				{
					"inputs": [
						{
							"internalType": "string",
							"name": "_name",
							"type": "string"
						},
						{
							"internalType": "uint256",
							"name": "_favoriteNumber",
							"type": "uint256"
						}
					],
					"name": "addPerson",
					"outputs": [],
					"stateMutability": "nonpayable",
					"type": "function"
				},
				{
					"inputs": [
						{
							"internalType": "string",
							"name": "",
							"type": "string"
						}
					],
					"name": "nameToFavoriteNumber",
					"outputs": [
						{
							"internalType": "uint256",
							"name": "",
							"type": "uint256"
						}
					],
					"stateMutability": "view",
					"type": "function"
				},
				{
					"inputs": [
						{
							"internalType": "uint256",
							"name": "",
							"type": "uint256"
						}
					],
					"name": "people",
					"outputs": [
						{
							"internalType": "string",
							"name": "name",
							"type": "string"
						},
						{
							"internalType": "uint256",
							"name": "favoriteNumber",
							"type": "uint256"
						}
					],
					"stateMutability": "view",
					"type": "function"
				}
			],
			"devdoc": {
				"kind": "dev",
				"methods": {},
				"version": 1
			},
			"evm": {
				"assembly": "    /* \"MemoryStorage.sol\":1079:1495  contract MemoryStorage {... */\n  mstore(0x40, 0x80)\n  callvalue\n  dup1\n  iszero\n  tag_1\n  jumpi\n  0x00\n  dup1\n  revert\ntag_1:\n  pop\n  dataSize(sub_0)\n  dup1\n  dataOffset(sub_0)\n  0x00\n  codecopy\n  0x00\n  return\nstop\n\nsub_0: assembly {\n        /* \"MemoryStorage.sol\":1079:1495  contract MemoryStorage {... */\n      mstore(0x40, 0x80)\n      callvalue\n      dup1\n      iszero\n      tag_1\n      jumpi\n      0x00\n      dup1\n      revert\n    tag_1:\n      pop\n      jumpi(tag_2, lt(calldatasize, 0x04))\n      shr(0xe0, calldataload(0x00))\n      dup1\n      0x6f760f41\n      eq\n      tag_3\n      jumpi\n      dup1\n      0x8bab8dd5\n      eq\n      tag_4\n      jumpi\n      dup1\n      0x9e7a13ad\n      eq\n      tag_5\n      jumpi\n    tag_2:\n      0x00\n      dup1\n      revert\n        /* \"MemoryStorage.sol\":1302:1492  function addPerson (string calldata _name, uint256 _favoriteNumber) public {... */\n    tag_3:\n      tag_6\n      0x04\n      dup1\n      calldatasize\n      sub\n      dup2\n      add\n      swap1\n      tag_7\n      swap2\n      swap1\n      tag_8\n      jump\t// in\n    tag_7:\n      tag_9\n      jump\t// in\n    tag_6:\n      stop\n        /* \"MemoryStorage.sol\":1241:1295  mapping(string => uint256) public nameToFavoriteNumber */\n    tag_4:\n      tag_10\n      0x04\n      dup1\n      calldatasize\n      sub\n      dup2\n      add\n      swap1\n      tag_11\n      swap2\n      swap1\n      tag_12\n      jump\t// in\n    tag_11:\n      tag_13\n      jump\t// in\n    tag_10:\n      mload(0x40)\n      tag_14\n      swap2\n      swap1\n      tag_15\n      jump\t// in\n    tag_14:\n      mload(0x40)\n      dup1\n      swap2\n      sub\n      swap1\n      return\n        /* \"MemoryStorage.sol\":1213:1235  Person[] public people */\n    tag_5:\n      tag_16\n      0x04\n      dup1\n      calldatasize\n      sub\n      dup2\n      add\n      swap1\n      tag_17\n      swap2\n      swap1\n      tag_18\n      jump\t// in\n    tag_17:\n      tag_19\n      jump\t// in\n    tag_16:\n      mload(0x40)\n      tag_20\n      swap3\n      swap2\n      swap1\n      tag_21\n      jump\t// in\n    tag_20:\n      mload(0x40)\n      dup1\n      swap2\n      sub\n      swap1\n      return\n        /* \"MemoryStorage.sol\":1302:1492  function addPerson (string calldata _name, uint256 _favoriteNumber) public {... */\n    tag_9:\n        /* \"MemoryStorage.sol\":1387:1393  people */\n      0x00\n        /* \"MemoryStorage.sol\":1399:1429  Person(_name, _favoriteNumber) */\n      mload(0x40)\n      dup1\n      0x40\n      add\n      0x40\n      mstore\n      dup1\n        /* \"MemoryStorage.sol\":1406:1411  _name */\n      dup6\n      dup6\n        /* \"MemoryStorage.sol\":1399:1429  Person(_name, _favoriteNumber) */\n      dup1\n      dup1\n      0x1f\n      add\n      0x20\n      dup1\n      swap2\n      div\n      mul\n      0x20\n      add\n      mload(0x40)\n      swap1\n      dup2\n      add\n      0x40\n      mstore\n      dup1\n      swap4\n      swap3\n      swap2\n      swap1\n      dup2\n      dup2\n      mstore\n      0x20\n      add\n      dup4\n      dup4\n      dup1\n      dup3\n      dup5\n      calldatacopy\n      0x00\n      dup2\n      dup5\n      add\n      mstore\n      not(0x1f)\n      0x1f\n      dup3\n      add\n      and\n      swap1\n      pop\n      dup1\n      dup4\n      add\n      swap3\n      pop\n      pop\n      pop\n      pop\n      pop\n      pop\n      pop\n      dup2\n      mstore\n      0x20\n      add\n        /* \"MemoryStorage.sol\":1413:1428  _favoriteNumber */\n      dup4\n        /* \"MemoryStorage.sol\":1399:1429  Person(_name, _favoriteNumber) */\n      dup2\n      mstore\n      pop\n        /* \"MemoryStorage.sol\":1387:1430  people.push(Person(_name, _favoriteNumber)) */\n      swap1\n      dup1\n      0x01\n      dup2\n      sload\n      add\n      dup1\n      dup3\n      sstore\n      dup1\n      swap2\n      pop\n      pop\n      0x01\n      swap1\n      sub\n      swap1\n      0x00\n      mstore\n      keccak256(0x00, 0x20)\n      swap1\n      0x02\n      mul\n      add\n      0x00\n      swap1\n      swap2\n      swap1\n      swap2\n      swap1\n      swap2\n      pop\n      0x00\n      dup3\n      add\n      mload\n      dup2\n      0x00\n      add\n      swap1\n      dup2\n      tag_24\n      swap2\n      swap1\n      tag_25\n      jump\t// in\n    tag_24:\n      pop\n      0x20\n      dup3\n      add\n      mload\n      dup2\n      0x01\n      add\n      sstore\n      pop\n      pop\n        /* \"MemoryStorage.sol\":1470:1485  _favoriteNumber */\n      dup1\n        /* \"MemoryStorage.sol\":1440:1460  nameToFavoriteNumber */\n      0x01\n        /* \"MemoryStorage.sol\":1461:1466  _name */\n      dup5\n      dup5\n        /* \"MemoryStorage.sol\":1440:1467  nameToFavoriteNumber[_name] */\n      mload(0x40)\n      tag_26\n      swap3\n      swap2\n      swap1\n      tag_27\n      jump\t// in\n    tag_26:\n      swap1\n      dup2\n      mstore\n      0x20\n      add\n      mload(0x40)\n      dup1\n      swap2\n      sub\n      swap1\n      keccak256\n        /* \"MemoryStorage.sol\":1440:1485  nameToFavoriteNumber[_name] = _favoriteNumber */\n      dup2\n      swap1\n      sstore\n      pop\n        /* \"MemoryStorage.sol\":1302:1492  function addPerson (string calldata _name, uint256 _favoriteNumber) public {... */\n      pop\n      pop\n      pop\n      jump\t// out\n        /* \"MemoryStorage.sol\":1241:1295  mapping(string => uint256) public nameToFavoriteNumber */\n    tag_13:\n      0x01\n      dup2\n      dup1\n      mload\n      0x20\n      dup2\n      add\n      dup3\n      add\n      dup1\n      mload\n      dup5\n      dup3\n      mstore\n      0x20\n      dup4\n      add\n      0x20\n      dup6\n      add\n      keccak256\n      dup2\n      dup4\n      mstore\n      dup1\n      swap6\n      pop\n      pop\n      pop\n      pop\n      pop\n      pop\n      0x00\n      swap2\n      pop\n      swap1\n      pop\n      sload\n      dup2\n      jump\t// out\n        /* \"MemoryStorage.sol\":1213:1235  Person[] public people */\n    tag_19:\n      0x00\n      dup2\n      dup2\n      sload\n      dup2\n      lt\n      tag_28\n      jumpi\n      0x00\n      dup1\n      revert\n    tag_28:\n      swap1\n      0x00\n      mstore\n      keccak256(0x00, 0x20)\n      swap1\n      0x02\n      mul\n      add\n      0x00\n      swap2\n      pop\n      swap1\n      pop\n      dup1\n      0x00\n      add\n      dup1\n      sload\n      tag_30\n      swap1\n      tag_31\n      jump\t// in\n    tag_30:\n      dup1\n      0x1f\n      add\n      0x20\n      dup1\n      swap2\n      div\n      mul\n      0x20\n      add\n      mload(0x40)\n      swap1\n      dup2\n      add\n      0x40\n      mstore\n      dup1\n      swap3\n      swap2\n      swap1\n      dup2\n      dup2\n      mstore\n      0x20\n      add\n      dup3\n      dup1\n      sload\n      tag_32\n      swap1\n      tag_31\n      jump\t// in\n    tag_32:\n      dup1\n      iszero\n      tag_33\n      jumpi\n      dup1\n      0x1f\n      lt\n      tag_34\n      jumpi\n      0x0100\n      dup1\n      dup4\n      sload\n      div\n      mul\n      dup4\n      mstore\n      swap2\n      0x20\n      add\n      swap2\n      jump(tag_33)\n    tag_34:\n      dup3\n      add\n      swap2\n      swap1\n      0x00\n      mstore\n      keccak256(0x00, 0x20)\n      swap1\n    tag_35:\n      dup2\n      sload\n      dup2\n      mstore\n      swap1\n      0x01\n      add\n      swap1\n      0x20\n      add\n      dup1\n      dup4\n      gt\n      tag_35\n      jumpi\n      dup3\n      swap1\n      sub\n      0x1f\n      and\n      dup3\n      add\n      swap2\n    tag_33:\n      pop\n      pop\n      pop\n      pop\n      pop\n      swap1\n      dup1\n      0x01\n      add\n      sload\n      swap1\n      pop\n      dup3\n      jump\t// out\n        /* \"#utility.yul\":7:82   */\n    tag_36:\n        /* \"#utility.yul\":40:46   */\n      0x00\n        /* \"#utility.yul\":73:75   */\n      0x40\n        /* \"#utility.yul\":67:76   */\n      mload\n        /* \"#utility.yul\":57:76   */\n      swap1\n      pop\n        /* \"#utility.yul\":7:82   */\n      swap1\n      jump\t// out\n        /* \"#utility.yul\":88:205   */\n    tag_37:\n        /* \"#utility.yul\":197:198   */\n      0x00\n        /* \"#utility.yul\":194:195   */\n      dup1\n        /* \"#utility.yul\":187:199   */\n      revert\n        /* \"#utility.yul\":211:328   */\n    tag_38:\n        /* \"#utility.yul\":320:321   */\n      0x00\n        /* \"#utility.yul\":317:318   */\n      dup1\n        /* \"#utility.yul\":310:322   */\n      revert\n        /* \"#utility.yul\":334:451   */\n    tag_39:\n        /* \"#utility.yul\":443:444   */\n      0x00\n        /* \"#utility.yul\":440:441   */\n      dup1\n        /* \"#utility.yul\":433:445   */\n      revert\n        /* \"#utility.yul\":457:574   */\n    tag_40:\n        /* \"#utility.yul\":566:567   */\n      0x00\n        /* \"#utility.yul\":563:564   */\n      dup1\n        /* \"#utility.yul\":556:568   */\n      revert\n        /* \"#utility.yul\":580:697   */\n    tag_41:\n        /* \"#utility.yul\":689:690   */\n      0x00\n        /* \"#utility.yul\":686:687   */\n      dup1\n        /* \"#utility.yul\":679:691   */\n      revert\n        /* \"#utility.yul\":717:1270   */\n    tag_42:\n        /* \"#utility.yul\":775:783   */\n      0x00\n        /* \"#utility.yul\":785:791   */\n      dup1\n        /* \"#utility.yul\":835:838   */\n      dup4\n        /* \"#utility.yul\":828:832   */\n      0x1f\n        /* \"#utility.yul\":820:826   */\n      dup5\n        /* \"#utility.yul\":816:833   */\n      add\n        /* \"#utility.yul\":812:839   */\n      slt\n        /* \"#utility.yul\":802:924   */\n      tag_86\n      jumpi\n        /* \"#utility.yul\":843:922   */\n      tag_87\n      tag_39\n      jump\t// in\n    tag_87:\n        /* \"#utility.yul\":802:924   */\n    tag_86:\n        /* \"#utility.yul\":956:962   */\n      dup3\n        /* \"#utility.yul\":943:963   */\n      calldataload\n        /* \"#utility.yul\":933:963   */\n      swap1\n      pop\n        /* \"#utility.yul\":986:1004   */\n      0xffffffffffffffff\n        /* \"#utility.yul\":978:984   */\n      dup2\n        /* \"#utility.yul\":975:1005   */\n      gt\n        /* \"#utility.yul\":972:1089   */\n      iszero\n      tag_88\n      jumpi\n        /* \"#utility.yul\":1008:1087   */\n      tag_89\n      tag_40\n      jump\t// in\n    tag_89:\n        /* \"#utility.yul\":972:1089   */\n    tag_88:\n        /* \"#utility.yul\":1122:1126   */\n      0x20\n        /* \"#utility.yul\":1114:1120   */\n      dup4\n        /* \"#utility.yul\":1110:1127   */\n      add\n        /* \"#utility.yul\":1098:1127   */\n      swap2\n      pop\n        /* \"#utility.yul\":1176:1179   */\n      dup4\n        /* \"#utility.yul\":1168:1172   */\n      0x01\n        /* \"#utility.yul\":1160:1166   */\n      dup3\n        /* \"#utility.yul\":1156:1173   */\n      mul\n        /* \"#utility.yul\":1146:1154   */\n      dup4\n        /* \"#utility.yul\":1142:1174   */\n      add\n        /* \"#utility.yul\":1139:1180   */\n      gt\n        /* \"#utility.yul\":1136:1264   */\n      iszero\n      tag_90\n      jumpi\n        /* \"#utility.yul\":1183:1262   */\n      tag_91\n      tag_41\n      jump\t// in\n    tag_91:\n        /* \"#utility.yul\":1136:1264   */\n    tag_90:\n        /* \"#utility.yul\":717:1270   */\n      swap3\n      pop\n      swap3\n      swap1\n      pop\n      jump\t// out\n        /* \"#utility.yul\":1276:1353   */\n    tag_43:\n        /* \"#utility.yul\":1313:1320   */\n      0x00\n        /* \"#utility.yul\":1342:1347   */\n      dup2\n        /* \"#utility.yul\":1331:1347   */\n      swap1\n      pop\n        /* \"#utility.yul\":1276:1353   */\n      swap2\n      swap1\n      pop\n      jump\t// out\n        /* \"#utility.yul\":1359:1481   */\n    tag_44:\n        /* \"#utility.yul\":1432:1456   */\n      tag_94\n        /* \"#utility.yul\":1450:1455   */\n      dup2\n        /* \"#utility.yul\":1432:1456   */\n      tag_43\n      jump\t// in\n    tag_94:\n        /* \"#utility.yul\":1425:1430   */\n      dup2\n        /* \"#utility.yul\":1422:1457   */\n      eq\n        /* \"#utility.yul\":1412:1475   */\n      tag_95\n      jumpi\n        /* \"#utility.yul\":1471:1472   */\n      0x00\n        /* \"#utility.yul\":1468:1469   */\n      dup1\n        /* \"#utility.yul\":1461:1473   */\n      revert\n        /* \"#utility.yul\":1412:1475   */\n    tag_95:\n        /* \"#utility.yul\":1359:1481   */\n      pop\n      jump\t// out\n        /* \"#utility.yul\":1487:1626   */\n    tag_45:\n        /* \"#utility.yul\":1533:1538   */\n      0x00\n        /* \"#utility.yul\":1571:1577   */\n      dup2\n        /* \"#utility.yul\":1558:1578   */\n      calldataload\n        /* \"#utility.yul\":1549:1578   */\n      swap1\n      pop\n        /* \"#utility.yul\":1587:1620   */\n      tag_97\n        /* \"#utility.yul\":1614:1619   */\n      dup2\n        /* \"#utility.yul\":1587:1620   */\n      tag_44\n      jump\t// in\n    tag_97:\n        /* \"#utility.yul\":1487:1626   */\n      swap3\n      swap2\n      pop\n      pop\n      jump\t// out\n        /* \"#utility.yul\":1632:2306   */\n    tag_8:\n        /* \"#utility.yul\":1712:1718   */\n      0x00\n        /* \"#utility.yul\":1720:1726   */\n      dup1\n        /* \"#utility.yul\":1728:1734   */\n      0x00\n        /* \"#utility.yul\":1777:1779   */\n      0x40\n        /* \"#utility.yul\":1765:1774   */\n      dup5\n        /* \"#utility.yul\":1756:1763   */\n      dup7\n        /* \"#utility.yul\":1752:1775   */\n      sub\n        /* \"#utility.yul\":1748:1780   */\n      slt\n        /* \"#utility.yul\":1745:1864   */\n      iszero\n      tag_99\n      jumpi\n        /* \"#utility.yul\":1783:1862   */\n      tag_100\n      tag_37\n      jump\t// in\n    tag_100:\n        /* \"#utility.yul\":1745:1864   */\n    tag_99:\n        /* \"#utility.yul\":1931:1932   */\n      0x00\n        /* \"#utility.yul\":1920:1929   */\n      dup5\n        /* \"#utility.yul\":1916:1933   */\n      add\n        /* \"#utility.yul\":1903:1934   */\n      calldataload\n        /* \"#utility.yul\":1961:1979   */\n      0xffffffffffffffff\n        /* \"#utility.yul\":1953:1959   */\n      dup2\n        /* \"#utility.yul\":1950:1980   */\n      gt\n        /* \"#utility.yul\":1947:2064   */\n      iszero\n      tag_101\n      jumpi\n        /* \"#utility.yul\":1983:2062   */\n      tag_102\n      tag_38\n      jump\t// in\n    tag_102:\n        /* \"#utility.yul\":1947:2064   */\n    tag_101:\n        /* \"#utility.yul\":2096:2161   */\n      tag_103\n        /* \"#utility.yul\":2153:2160   */\n      dup7\n        /* \"#utility.yul\":2144:2150   */\n      dup3\n        /* \"#utility.yul\":2133:2142   */\n      dup8\n        /* \"#utility.yul\":2129:2151   */\n      add\n        /* \"#utility.yul\":2096:2161   */\n      tag_42\n      jump\t// in\n    tag_103:\n        /* \"#utility.yul\":2078:2161   */\n      swap4\n      pop\n      swap4\n      pop\n        /* \"#utility.yul\":1874:2171   */\n      pop\n        /* \"#utility.yul\":2210:2212   */\n      0x20\n        /* \"#utility.yul\":2236:2289   */\n      tag_104\n        /* \"#utility.yul\":2281:2288   */\n      dup7\n        /* \"#utility.yul\":2272:2278   */\n      dup3\n        /* \"#utility.yul\":2261:2270   */\n      dup8\n        /* \"#utility.yul\":2257:2279   */\n      add\n        /* \"#utility.yul\":2236:2289   */\n      tag_45\n      jump\t// in\n    tag_104:\n        /* \"#utility.yul\":2226:2289   */\n      swap2\n      pop\n        /* \"#utility.yul\":2181:2299   */\n      pop\n        /* \"#utility.yul\":1632:2306   */\n      swap3\n      pop\n      swap3\n      pop\n      swap3\n      jump\t// out\n        /* \"#utility.yul\":2312:2429   */\n    tag_46:\n        /* \"#utility.yul\":2421:2422   */\n      0x00\n        /* \"#utility.yul\":2418:2419   */\n      dup1\n        /* \"#utility.yul\":2411:2423   */\n      revert\n        /* \"#utility.yul\":2435:2537   */\n    tag_47:\n        /* \"#utility.yul\":2476:2482   */\n      0x00\n        /* \"#utility.yul\":2527:2529   */\n      0x1f\n        /* \"#utility.yul\":2523:2530   */\n      not\n        /* \"#utility.yul\":2518:2520   */\n      0x1f\n        /* \"#utility.yul\":2511:2516   */\n      dup4\n        /* \"#utility.yul\":2507:2521   */\n      add\n        /* \"#utility.yul\":2503:2531   */\n      and\n        /* \"#utility.yul\":2493:2531   */\n      swap1\n      pop\n        /* \"#utility.yul\":2435:2537   */\n      swap2\n      swap1\n      pop\n      jump\t// out\n        /* \"#utility.yul\":2543:2723   */\n    tag_48:\n        /* \"#utility.yul\":2591:2668   */\n      0x4e487b7100000000000000000000000000000000000000000000000000000000\n        /* \"#utility.yul\":2588:2589   */\n      0x00\n        /* \"#utility.yul\":2581:2669   */\n      mstore\n        /* \"#utility.yul\":2688:2692   */\n      0x41\n        /* \"#utility.yul\":2685:2686   */\n      0x04\n        /* \"#utility.yul\":2678:2693   */\n      mstore\n        /* \"#utility.yul\":2712:2716   */\n      0x24\n        /* \"#utility.yul\":2709:2710   */\n      0x00\n        /* \"#utility.yul\":2702:2717   */\n      revert\n        /* \"#utility.yul\":2729:3010   */\n    tag_49:\n        /* \"#utility.yul\":2812:2839   */\n      tag_109\n        /* \"#utility.yul\":2834:2838   */\n      dup3\n        /* \"#utility.yul\":2812:2839   */\n      tag_47\n      jump\t// in\n    tag_109:\n        /* \"#utility.yul\":2804:2810   */\n      dup2\n        /* \"#utility.yul\":2800:2840   */\n      add\n        /* \"#utility.yul\":2942:2948   */\n      dup2\n        /* \"#utility.yul\":2930:2940   */\n      dup2\n        /* \"#utility.yul\":2927:2949   */\n      lt\n        /* \"#utility.yul\":2906:2924   */\n      0xffffffffffffffff\n        /* \"#utility.yul\":2894:2904   */\n      dup3\n        /* \"#utility.yul\":2891:2925   */\n      gt\n        /* \"#utility.yul\":2888:2950   */\n      or\n        /* \"#utility.yul\":2885:2973   */\n      iszero\n      tag_110\n      jumpi\n        /* \"#utility.yul\":2953:2971   */\n      tag_111\n      tag_48\n      jump\t// in\n    tag_111:\n        /* \"#utility.yul\":2885:2973   */\n    tag_110:\n        /* \"#utility.yul\":2993:3003   */\n      dup1\n        /* \"#utility.yul\":2989:2991   */\n      0x40\n        /* \"#utility.yul\":2982:3004   */\n      mstore\n        /* \"#utility.yul\":2772:3010   */\n      pop\n        /* \"#utility.yul\":2729:3010   */\n      pop\n      pop\n      jump\t// out\n        /* \"#utility.yul\":3016:3145   */\n    tag_50:\n        /* \"#utility.yul\":3050:3056   */\n      0x00\n        /* \"#utility.yul\":3077:3097   */\n      tag_113\n      tag_36\n      jump\t// in\n    tag_113:\n        /* \"#utility.yul\":3067:3097   */\n      swap1\n      pop\n        /* \"#utility.yul\":3106:3139   */\n      tag_114\n        /* \"#utility.yul\":3134:3138   */\n      dup3\n        /* \"#utility.yul\":3126:3132   */\n      dup3\n        /* \"#utility.yul\":3106:3139   */\n      tag_49\n      jump\t// in\n    tag_114:\n        /* \"#utility.yul\":3016:3145   */\n      swap2\n      swap1\n      pop\n      jump\t// out\n        /* \"#utility.yul\":3151:3459   */\n    tag_51:\n        /* \"#utility.yul\":3213:3217   */\n      0x00\n        /* \"#utility.yul\":3303:3321   */\n      0xffffffffffffffff\n        /* \"#utility.yul\":3295:3301   */\n      dup3\n        /* \"#utility.yul\":3292:3322   */\n      gt\n        /* \"#utility.yul\":3289:3345   */\n      iszero\n      tag_116\n      jumpi\n        /* \"#utility.yul\":3325:3343   */\n      tag_117\n      tag_48\n      jump\t// in\n    tag_117:\n        /* \"#utility.yul\":3289:3345   */\n    tag_116:\n        /* \"#utility.yul\":3363:3392   */\n      tag_118\n        /* \"#utility.yul\":3385:3391   */\n      dup3\n        /* \"#utility.yul\":3363:3392   */\n      tag_47\n      jump\t// in\n    tag_118:\n        /* \"#utility.yul\":3355:3392   */\n      swap1\n      pop\n        /* \"#utility.yul\":3447:3451   */\n      0x20\n        /* \"#utility.yul\":3441:3445   */\n      dup2\n        /* \"#utility.yul\":3437:3452   */\n      add\n        /* \"#utility.yul\":3429:3452   */\n      swap1\n      pop\n        /* \"#utility.yul\":3151:3459   */\n      swap2\n      swap1\n      pop\n      jump\t// out\n        /* \"#utility.yul\":3465:3613   */\n    tag_52:\n        /* \"#utility.yul\":3563:3569   */\n      dup3\n        /* \"#utility.yul\":3558:3561   */\n      dup2\n        /* \"#utility.yul\":3553:3556   */\n      dup4\n        /* \"#utility.yul\":3540:3570   */\n      calldatacopy\n        /* \"#utility.yul\":3604:3605   */\n      0x00\n        /* \"#utility.yul\":3595:3601   */\n      dup4\n        /* \"#utility.yul\":3590:3593   */\n      dup4\n        /* \"#utility.yul\":3586:3602   */\n      add\n        /* \"#utility.yul\":3579:3606   */\n      mstore\n        /* \"#utility.yul\":3465:3613   */\n      pop\n      pop\n      pop\n      jump\t// out\n        /* \"#utility.yul\":3619:4044   */\n    tag_53:\n        /* \"#utility.yul\":3697:3702   */\n      0x00\n        /* \"#utility.yul\":3722:3788   */\n      tag_121\n        /* \"#utility.yul\":3738:3787   */\n      tag_122\n        /* \"#utility.yul\":3780:3786   */\n      dup5\n        /* \"#utility.yul\":3738:3787   */\n      tag_51\n      jump\t// in\n    tag_122:\n        /* \"#utility.yul\":3722:3788   */\n      tag_50\n      jump\t// in\n    tag_121:\n        /* \"#utility.yul\":3713:3788   */\n      swap1\n      pop\n        /* \"#utility.yul\":3811:3817   */\n      dup3\n        /* \"#utility.yul\":3804:3809   */\n      dup2\n        /* \"#utility.yul\":3797:3818   */\n      mstore\n        /* \"#utility.yul\":3849:3853   */\n      0x20\n        /* \"#utility.yul\":3842:3847   */\n      dup2\n        /* \"#utility.yul\":3838:3854   */\n      add\n        /* \"#utility.yul\":3887:3890   */\n      dup5\n        /* \"#utility.yul\":3878:3884   */\n      dup5\n        /* \"#utility.yul\":3873:3876   */\n      dup5\n        /* \"#utility.yul\":3869:3885   */\n      add\n        /* \"#utility.yul\":3866:3891   */\n      gt\n        /* \"#utility.yul\":3863:3975   */\n      iszero\n      tag_123\n      jumpi\n        /* \"#utility.yul\":3894:3973   */\n      tag_124\n      tag_46\n      jump\t// in\n    tag_124:\n        /* \"#utility.yul\":3863:3975   */\n    tag_123:\n        /* \"#utility.yul\":3984:4038   */\n      tag_125\n        /* \"#utility.yul\":4031:4037   */\n      dup5\n        /* \"#utility.yul\":4026:4029   */\n      dup3\n        /* \"#utility.yul\":4021:4024   */\n      dup6\n        /* \"#utility.yul\":3984:4038   */\n      tag_52\n      jump\t// in\n    tag_125:\n        /* \"#utility.yul\":3703:4044   */\n      pop\n        /* \"#utility.yul\":3619:4044   */\n      swap4\n      swap3\n      pop\n      pop\n      pop\n      jump\t// out\n        /* \"#utility.yul\":4064:4404   */\n    tag_54:\n        /* \"#utility.yul\":4120:4125   */\n      0x00\n        /* \"#utility.yul\":4169:4172   */\n      dup3\n        /* \"#utility.yul\":4162:4166   */\n      0x1f\n        /* \"#utility.yul\":4154:4160   */\n      dup4\n        /* \"#utility.yul\":4150:4167   */\n      add\n        /* \"#utility.yul\":4146:4173   */\n      slt\n        /* \"#utility.yul\":4136:4258   */\n      tag_127\n      jumpi\n        /* \"#utility.yul\":4177:4256   */\n      tag_128\n      tag_39\n      jump\t// in\n    tag_128:\n        /* \"#utility.yul\":4136:4258   */\n    tag_127:\n        /* \"#utility.yul\":4294:4300   */\n      dup2\n        /* \"#utility.yul\":4281:4301   */\n      calldataload\n        /* \"#utility.yul\":4319:4398   */\n      tag_129\n        /* \"#utility.yul\":4394:4397   */\n      dup5\n        /* \"#utility.yul\":4386:4392   */\n      dup3\n        /* \"#utility.yul\":4379:4383   */\n      0x20\n        /* \"#utility.yul\":4371:4377   */\n      dup7\n        /* \"#utility.yul\":4367:4384   */\n      add\n        /* \"#utility.yul\":4319:4398   */\n      tag_53\n      jump\t// in\n    tag_129:\n        /* \"#utility.yul\":4310:4398   */\n      swap2\n      pop\n        /* \"#utility.yul\":4126:4404   */\n      pop\n        /* \"#utility.yul\":4064:4404   */\n      swap3\n      swap2\n      pop\n      pop\n      jump\t// out\n        /* \"#utility.yul\":4410:4919   */\n    tag_12:\n        /* \"#utility.yul\":4479:4485   */\n      0x00\n        /* \"#utility.yul\":4528:4530   */\n      0x20\n        /* \"#utility.yul\":4516:4525   */\n      dup3\n        /* \"#utility.yul\":4507:4514   */\n      dup5\n        /* \"#utility.yul\":4503:4526   */\n      sub\n        /* \"#utility.yul\":4499:4531   */\n      slt\n        /* \"#utility.yul\":4496:4615   */\n      iszero\n      tag_131\n      jumpi\n        /* \"#utility.yul\":4534:4613   */\n      tag_132\n      tag_37\n      jump\t// in\n    tag_132:\n        /* \"#utility.yul\":4496:4615   */\n    tag_131:\n        /* \"#utility.yul\":4682:4683   */\n      0x00\n        /* \"#utility.yul\":4671:4680   */\n      dup3\n        /* \"#utility.yul\":4667:4684   */\n      add\n        /* \"#utility.yul\":4654:4685   */\n      calldataload\n        /* \"#utility.yul\":4712:4730   */\n      0xffffffffffffffff\n        /* \"#utility.yul\":4704:4710   */\n      dup2\n        /* \"#utility.yul\":4701:4731   */\n      gt\n        /* \"#utility.yul\":4698:4815   */\n      iszero\n      tag_133\n      jumpi\n        /* \"#utility.yul\":4734:4813   */\n      tag_134\n      tag_38\n      jump\t// in\n    tag_134:\n        /* \"#utility.yul\":4698:4815   */\n    tag_133:\n        /* \"#utility.yul\":4839:4902   */\n      tag_135\n        /* \"#utility.yul\":4894:4901   */\n      dup5\n        /* \"#utility.yul\":4885:4891   */\n      dup3\n        /* \"#utility.yul\":4874:4883   */\n      dup6\n        /* \"#utility.yul\":4870:4892   */\n      add\n        /* \"#utility.yul\":4839:4902   */\n      tag_54\n      jump\t// in\n    tag_135:\n        /* \"#utility.yul\":4829:4902   */\n      swap2\n      pop\n        /* \"#utility.yul\":4625:4912   */\n      pop\n        /* \"#utility.yul\":4410:4919   */\n      swap3\n      swap2\n      pop\n      pop\n      jump\t// out\n        /* \"#utility.yul\":4925:5043   */\n    tag_55:\n        /* \"#utility.yul\":5012:5036   */\n      tag_137\n        /* \"#utility.yul\":5030:5035   */\n      dup2\n        /* \"#utility.yul\":5012:5036   */\n      tag_43\n      jump\t// in\n    tag_137:\n        /* \"#utility.yul\":5007:5010   */\n      dup3\n        /* \"#utility.yul\":5000:5037   */\n      mstore\n        /* \"#utility.yul\":4925:5043   */\n      pop\n      pop\n      jump\t// out\n        /* \"#utility.yul\":5049:5271   */\n    tag_15:\n        /* \"#utility.yul\":5142:5146   */\n      0x00\n        /* \"#utility.yul\":5180:5182   */\n      0x20\n        /* \"#utility.yul\":5169:5178   */\n      dup3\n        /* \"#utility.yul\":5165:5183   */\n      add\n        /* \"#utility.yul\":5157:5183   */\n      swap1\n      pop\n        /* \"#utility.yul\":5193:5264   */\n      tag_139\n        /* \"#utility.yul\":5261:5262   */\n      0x00\n        /* \"#utility.yul\":5250:5259   */\n      dup4\n        /* \"#utility.yul\":5246:5263   */\n      add\n        /* \"#utility.yul\":5237:5243   */\n      dup5\n        /* \"#utility.yul\":5193:5264   */\n      tag_55\n      jump\t// in\n    tag_139:\n        /* \"#utility.yul\":5049:5271   */\n      swap3\n      swap2\n      pop\n      pop\n      jump\t// out\n        /* \"#utility.yul\":5277:5606   */\n    tag_18:\n        /* \"#utility.yul\":5336:5342   */\n      0x00\n        /* \"#utility.yul\":5385:5387   */\n      0x20\n        /* \"#utility.yul\":5373:5382   */\n      dup3\n        /* \"#utility.yul\":5364:5371   */\n      dup5\n        /* \"#utility.yul\":5360:5383   */\n      sub\n        /* \"#utility.yul\":5356:5388   */\n      slt\n        /* \"#utility.yul\":5353:5472   */\n      iszero\n      tag_141\n      jumpi\n        /* \"#utility.yul\":5391:5470   */\n      tag_142\n      tag_37\n      jump\t// in\n    tag_142:\n        /* \"#utility.yul\":5353:5472   */\n    tag_141:\n        /* \"#utility.yul\":5511:5512   */\n      0x00\n        /* \"#utility.yul\":5536:5589   */\n      tag_143\n        /* \"#utility.yul\":5581:5588   */\n      dup5\n        /* \"#utility.yul\":5572:5578   */\n      dup3\n        /* \"#utility.yul\":5561:5570   */\n      dup6\n        /* \"#utility.yul\":5557:5579   */\n      add\n        /* \"#utility.yul\":5536:5589   */\n      tag_45\n      jump\t// in\n    tag_143:\n        /* \"#utility.yul\":5526:5589   */\n      swap2\n      pop\n        /* \"#utility.yul\":5482:5599   */\n      pop\n        /* \"#utility.yul\":5277:5606   */\n      swap3\n      swap2\n      pop\n      pop\n      jump\t// out\n        /* \"#utility.yul\":5612:5711   */\n    tag_56:\n        /* \"#utility.yul\":5664:5670   */\n      0x00\n        /* \"#utility.yul\":5698:5703   */\n      dup2\n        /* \"#utility.yul\":5692:5704   */\n      mload\n        /* \"#utility.yul\":5682:5704   */\n      swap1\n      pop\n        /* \"#utility.yul\":5612:5711   */\n      swap2\n      swap1\n      pop\n      jump\t// out\n        /* \"#utility.yul\":5717:5886   */\n    tag_57:\n        /* \"#utility.yul\":5801:5812   */\n      0x00\n        /* \"#utility.yul\":5835:5841   */\n      dup3\n        /* \"#utility.yul\":5830:5833   */\n      dup3\n        /* \"#utility.yul\":5823:5842   */\n      mstore\n        /* \"#utility.yul\":5875:5879   */\n      0x20\n        /* \"#utility.yul\":5870:5873   */\n      dup3\n        /* \"#utility.yul\":5866:5880   */\n      add\n        /* \"#utility.yul\":5851:5880   */\n      swap1\n      pop\n        /* \"#utility.yul\":5717:5886   */\n      swap3\n      swap2\n      pop\n      pop\n      jump\t// out\n        /* \"#utility.yul\":5892:6031   */\n    tag_58:\n        /* \"#utility.yul\":5981:5987   */\n      dup3\n        /* \"#utility.yul\":5976:5979   */\n      dup2\n        /* \"#utility.yul\":5971:5974   */\n      dup4\n        /* \"#utility.yul\":5965:5988   */\n      mcopy\n        /* \"#utility.yul\":6022:6023   */\n      0x00\n        /* \"#utility.yul\":6013:6019   */\n      dup4\n        /* \"#utility.yul\":6008:6011   */\n      dup4\n        /* \"#utility.yul\":6004:6020   */\n      add\n        /* \"#utility.yul\":5997:6024   */\n      mstore\n        /* \"#utility.yul\":5892:6031   */\n      pop\n      pop\n      pop\n      jump\t// out\n        /* \"#utility.yul\":6037:6414   */\n    tag_59:\n        /* \"#utility.yul\":6125:6128   */\n      0x00\n        /* \"#utility.yul\":6153:6192   */\n      tag_148\n        /* \"#utility.yul\":6186:6191   */\n      dup3\n        /* \"#utility.yul\":6153:6192   */\n      tag_56\n      jump\t// in\n    tag_148:\n        /* \"#utility.yul\":6208:6279   */\n      tag_149\n        /* \"#utility.yul\":6272:6278   */\n      dup2\n        /* \"#utility.yul\":6267:6270   */\n      dup6\n        /* \"#utility.yul\":6208:6279   */\n      tag_57\n      jump\t// in\n    tag_149:\n        /* \"#utility.yul\":6201:6279   */\n      swap4\n      pop\n        /* \"#utility.yul\":6288:6353   */\n      tag_150\n        /* \"#utility.yul\":6346:6352   */\n      dup2\n        /* \"#utility.yul\":6341:6344   */\n      dup6\n        /* \"#utility.yul\":6334:6338   */\n      0x20\n        /* \"#utility.yul\":6327:6332   */\n      dup7\n        /* \"#utility.yul\":6323:6339   */\n      add\n        /* \"#utility.yul\":6288:6353   */\n      tag_58\n      jump\t// in\n    tag_150:\n        /* \"#utility.yul\":6378:6407   */\n      tag_151\n        /* \"#utility.yul\":6400:6406   */\n      dup2\n        /* \"#utility.yul\":6378:6407   */\n      tag_47\n      jump\t// in\n    tag_151:\n        /* \"#utility.yul\":6373:6376   */\n      dup5\n        /* \"#utility.yul\":6369:6408   */\n      add\n        /* \"#utility.yul\":6362:6408   */\n      swap2\n      pop\n        /* \"#utility.yul\":6129:6414   */\n      pop\n        /* \"#utility.yul\":6037:6414   */\n      swap3\n      swap2\n      pop\n      pop\n      jump\t// out\n        /* \"#utility.yul\":6420:6843   */\n    tag_21:\n        /* \"#utility.yul\":6561:6565   */\n      0x00\n        /* \"#utility.yul\":6599:6601   */\n      0x40\n        /* \"#utility.yul\":6588:6597   */\n      dup3\n        /* \"#utility.yul\":6584:6602   */\n      add\n        /* \"#utility.yul\":6576:6602   */\n      swap1\n      pop\n        /* \"#utility.yul\":6648:6657   */\n      dup2\n        /* \"#utility.yul\":6642:6646   */\n      dup2\n        /* \"#utility.yul\":6638:6658   */\n      sub\n        /* \"#utility.yul\":6634:6635   */\n      0x00\n        /* \"#utility.yul\":6623:6632   */\n      dup4\n        /* \"#utility.yul\":6619:6636   */\n      add\n        /* \"#utility.yul\":6612:6659   */\n      mstore\n        /* \"#utility.yul\":6676:6754   */\n      tag_153\n        /* \"#utility.yul\":6749:6753   */\n      dup2\n        /* \"#utility.yul\":6740:6746   */\n      dup6\n        /* \"#utility.yul\":6676:6754   */\n      tag_59\n      jump\t// in\n    tag_153:\n        /* \"#utility.yul\":6668:6754   */\n      swap1\n      pop\n        /* \"#utility.yul\":6764:6836   */\n      tag_154\n        /* \"#utility.yul\":6832:6834   */\n      0x20\n        /* \"#utility.yul\":6821:6830   */\n      dup4\n        /* \"#utility.yul\":6817:6835   */\n      add\n        /* \"#utility.yul\":6808:6814   */\n      dup5\n        /* \"#utility.yul\":6764:6836   */\n      tag_55\n      jump\t// in\n    tag_154:\n        /* \"#utility.yul\":6420:6843   */\n      swap4\n      swap3\n      pop\n      pop\n      pop\n      jump\t// out\n        /* \"#utility.yul\":6849:7029   */\n    tag_60:\n        /* \"#utility.yul\":6897:6974   */\n      0x4e487b7100000000000000000000000000000000000000000000000000000000\n        /* \"#utility.yul\":6894:6895   */\n      0x00\n        /* \"#utility.yul\":6887:6975   */\n      mstore\n        /* \"#utility.yul\":6994:6998   */\n      0x22\n        /* \"#utility.yul\":6991:6992   */\n      0x04\n        /* \"#utility.yul\":6984:6999   */\n      mstore\n        /* \"#utility.yul\":7018:7022   */\n      0x24\n        /* \"#utility.yul\":7015:7016   */\n      0x00\n        /* \"#utility.yul\":7008:7023   */\n      revert\n        /* \"#utility.yul\":7035:7355   */\n    tag_31:\n        /* \"#utility.yul\":7079:7085   */\n      0x00\n        /* \"#utility.yul\":7116:7117   */\n      0x02\n        /* \"#utility.yul\":7110:7114   */\n      dup3\n        /* \"#utility.yul\":7106:7118   */\n      div\n        /* \"#utility.yul\":7096:7118   */\n      swap1\n      pop\n        /* \"#utility.yul\":7163:7164   */\n      0x01\n        /* \"#utility.yul\":7157:7161   */\n      dup3\n        /* \"#utility.yul\":7153:7165   */\n      and\n        /* \"#utility.yul\":7184:7202   */\n      dup1\n        /* \"#utility.yul\":7174:7255   */\n      tag_157\n      jumpi\n        /* \"#utility.yul\":7240:7244   */\n      0x7f\n        /* \"#utility.yul\":7232:7238   */\n      dup3\n        /* \"#utility.yul\":7228:7245   */\n      and\n        /* \"#utility.yul\":7218:7245   */\n      swap2\n      pop\n        /* \"#utility.yul\":7174:7255   */\n    tag_157:\n        /* \"#utility.yul\":7302:7304   */\n      0x20\n        /* \"#utility.yul\":7294:7300   */\n      dup3\n        /* \"#utility.yul\":7291:7305   */\n      lt\n        /* \"#utility.yul\":7271:7289   */\n      dup2\n        /* \"#utility.yul\":7268:7306   */\n      sub\n        /* \"#utility.yul\":7265:7349   */\n      tag_158\n      jumpi\n        /* \"#utility.yul\":7321:7339   */\n      tag_159\n      tag_60\n      jump\t// in\n    tag_159:\n        /* \"#utility.yul\":7265:7349   */\n    tag_158:\n        /* \"#utility.yul\":7086:7355   */\n      pop\n        /* \"#utility.yul\":7035:7355   */\n      swap2\n      swap1\n      pop\n      jump\t// out\n        /* \"#utility.yul\":7361:7502   */\n    tag_61:\n        /* \"#utility.yul\":7410:7414   */\n      0x00\n        /* \"#utility.yul\":7433:7436   */\n      dup2\n        /* \"#utility.yul\":7425:7436   */\n      swap1\n      pop\n        /* \"#utility.yul\":7456:7459   */\n      dup2\n        /* \"#utility.yul\":7453:7454   */\n      0x00\n        /* \"#utility.yul\":7446:7460   */\n      mstore\n        /* \"#utility.yul\":7490:7494   */\n      0x20\n        /* \"#utility.yul\":7487:7488   */\n      0x00\n        /* \"#utility.yul\":7477:7495   */\n      keccak256\n        /* \"#utility.yul\":7469:7495   */\n      swap1\n      pop\n        /* \"#utility.yul\":7361:7502   */\n      swap2\n      swap1\n      pop\n      jump\t// out\n        /* \"#utility.yul\":7508:7601   */\n    tag_62:\n        /* \"#utility.yul\":7545:7551   */\n      0x00\n        /* \"#utility.yul\":7592:7594   */\n      0x20\n        /* \"#utility.yul\":7587:7589   */\n      0x1f\n        /* \"#utility.yul\":7580:7585   */\n      dup4\n        /* \"#utility.yul\":7576:7590   */\n      add\n        /* \"#utility.yul\":7572:7595   */\n      div\n        /* \"#utility.yul\":7562:7595   */\n      swap1\n      pop\n        /* \"#utility.yul\":7508:7601   */\n      swap2\n      swap1\n      pop\n      jump\t// out\n        /* \"#utility.yul\":7607:7714   */\n    tag_63:\n        /* \"#utility.yul\":7651:7659   */\n      0x00\n        /* \"#utility.yul\":7701:7706   */\n      dup3\n        /* \"#utility.yul\":7695:7699   */\n      dup3\n        /* \"#utility.yul\":7691:7707   */\n      shl\n        /* \"#utility.yul\":7670:7707   */\n      swap1\n      pop\n        /* \"#utility.yul\":7607:7714   */\n      swap3\n      swap2\n      pop\n      pop\n      jump\t// out\n        /* \"#utility.yul\":7720:8113   */\n    tag_64:\n        /* \"#utility.yul\":7789:7795   */\n      0x00\n        /* \"#utility.yul\":7839:7840   */\n      0x08\n        /* \"#utility.yul\":7827:7837   */\n      dup4\n        /* \"#utility.yul\":7823:7841   */\n      mul\n        /* \"#utility.yul\":7862:7959   */\n      tag_164\n        /* \"#utility.yul\":7892:7958   */\n      0xffffffffffffffffffffffffffffffffffffffffffffffffffffffffffffffff\n        /* \"#utility.yul\":7881:7890   */\n      dup3\n        /* \"#utility.yul\":7862:7959   */\n      tag_63\n      jump\t// in\n    tag_164:\n        /* \"#utility.yul\":7980:8019   */\n      tag_165\n        /* \"#utility.yul\":8010:8018   */\n      dup7\n        /* \"#utility.yul\":7999:8008   */\n      dup4\n        /* \"#utility.yul\":7980:8019   */\n      tag_63\n      jump\t// in\n    tag_165:\n        /* \"#utility.yul\":7968:8019   */\n      swap6\n      pop\n        /* \"#utility.yul\":8052:8056   */\n      dup1\n        /* \"#utility.yul\":8048:8057   */\n      not\n        /* \"#utility.yul\":8041:8046   */\n      dup5\n        /* \"#utility.yul\":8037:8058   */\n      and\n        /* \"#utility.yul\":8028:8058   */\n      swap4\n      pop\n        /* \"#utility.yul\":8101:8105   */\n      dup1\n        /* \"#utility.yul\":8091:8099   */\n      dup7\n        /* \"#utility.yul\":8087:8106   */\n      and\n        /* \"#utility.yul\":8080:8085   */\n      dup5\n        /* \"#utility.yul\":8077:8107   */\n      or\n        /* \"#utility.yul\":8067:8107   */\n      swap3\n      pop\n        /* \"#utility.yul\":7796:8113   */\n      pop\n      pop\n        /* \"#utility.yul\":7720:8113   */\n      swap4\n      swap3\n      pop\n      pop\n      pop\n      jump\t// out\n        /* \"#utility.yul\":8119:8179   */\n    tag_65:\n        /* \"#utility.yul\":8147:8150   */\n      0x00\n        /* \"#utility.yul\":8168:8173   */\n      dup2\n        /* \"#utility.yul\":8161:8173   */\n      swap1\n      pop\n        /* \"#utility.yul\":8119:8179   */\n      swap2\n      swap1\n      pop\n      jump\t// out\n        /* \"#utility.yul\":8185:8327   */\n    tag_66:\n        /* \"#utility.yul\":8235:8244   */\n      0x00\n        /* \"#utility.yul\":8268:8321   */\n      tag_168\n        /* \"#utility.yul\":8286:8320   */\n      tag_169\n        /* \"#utility.yul\":8295:8319   */\n      tag_170\n        /* \"#utility.yul\":8313:8318   */\n      dup5\n        /* \"#utility.yul\":8295:8319   */\n      tag_43\n      jump\t// in\n    tag_170:\n        /* \"#utility.yul\":8286:8320   */\n      tag_65\n      jump\t// in\n    tag_169:\n        /* \"#utility.yul\":8268:8321   */\n      tag_43\n      jump\t// in\n    tag_168:\n        /* \"#utility.yul\":8255:8321   */\n      swap1\n      pop\n        /* \"#utility.yul\":8185:8327   */\n      swap2\n      swap1\n      pop\n      jump\t// out\n        /* \"#utility.yul\":8333:8408   */\n    tag_67:\n        /* \"#utility.yul\":8376:8379   */\n      0x00\n        /* \"#utility.yul\":8397:8402   */\n      dup2\n        /* \"#utility.yul\":8390:8402   */\n      swap1\n      pop\n        /* \"#utility.yul\":8333:8408   */\n      swap2\n      swap1\n      pop\n      jump\t// out\n        /* \"#utility.yul\":8414:8683   */\n    tag_68:\n        /* \"#utility.yul\":8524:8563   */\n      tag_173\n        /* \"#utility.yul\":8555:8562   */\n      dup4\n        /* \"#utility.yul\":8524:8563   */\n      tag_66\n      jump\t// in\n    tag_173:\n        /* \"#utility.yul\":8585:8676   */\n      tag_174\n        /* \"#utility.yul\":8634:8675   */\n      tag_175\n        /* \"#utility.yul\":8658:8674   */\n      dup3\n        /* \"#utility.yul\":8634:8675   */\n      tag_67\n      jump\t// in\n    tag_175:\n        /* \"#utility.yul\":8626:8632   */\n      dup5\n        /* \"#utility.yul\":8619:8623   */\n      dup5\n        /* \"#utility.yul\":8613:8624   */\n      sload\n        /* \"#utility.yul\":8585:8676   */\n      tag_64\n      jump\t// in\n    tag_174:\n        /* \"#utility.yul\":8579:8583   */\n      dup3\n        /* \"#utility.yul\":8572:8677   */\n      sstore\n        /* \"#utility.yul\":8490:8683   */\n      pop\n        /* \"#utility.yul\":8414:8683   */\n      pop\n      pop\n      pop\n      jump\t// out\n        /* \"#utility.yul\":8689:8762   */\n    tag_69:\n        /* \"#utility.yul\":8734:8737   */\n      0x00\n        /* \"#utility.yul\":8689:8762   */\n      swap1\n      jump\t// out\n        /* \"#utility.yul\":8768:8957   */\n    tag_70:\n        /* \"#utility.yul\":8845:8877   */\n      tag_178\n      tag_69\n      jump\t// in\n    tag_178:\n        /* \"#utility.yul\":8886:8951   */\n      tag_179\n        /* \"#utility.yul\":8944:8950   */\n      dup2\n        /* \"#utility.yul\":8936:8942   */\n      dup5\n        /* \"#utility.yul\":8930:8934   */\n      dup5\n        /* \"#utility.yul\":8886:8951   */\n      tag_68\n      jump\t// in\n    tag_179:\n        /* \"#utility.yul\":8821:8957   */\n      pop\n        /* \"#utility.yul\":8768:8957   */\n      pop\n      pop\n      jump\t// out\n        /* \"#utility.yul\":8963:9149   */\n    tag_71:\n        /* \"#utility.yul\":9023:9143   */\n    tag_181:\n        /* \"#utility.yul\":9040:9043   */\n      dup2\n        /* \"#utility.yul\":9033:9038   */\n      dup2\n        /* \"#utility.yul\":9030:9044   */\n      lt\n        /* \"#utility.yul\":9023:9143   */\n      iszero\n      tag_183\n      jumpi\n        /* \"#utility.yul\":9094:9133   */\n      tag_184\n        /* \"#utility.yul\":9131:9132   */\n      0x00\n        /* \"#utility.yul\":9124:9129   */\n      dup3\n        /* \"#utility.yul\":9094:9133   */\n      tag_70\n      jump\t// in\n    tag_184:\n        /* \"#utility.yul\":9067:9068   */\n      0x01\n        /* \"#utility.yul\":9060:9065   */\n      dup2\n        /* \"#utility.yul\":9056:9069   */\n      add\n        /* \"#utility.yul\":9047:9069   */\n      swap1\n      pop\n        /* \"#utility.yul\":9023:9143   */\n      jump(tag_181)\n    tag_183:\n        /* \"#utility.yul\":8963:9149   */\n      pop\n      pop\n      jump\t// out\n        /* \"#utility.yul\":9155:9698   */\n    tag_72:\n        /* \"#utility.yul\":9256:9258   */\n      0x1f\n        /* \"#utility.yul\":9251:9254   */\n      dup3\n        /* \"#utility.yul\":9248:9259   */\n      gt\n        /* \"#utility.yul\":9245:9691   */\n      iszero\n      tag_186\n      jumpi\n        /* \"#utility.yul\":9290:9328   */\n      tag_187\n        /* \"#utility.yul\":9322:9327   */\n      dup2\n        /* \"#utility.yul\":9290:9328   */\n      tag_61\n      jump\t// in\n    tag_187:\n        /* \"#utility.yul\":9374:9403   */\n      tag_188\n        /* \"#utility.yul\":9392:9402   */\n      dup5\n        /* \"#utility.yul\":9374:9403   */\n      tag_62\n      jump\t// in\n    tag_188:\n        /* \"#utility.yul\":9364:9372   */\n      dup2\n        /* \"#utility.yul\":9360:9404   */\n      add\n        /* \"#utility.yul\":9557:9559   */\n      0x20\n        /* \"#utility.yul\":9545:9555   */\n      dup6\n        /* \"#utility.yul\":9542:9560   */\n      lt\n        /* \"#utility.yul\":9539:9588   */\n      iszero\n      tag_189\n      jumpi\n        /* \"#utility.yul\":9578:9586   */\n      dup2\n        /* \"#utility.yul\":9563:9586   */\n      swap1\n      pop\n        /* \"#utility.yul\":9539:9588   */\n    tag_189:\n        /* \"#utility.yul\":9601:9681   */\n      tag_190\n        /* \"#utility.yul\":9657:9679   */\n      tag_191\n        /* \"#utility.yul\":9675:9678   */\n      dup6\n        /* \"#utility.yul\":9657:9679   */\n      tag_62\n      jump\t// in\n    tag_191:\n        /* \"#utility.yul\":9647:9655   */\n      dup4\n        /* \"#utility.yul\":9643:9680   */\n      add\n        /* \"#utility.yul\":9630:9641   */\n      dup3\n        /* \"#utility.yul\":9601:9681   */\n      tag_71\n      jump\t// in\n    tag_190:\n        /* \"#utility.yul\":9260:9691   */\n      pop\n      pop\n        /* \"#utility.yul\":9245:9691   */\n    tag_186:\n        /* \"#utility.yul\":9155:9698   */\n      pop\n      pop\n      pop\n      jump\t// out\n        /* \"#utility.yul\":9704:9821   */\n    tag_73:\n        /* \"#utility.yul\":9758:9766   */\n      0x00\n        /* \"#utility.yul\":9808:9813   */\n      dup3\n        /* \"#utility.yul\":9802:9806   */\n      dup3\n        /* \"#utility.yul\":9798:9814   */\n      shr\n        /* \"#utility.yul\":9777:9814   */\n      swap1\n      pop\n        /* \"#utility.yul\":9704:9821   */\n      swap3\n      swap2\n      pop\n      pop\n      jump\t// out\n        /* \"#utility.yul\":9827:9996   */\n    tag_74:\n        /* \"#utility.yul\":9871:9877   */\n      0x00\n        /* \"#utility.yul\":9904:9955   */\n      tag_194\n        /* \"#utility.yul\":9952:9953   */\n      0x00\n        /* \"#utility.yul\":9948:9954   */\n      not\n        /* \"#utility.yul\":9940:9945   */\n      dup5\n        /* \"#utility.yul\":9937:9938   */\n      0x08\n        /* \"#utility.yul\":9933:9946   */\n      mul\n        /* \"#utility.yul\":9904:9955   */\n      tag_73\n      jump\t// in\n    tag_194:\n        /* \"#utility.yul\":9900:9956   */\n      not\n        /* \"#utility.yul\":9985:9989   */\n      dup1\n        /* \"#utility.yul\":9979:9983   */\n      dup4\n        /* \"#utility.yul\":9975:9990   */\n      and\n        /* \"#utility.yul\":9965:9990   */\n      swap2\n      pop\n        /* \"#utility.yul\":9878:9996   */\n      pop\n        /* \"#utility.yul\":9827:9996   */\n      swap3\n      swap2\n      pop\n      pop\n      jump\t// out\n        /* \"#utility.yul\":10001:10296   */\n    tag_75:\n        /* \"#utility.yul\":10077:10081   */\n      0x00\n        /* \"#utility.yul\":10223:10252   */\n      tag_196\n        /* \"#utility.yul\":10248:10251   */\n      dup4\n        /* \"#utility.yul\":10242:10246   */\n      dup4\n        /* \"#utility.yul\":10223:10252   */\n      tag_74\n      jump\t// in\n    tag_196:\n        /* \"#utility.yul\":10215:10252   */\n      swap2\n      pop\n        /* \"#utility.yul\":10285:10288   */\n      dup3\n        /* \"#utility.yul\":10282:10283   */\n      0x02\n        /* \"#utility.yul\":10278:10289   */\n      mul\n        /* \"#utility.yul\":10272:10276   */\n      dup3\n        /* \"#utility.yul\":10269:10290   */\n      or\n        /* \"#utility.yul\":10261:10290   */\n      swap1\n      pop\n        /* \"#utility.yul\":10001:10296   */\n      swap3\n      swap2\n      pop\n      pop\n      jump\t// out\n        /* \"#utility.yul\":10301:11696   */\n    tag_25:\n        /* \"#utility.yul\":10418:10455   */\n      tag_198\n        /* \"#utility.yul\":10451:10454   */\n      dup3\n        /* \"#utility.yul\":10418:10455   */\n      tag_56\n      jump\t// in\n    tag_198:\n        /* \"#utility.yul\":10520:10538   */\n      0xffffffffffffffff\n        /* \"#utility.yul\":10512:10518   */\n      dup2\n        /* \"#utility.yul\":10509:10539   */\n      gt\n        /* \"#utility.yul\":10506:10562   */\n      iszero\n      tag_199\n      jumpi\n        /* \"#utility.yul\":10542:10560   */\n      tag_200\n      tag_48\n      jump\t// in\n    tag_200:\n        /* \"#utility.yul\":10506:10562   */\n    tag_199:\n        /* \"#utility.yul\":10586:10624   */\n      tag_201\n        /* \"#utility.yul\":10618:10622   */\n      dup3\n        /* \"#utility.yul\":10612:10623   */\n      sload\n        /* \"#utility.yul\":10586:10624   */\n      tag_31\n      jump\t// in\n    tag_201:\n        /* \"#utility.yul\":10671:10738   */\n      tag_202\n        /* \"#utility.yul\":10731:10737   */\n      dup3\n        /* \"#utility.yul\":10723:10729   */\n      dup3\n        /* \"#utility.yul\":10717:10721   */\n      dup6\n        /* \"#utility.yul\":10671:10738   */\n      tag_72\n      jump\t// in\n    tag_202:\n        /* \"#utility.yul\":10765:10766   */\n      0x00\n        /* \"#utility.yul\":10789:10793   */\n      0x20\n        /* \"#utility.yul\":10776:10793   */\n      swap1\n      pop\n        /* \"#utility.yul\":10821:10823   */\n      0x1f\n        /* \"#utility.yul\":10813:10819   */\n      dup4\n        /* \"#utility.yul\":10810:10824   */\n      gt\n        /* \"#utility.yul\":10838:10839   */\n      0x01\n        /* \"#utility.yul\":10833:11451   */\n      dup2\n      eq\n      tag_204\n      jumpi\n        /* \"#utility.yul\":11495:11496   */\n      0x00\n        /* \"#utility.yul\":11512:11518   */\n      dup5\n        /* \"#utility.yul\":11509:11586   */\n      iszero\n      tag_205\n      jumpi\n        /* \"#utility.yul\":11561:11570   */\n      dup3\n        /* \"#utility.yul\":11556:11559   */\n      dup8\n        /* \"#utility.yul\":11552:11571   */\n      add\n        /* \"#utility.yul\":11546:11572   */\n      mload\n        /* \"#utility.yul\":11537:11572   */\n      swap1\n      pop\n        /* \"#utility.yul\":11509:11586   */\n    tag_205:\n        /* \"#utility.yul\":11612:11679   */\n      tag_206\n        /* \"#utility.yul\":11672:11678   */\n      dup6\n        /* \"#utility.yul\":11665:11670   */\n      dup3\n        /* \"#utility.yul\":11612:11679   */\n      tag_75\n      jump\t// in\n    tag_206:\n        /* \"#utility.yul\":11606:11610   */\n      dup7\n        /* \"#utility.yul\":11599:11680   */\n      sstore\n        /* \"#utility.yul\":11468:11690   */\n      pop\n        /* \"#utility.yul\":10803:11690   */\n      jump(tag_203)\n        /* \"#utility.yul\":10833:11451   */\n    tag_204:\n        /* \"#utility.yul\":10885:10889   */\n      0x1f\n        /* \"#utility.yul\":10881:10890   */\n      not\n        /* \"#utility.yul\":10873:10879   */\n      dup5\n        /* \"#utility.yul\":10869:10891   */\n      and\n        /* \"#utility.yul\":10919:10956   */\n      tag_207\n        /* \"#utility.yul\":10951:10955   */\n      dup7\n        /* \"#utility.yul\":10919:10956   */\n      tag_61\n      jump\t// in\n    tag_207:\n        /* \"#utility.yul\":10978:10979   */\n      0x00\n        /* \"#utility.yul\":10992:11200   */\n    tag_208:\n        /* \"#utility.yul\":11006:11013   */\n      dup3\n        /* \"#utility.yul\":11003:11004   */\n      dup2\n        /* \"#utility.yul\":11000:11014   */\n      lt\n        /* \"#utility.yul\":10992:11200   */\n      iszero\n      tag_210\n      jumpi\n        /* \"#utility.yul\":11085:11094   */\n      dup5\n        /* \"#utility.yul\":11080:11083   */\n      dup10\n        /* \"#utility.yul\":11076:11095   */\n      add\n        /* \"#utility.yul\":11070:11096   */\n      mload\n        /* \"#utility.yul\":11062:11068   */\n      dup3\n        /* \"#utility.yul\":11055:11097   */\n      sstore\n        /* \"#utility.yul\":11136:11137   */\n      0x01\n        /* \"#utility.yul\":11128:11134   */\n      dup3\n        /* \"#utility.yul\":11124:11138   */\n      add\n        /* \"#utility.yul\":11114:11138   */\n      swap2\n      pop\n        /* \"#utility.yul\":11183:11185   */\n      0x20\n        /* \"#utility.yul\":11172:11181   */\n      dup6\n        /* \"#utility.yul\":11168:11186   */\n      add\n        /* \"#utility.yul\":11155:11186   */\n      swap5\n      pop\n        /* \"#utility.yul\":11029:11033   */\n      0x20\n        /* \"#utility.yul\":11026:11027   */\n      dup2\n        /* \"#utility.yul\":11022:11034   */\n      add\n        /* \"#utility.yul\":11017:11034   */\n      swap1\n      pop\n        /* \"#utility.yul\":10992:11200   */\n      jump(tag_208)\n    tag_210:\n        /* \"#utility.yul\":11228:11234   */\n      dup7\n        /* \"#utility.yul\":11219:11226   */\n      dup4\n        /* \"#utility.yul\":11216:11235   */\n      lt\n        /* \"#utility.yul\":11213:11392   */\n      iszero\n      tag_211\n      jumpi\n        /* \"#utility.yul\":11286:11295   */\n      dup5\n        /* \"#utility.yul\":11281:11284   */\n      dup10\n        /* \"#utility.yul\":11277:11296   */\n      add\n        /* \"#utility.yul\":11271:11297   */\n      mload\n        /* \"#utility.yul\":11329:11377   */\n      tag_212\n        /* \"#utility.yul\":11371:11375   */\n      0x1f\n        /* \"#utility.yul\":11363:11369   */\n      dup10\n        /* \"#utility.yul\":11359:11376   */\n      and\n        /* \"#utility.yul\":11348:11357   */\n      dup3\n        /* \"#utility.yul\":11329:11377   */\n      tag_74\n      jump\t// in\n    tag_212:\n        /* \"#utility.yul\":11321:11327   */\n      dup4\n        /* \"#utility.yul\":11314:11378   */\n      sstore\n        /* \"#utility.yul\":11236:11392   */\n      pop\n        /* \"#utility.yul\":11213:11392   */\n    tag_211:\n        /* \"#utility.yul\":11438:11439   */\n      0x01\n        /* \"#utility.yul\":11434:11435   */\n      0x02\n        /* \"#utility.yul\":11426:11432   */\n      dup9\n        /* \"#utility.yul\":11422:11436   */\n      mul\n        /* \"#utility.yul\":11418:11440   */\n      add\n        /* \"#utility.yul\":11412:11416   */\n      dup9\n        /* \"#utility.yul\":11405:11441   */\n      sstore\n        /* \"#utility.yul\":10840:11451   */\n      pop\n      pop\n      pop\n        /* \"#utility.yul\":10803:11690   */\n    tag_203:\n      pop\n        /* \"#utility.yul\":10393:11696   */\n      pop\n      pop\n      pop\n        /* \"#utility.yul\":10301:11696   */\n      pop\n      pop\n      jump\t// out\n        /* \"#utility.yul\":11702:11850   */\n    tag_76:\n        /* \"#utility.yul\":11804:11815   */\n      0x00\n        /* \"#utility.yul\":11841:11844   */\n      dup2\n        /* \"#utility.yul\":11826:11844   */\n      swap1\n      pop\n        /* \"#utility.yul\":11702:11850   */\n      swap3\n      swap2\n      pop\n      pop\n      jump\t// out\n        /* \"#utility.yul\":11880:12210   */\n    tag_77:\n        /* \"#utility.yul\":11996:11999   */\n      0x00\n        /* \"#utility.yul\":12017:12106   */\n      tag_215\n        /* \"#utility.yul\":12099:12105   */\n      dup4\n        /* \"#utility.yul\":12094:12097   */\n      dup6\n        /* \"#utility.yul\":12017:12106   */\n      tag_76\n      jump\t// in\n    tag_215:\n        /* \"#utility.yul\":12010:12106   */\n      swap4\n      pop\n        /* \"#utility.yul\":12116:12172   */\n      tag_216\n        /* \"#utility.yul\":12165:12171   */\n      dup4\n        /* \"#utility.yul\":12160:12163   */\n      dup6\n        /* \"#utility.yul\":12153:12158   */\n      dup5\n        /* \"#utility.yul\":12116:12172   */\n      tag_52\n      jump\t// in\n    tag_216:\n        /* \"#utility.yul\":12197:12203   */\n      dup3\n        /* \"#utility.yul\":12192:12195   */\n      dup5\n        /* \"#utility.yul\":12188:12204   */\n      add\n        /* \"#utility.yul\":12181:12204   */\n      swap1\n      pop\n        /* \"#utility.yul\":11880:12210   */\n      swap4\n      swap3\n      pop\n      pop\n      pop\n      jump\t// out\n        /* \"#utility.yul\":12216:12511   */\n    tag_27:\n        /* \"#utility.yul\":12358:12361   */\n      0x00\n        /* \"#utility.yul\":12380:12485   */\n      tag_218\n        /* \"#utility.yul\":12481:12484   */\n      dup3\n        /* \"#utility.yul\":12472:12478   */\n      dup5\n        /* \"#utility.yul\":12464:12470   */\n      dup7\n        /* \"#utility.yul\":12380:12485   */\n      tag_77\n      jump\t// in\n    tag_218:\n        /* \"#utility.yul\":12373:12485   */\n      swap2\n      pop\n        /* \"#utility.yul\":12502:12505   */\n      dup2\n        /* \"#utility.yul\":12495:12505   */\n      swap1\n      pop\n        /* \"#utility.yul\":12216:12511   */\n      swap4\n      swap3\n      pop\n      pop\n      pop\n      jump\t// out\n\n    auxdata: 0xa2646970667358221220b4ad654203c1b95baaef64c7445c0eab8dcb757141d911d2934d70cd1535f0b564736f6c634300081a0033\n}\n",
				"bytecode": {
					"linkReferences": {},
					"object": "6080604052348015600e575f80fd5b506109118061001c5f395ff3fe608060405234801561000f575f80fd5b506004361061003f575f3560e01c80636f760f41146100435780638bab8dd51461005f5780639e7a13ad1461008f575b5f80fd5b61005d6004803603810190610058919061030f565b6100c0565b005b610079600480360381019061007491906104a4565b610189565b60405161008691906104fa565b60405180910390f35b6100a960048036038101906100a49190610513565b6101b6565b6040516100b792919061059e565b60405180910390f35b5f604051806040016040528085858080601f0160208091040260200160405190810160405280939291908181526020018383808284375f81840152601f19601f82011690508083019250505050505050815260200183815250908060018154018082558091505060019003905f5260205f2090600202015f909190919091505f820151815f01908161015291906107c6565b5060208201518160010155505080600184846040516101729291906108c3565b908152602001604051809103902081905550505050565b6001818051602081018201805184825260208301602085012081835280955050505050505f915090505481565b5f81815481106101c4575f80fd5b905f5260205f2090600202015f91509050805f0180546101e3906105f9565b80601f016020809104026020016040519081016040528092919081815260200182805461020f906105f9565b801561025a5780601f106102315761010080835404028352916020019161025a565b820191905f5260205f20905b81548152906001019060200180831161023d57829003601f168201915b5050505050908060010154905082565b5f604051905090565b5f80fd5b5f80fd5b5f80fd5b5f80fd5b5f80fd5b5f8083601f84011261029c5761029b61027b565b5b8235905067ffffffffffffffff8111156102b9576102b861027f565b5b6020830191508360018202830111156102d5576102d4610283565b5b9250929050565b5f819050919050565b6102ee816102dc565b81146102f8575f80fd5b50565b5f81359050610309816102e5565b92915050565b5f805f6040848603121561032657610325610273565b5b5f84013567ffffffffffffffff81111561034357610342610277565b5b61034f86828701610287565b93509350506020610362868287016102fb565b9150509250925092565b5f80fd5b5f601f19601f8301169050919050565b7f4e487b71000000000000000000000000000000000000000000000000000000005f52604160045260245ffd5b6103b682610370565b810181811067ffffffffffffffff821117156103d5576103d4610380565b5b80604052505050565b5f6103e761026a565b90506103f382826103ad565b919050565b5f67ffffffffffffffff82111561041257610411610380565b5b61041b82610370565b9050602081019050919050565b828183375f83830152505050565b5f610448610443846103f8565b6103de565b9050828152602081018484840111156104645761046361036c565b5b61046f848285610428565b509392505050565b5f82601f83011261048b5761048a61027b565b5b813561049b848260208601610436565b91505092915050565b5f602082840312156104b9576104b8610273565b5b5f82013567ffffffffffffffff8111156104d6576104d5610277565b5b6104e284828501610477565b91505092915050565b6104f4816102dc565b82525050565b5f60208201905061050d5f8301846104eb565b92915050565b5f6020828403121561052857610527610273565b5b5f610535848285016102fb565b91505092915050565b5f81519050919050565b5f82825260208201905092915050565b8281835e5f83830152505050565b5f6105708261053e565b61057a8185610548565b935061058a818560208601610558565b61059381610370565b840191505092915050565b5f6040820190508181035f8301526105b68185610566565b90506105c560208301846104eb565b9392505050565b7f4e487b71000000000000000000000000000000000000000000000000000000005f52602260045260245ffd5b5f600282049050600182168061061057607f821691505b602082108103610623576106226105cc565b5b50919050565b5f819050815f5260205f209050919050565b5f6020601f8301049050919050565b5f82821b905092915050565b5f600883026106857fffffffffffffffffffffffffffffffffffffffffffffffffffffffffffffffff8261064a565b61068f868361064a565b95508019841693508086168417925050509392505050565b5f819050919050565b5f6106ca6106c56106c0846102dc565b6106a7565b6102dc565b9050919050565b5f819050919050565b6106e3836106b0565b6106f76106ef826106d1565b848454610656565b825550505050565b5f90565b61070b6106ff565b6107168184846106da565b505050565b5b818110156107395761072e5f82610703565b60018101905061071c565b5050565b601f82111561077e5761074f81610629565b6107588461063b565b81016020851015610767578190505b61077b6107738561063b565b83018261071b565b50505b505050565b5f82821c905092915050565b5f61079e5f1984600802610783565b1980831691505092915050565b5f6107b6838361078f565b9150826002028217905092915050565b6107cf8261053e565b67ffffffffffffffff8111156107e8576107e7610380565b5b6107f282546105f9565b6107fd82828561073d565b5f60209050601f83116001811461082e575f841561081c578287015190505b61082685826107ab565b86555061088d565b601f19841661083c86610629565b5f5b828110156108635784890151825560018201915060208501945060208101905061083e565b86831015610880578489015161087c601f89168261078f565b8355505b6001600288020188555050505b505050505050565b5f81905092915050565b5f6108aa8385610895565b93506108b7838584610428565b82840190509392505050565b5f6108cf82848661089f565b9150819050939250505056fea2646970667358221220b4ad654203c1b95baaef64c7445c0eab8dcb757141d911d2934d70cd1535f0b564736f6c634300081a0033",
					"opcodes": "PUSH1 0x80 PUSH1 0x40 MSTORE CALLVALUE DUP1 ISZERO PUSH1 0xE JUMPI PUSH0 DUP1 REVERT JUMPDEST POP PUSH2 0x911 DUP1 PUSH2 0x1C PUSH0 CODECOPY PUSH0 RETURN INVALID PUSH1 0x80 PUSH1 0x40 MSTORE CALLVALUE DUP1 ISZERO PUSH2 0xF JUMPI PUSH0 DUP1 REVERT JUMPDEST POP PUSH1 0x4 CALLDATASIZE LT PUSH2 0x3F JUMPI PUSH0 CALLDATALOAD PUSH1 0xE0 SHR DUP1 PUSH4 0x6F760F41 EQ PUSH2 0x43 JUMPI DUP1 PUSH4 0x8BAB8DD5 EQ PUSH2 0x5F JUMPI DUP1 PUSH4 0x9E7A13AD EQ PUSH2 0x8F JUMPI JUMPDEST PUSH0 DUP1 REVERT JUMPDEST PUSH2 0x5D PUSH1 0x4 DUP1 CALLDATASIZE SUB DUP2 ADD SWAP1 PUSH2 0x58 SWAP2 SWAP1 PUSH2 0x30F JUMP JUMPDEST PUSH2 0xC0 JUMP JUMPDEST STOP JUMPDEST PUSH2 0x79 PUSH1 0x4 DUP1 CALLDATASIZE SUB DUP2 ADD SWAP1 PUSH2 0x74 SWAP2 SWAP1 PUSH2 0x4A4 JUMP JUMPDEST PUSH2 0x189 JUMP JUMPDEST PUSH1 0x40 MLOAD PUSH2 0x86 SWAP2 SWAP1 PUSH2 0x4FA JUMP JUMPDEST PUSH1 0x40 MLOAD DUP1 SWAP2 SUB SWAP1 RETURN JUMPDEST PUSH2 0xA9 PUSH1 0x4 DUP1 CALLDATASIZE SUB DUP2 ADD SWAP1 PUSH2 0xA4 SWAP2 SWAP1 PUSH2 0x513 JUMP JUMPDEST PUSH2 0x1B6 JUMP JUMPDEST PUSH1 0x40 MLOAD PUSH2 0xB7 SWAP3 SWAP2 SWAP1 PUSH2 0x59E JUMP JUMPDEST PUSH1 0x40 MLOAD DUP1 SWAP2 SUB SWAP1 RETURN JUMPDEST PUSH0 PUSH1 0x40 MLOAD DUP1 PUSH1 0x40 ADD PUSH1 0x40 MSTORE DUP1 DUP6 DUP6 DUP1 DUP1 PUSH1 0x1F ADD PUSH1 0x20 DUP1 SWAP2 DIV MUL PUSH1 0x20 ADD PUSH1 0x40 MLOAD SWAP1 DUP2 ADD PUSH1 0x40 MSTORE DUP1 SWAP4 SWAP3 SWAP2 SWAP1 DUP2 DUP2 MSTORE PUSH1 0x20 ADD DUP4 DUP4 DUP1 DUP3 DUP5 CALLDATACOPY PUSH0 DUP2 DUP5 ADD MSTORE PUSH1 0x1F NOT PUSH1 0x1F DUP3 ADD AND SWAP1 POP DUP1 DUP4 ADD SWAP3 POP POP POP POP POP POP POP DUP2 MSTORE PUSH1 0x20 ADD DUP4 DUP2 MSTORE POP SWAP1 DUP1 PUSH1 0x1 DUP2 SLOAD ADD DUP1 DUP3 SSTORE DUP1 SWAP2 POP POP PUSH1 0x1 SWAP1 SUB SWAP1 PUSH0 MSTORE PUSH1 0x20 PUSH0 KECCAK256 SWAP1 PUSH1 0x2 MUL ADD PUSH0 SWAP1 SWAP2 SWAP1 SWAP2 SWAP1 SWAP2 POP PUSH0 DUP3 ADD MLOAD DUP2 PUSH0 ADD SWAP1 DUP2 PUSH2 0x152 SWAP2 SWAP1 PUSH2 0x7C6 JUMP JUMPDEST POP PUSH1 0x20 DUP3 ADD MLOAD DUP2 PUSH1 0x1 ADD SSTORE POP POP DUP1 PUSH1 0x1 DUP5 DUP5 PUSH1 0x40 MLOAD PUSH2 0x172 SWAP3 SWAP2 SWAP1 PUSH2 0x8C3 JUMP JUMPDEST SWAP1 DUP2 MSTORE PUSH1 0x20 ADD PUSH1 0x40 MLOAD DUP1 SWAP2 SUB SWAP1 KECCAK256 DUP2 SWAP1 SSTORE POP POP POP POP JUMP JUMPDEST PUSH1 0x1 DUP2 DUP1 MLOAD PUSH1 0x20 DUP2 ADD DUP3 ADD DUP1 MLOAD DUP5 DUP3 MSTORE PUSH1 0x20 DUP4 ADD PUSH1 0x20 DUP6 ADD KECCAK256 DUP2 DUP4 MSTORE DUP1 SWAP6 POP POP POP POP POP POP PUSH0 SWAP2 POP SWAP1 POP SLOAD DUP2 JUMP JUMPDEST PUSH0 DUP2 DUP2 SLOAD DUP2 LT PUSH2 0x1C4 JUMPI PUSH0 DUP1 REVERT JUMPDEST SWAP1 PUSH0 MSTORE PUSH1 0x20 PUSH0 KECCAK256 SWAP1 PUSH1 0x2 MUL ADD PUSH0 SWAP2 POP SWAP1 POP DUP1 PUSH0 ADD DUP1 SLOAD PUSH2 0x1E3 SWAP1 PUSH2 0x5F9 JUMP JUMPDEST DUP1 PUSH1 0x1F ADD PUSH1 0x20 DUP1 SWAP2 DIV MUL PUSH1 0x20 ADD PUSH1 0x40 MLOAD SWAP1 DUP2 ADD PUSH1 0x40 MSTORE DUP1 SWAP3 SWAP2 SWAP1 DUP2 DUP2 MSTORE PUSH1 0x20 ADD DUP3 DUP1 SLOAD PUSH2 0x20F SWAP1 PUSH2 0x5F9 JUMP JUMPDEST DUP1 ISZERO PUSH2 0x25A JUMPI DUP1 PUSH1 0x1F LT PUSH2 0x231 JUMPI PUSH2 0x100 DUP1 DUP4 SLOAD DIV MUL DUP4 MSTORE SWAP2 PUSH1 0x20 ADD SWAP2 PUSH2 0x25A JUMP JUMPDEST DUP3 ADD SWAP2 SWAP1 PUSH0 MSTORE PUSH1 0x20 PUSH0 KECCAK256 SWAP1 JUMPDEST DUP2 SLOAD DUP2 MSTORE SWAP1 PUSH1 0x1 ADD SWAP1 PUSH1 0x20 ADD DUP1 DUP4 GT PUSH2 0x23D JUMPI DUP3 SWAP1 SUB PUSH1 0x1F AND DUP3 ADD SWAP2 JUMPDEST POP POP POP POP POP SWAP1 DUP1 PUSH1 0x1 ADD SLOAD SWAP1 POP DUP3 JUMP JUMPDEST PUSH0 PUSH1 0x40 MLOAD SWAP1 POP SWAP1 JUMP JUMPDEST PUSH0 DUP1 REVERT JUMPDEST PUSH0 DUP1 REVERT JUMPDEST PUSH0 DUP1 REVERT JUMPDEST PUSH0 DUP1 REVERT JUMPDEST PUSH0 DUP1 REVERT JUMPDEST PUSH0 DUP1 DUP4 PUSH1 0x1F DUP5 ADD SLT PUSH2 0x29C JUMPI PUSH2 0x29B PUSH2 0x27B JUMP JUMPDEST JUMPDEST DUP3 CALLDATALOAD SWAP1 POP PUSH8 0xFFFFFFFFFFFFFFFF DUP2 GT ISZERO PUSH2 0x2B9 JUMPI PUSH2 0x2B8 PUSH2 0x27F JUMP JUMPDEST JUMPDEST PUSH1 0x20 DUP4 ADD SWAP2 POP DUP4 PUSH1 0x1 DUP3 MUL DUP4 ADD GT ISZERO PUSH2 0x2D5 JUMPI PUSH2 0x2D4 PUSH2 0x283 JUMP JUMPDEST JUMPDEST SWAP3 POP SWAP3 SWAP1 POP JUMP JUMPDEST PUSH0 DUP2 SWAP1 POP SWAP2 SWAP1 POP JUMP JUMPDEST PUSH2 0x2EE DUP2 PUSH2 0x2DC JUMP JUMPDEST DUP2 EQ PUSH2 0x2F8 JUMPI PUSH0 DUP1 REVERT JUMPDEST POP JUMP JUMPDEST PUSH0 DUP2 CALLDATALOAD SWAP1 POP PUSH2 0x309 DUP2 PUSH2 0x2E5 JUMP JUMPDEST SWAP3 SWAP2 POP POP JUMP JUMPDEST PUSH0 DUP1 PUSH0 PUSH1 0x40 DUP5 DUP7 SUB SLT ISZERO PUSH2 0x326 JUMPI PUSH2 0x325 PUSH2 0x273 JUMP JUMPDEST JUMPDEST PUSH0 DUP5 ADD CALLDATALOAD PUSH8 0xFFFFFFFFFFFFFFFF DUP2 GT ISZERO PUSH2 0x343 JUMPI PUSH2 0x342 PUSH2 0x277 JUMP JUMPDEST JUMPDEST PUSH2 0x34F DUP7 DUP3 DUP8 ADD PUSH2 0x287 JUMP JUMPDEST SWAP4 POP SWAP4 POP POP PUSH1 0x20 PUSH2 0x362 DUP7 DUP3 DUP8 ADD PUSH2 0x2FB JUMP JUMPDEST SWAP2 POP POP SWAP3 POP SWAP3 POP SWAP3 JUMP JUMPDEST PUSH0 DUP1 REVERT JUMPDEST PUSH0 PUSH1 0x1F NOT PUSH1 0x1F DUP4 ADD AND SWAP1 POP SWAP2 SWAP1 POP JUMP JUMPDEST PUSH32 0x4E487B7100000000000000000000000000000000000000000000000000000000 PUSH0 MSTORE PUSH1 0x41 PUSH1 0x4 MSTORE PUSH1 0x24 PUSH0 REVERT JUMPDEST PUSH2 0x3B6 DUP3 PUSH2 0x370 JUMP JUMPDEST DUP2 ADD DUP2 DUP2 LT PUSH8 0xFFFFFFFFFFFFFFFF DUP3 GT OR ISZERO PUSH2 0x3D5 JUMPI PUSH2 0x3D4 PUSH2 0x380 JUMP JUMPDEST JUMPDEST DUP1 PUSH1 0x40 MSTORE POP POP POP JUMP JUMPDEST PUSH0 PUSH2 0x3E7 PUSH2 0x26A JUMP JUMPDEST SWAP1 POP PUSH2 0x3F3 DUP3 DUP3 PUSH2 0x3AD JUMP JUMPDEST SWAP2 SWAP1 POP JUMP JUMPDEST PUSH0 PUSH8 0xFFFFFFFFFFFFFFFF DUP3 GT ISZERO PUSH2 0x412 JUMPI PUSH2 0x411 PUSH2 0x380 JUMP JUMPDEST JUMPDEST PUSH2 0x41B DUP3 PUSH2 0x370 JUMP JUMPDEST SWAP1 POP PUSH1 0x20 DUP2 ADD SWAP1 POP SWAP2 SWAP1 POP JUMP JUMPDEST DUP3 DUP2 DUP4 CALLDATACOPY PUSH0 DUP4 DUP4 ADD MSTORE POP POP POP JUMP JUMPDEST PUSH0 PUSH2 0x448 PUSH2 0x443 DUP5 PUSH2 0x3F8 JUMP JUMPDEST PUSH2 0x3DE JUMP JUMPDEST SWAP1 POP DUP3 DUP2 MSTORE PUSH1 0x20 DUP2 ADD DUP5 DUP5 DUP5 ADD GT ISZERO PUSH2 0x464 JUMPI PUSH2 0x463 PUSH2 0x36C JUMP JUMPDEST JUMPDEST PUSH2 0x46F DUP5 DUP3 DUP6 PUSH2 0x428 JUMP JUMPDEST POP SWAP4 SWAP3 POP POP POP JUMP JUMPDEST PUSH0 DUP3 PUSH1 0x1F DUP4 ADD SLT PUSH2 0x48B JUMPI PUSH2 0x48A PUSH2 0x27B JUMP JUMPDEST JUMPDEST DUP2 CALLDATALOAD PUSH2 0x49B DUP5 DUP3 PUSH1 0x20 DUP7 ADD PUSH2 0x436 JUMP JUMPDEST SWAP2 POP POP SWAP3 SWAP2 POP POP JUMP JUMPDEST PUSH0 PUSH1 0x20 DUP3 DUP5 SUB SLT ISZERO PUSH2 0x4B9 JUMPI PUSH2 0x4B8 PUSH2 0x273 JUMP JUMPDEST JUMPDEST PUSH0 DUP3 ADD CALLDATALOAD PUSH8 0xFFFFFFFFFFFFFFFF DUP2 GT ISZERO PUSH2 0x4D6 JUMPI PUSH2 0x4D5 PUSH2 0x277 JUMP JUMPDEST JUMPDEST PUSH2 0x4E2 DUP5 DUP3 DUP6 ADD PUSH2 0x477 JUMP JUMPDEST SWAP2 POP POP SWAP3 SWAP2 POP POP JUMP JUMPDEST PUSH2 0x4F4 DUP2 PUSH2 0x2DC JUMP JUMPDEST DUP3 MSTORE POP POP JUMP JUMPDEST PUSH0 PUSH1 0x20 DUP3 ADD SWAP1 POP PUSH2 0x50D PUSH0 DUP4 ADD DUP5 PUSH2 0x4EB JUMP JUMPDEST SWAP3 SWAP2 POP POP JUMP JUMPDEST PUSH0 PUSH1 0x20 DUP3 DUP5 SUB SLT ISZERO PUSH2 0x528 JUMPI PUSH2 0x527 PUSH2 0x273 JUMP JUMPDEST JUMPDEST PUSH0 PUSH2 0x535 DUP5 DUP3 DUP6 ADD PUSH2 0x2FB JUMP JUMPDEST SWAP2 POP POP SWAP3 SWAP2 POP POP JUMP JUMPDEST PUSH0 DUP2 MLOAD SWAP1 POP SWAP2 SWAP1 POP JUMP JUMPDEST PUSH0 DUP3 DUP3 MSTORE PUSH1 0x20 DUP3 ADD SWAP1 POP SWAP3 SWAP2 POP POP JUMP JUMPDEST DUP3 DUP2 DUP4 MCOPY PUSH0 DUP4 DUP4 ADD MSTORE POP POP POP JUMP JUMPDEST PUSH0 PUSH2 0x570 DUP3 PUSH2 0x53E JUMP JUMPDEST PUSH2 0x57A DUP2 DUP6 PUSH2 0x548 JUMP JUMPDEST SWAP4 POP PUSH2 0x58A DUP2 DUP6 PUSH1 0x20 DUP7 ADD PUSH2 0x558 JUMP JUMPDEST PUSH2 0x593 DUP2 PUSH2 0x370 JUMP JUMPDEST DUP5 ADD SWAP2 POP POP SWAP3 SWAP2 POP POP JUMP JUMPDEST PUSH0 PUSH1 0x40 DUP3 ADD SWAP1 POP DUP2 DUP2 SUB PUSH0 DUP4 ADD MSTORE PUSH2 0x5B6 DUP2 DUP6 PUSH2 0x566 JUMP JUMPDEST SWAP1 POP PUSH2 0x5C5 PUSH1 0x20 DUP4 ADD DUP5 PUSH2 0x4EB JUMP JUMPDEST SWAP4 SWAP3 POP POP POP JUMP JUMPDEST PUSH32 0x4E487B7100000000000000000000000000000000000000000000000000000000 PUSH0 MSTORE PUSH1 0x22 PUSH1 0x4 MSTORE PUSH1 0x24 PUSH0 REVERT JUMPDEST PUSH0 PUSH1 0x2 DUP3 DIV SWAP1 POP PUSH1 0x1 DUP3 AND DUP1 PUSH2 0x610 JUMPI PUSH1 0x7F DUP3 AND SWAP2 POP JUMPDEST PUSH1 0x20 DUP3 LT DUP2 SUB PUSH2 0x623 JUMPI PUSH2 0x622 PUSH2 0x5CC JUMP JUMPDEST JUMPDEST POP SWAP2 SWAP1 POP JUMP JUMPDEST PUSH0 DUP2 SWAP1 POP DUP2 PUSH0 MSTORE PUSH1 0x20 PUSH0 KECCAK256 SWAP1 POP SWAP2 SWAP1 POP JUMP JUMPDEST PUSH0 PUSH1 0x20 PUSH1 0x1F DUP4 ADD DIV SWAP1 POP SWAP2 SWAP1 POP JUMP JUMPDEST PUSH0 DUP3 DUP3 SHL SWAP1 POP SWAP3 SWAP2 POP POP JUMP JUMPDEST PUSH0 PUSH1 0x8 DUP4 MUL PUSH2 0x685 PUSH32 0xFFFFFFFFFFFFFFFFFFFFFFFFFFFFFFFFFFFFFFFFFFFFFFFFFFFFFFFFFFFFFFFF DUP3 PUSH2 0x64A JUMP JUMPDEST PUSH2 0x68F DUP7 DUP4 PUSH2 0x64A JUMP JUMPDEST SWAP6 POP DUP1 NOT DUP5 AND SWAP4 POP DUP1 DUP7 AND DUP5 OR SWAP3 POP POP POP SWAP4 SWAP3 POP POP POP JUMP JUMPDEST PUSH0 DUP2 SWAP1 POP SWAP2 SWAP1 POP JUMP JUMPDEST PUSH0 PUSH2 0x6CA PUSH2 0x6C5 PUSH2 0x6C0 DUP5 PUSH2 0x2DC JUMP JUMPDEST PUSH2 0x6A7 JUMP JUMPDEST PUSH2 0x2DC JUMP JUMPDEST SWAP1 POP SWAP2 SWAP1 POP JUMP JUMPDEST PUSH0 DUP2 SWAP1 POP SWAP2 SWAP1 POP JUMP JUMPDEST PUSH2 0x6E3 DUP4 PUSH2 0x6B0 JUMP JUMPDEST PUSH2 0x6F7 PUSH2 0x6EF DUP3 PUSH2 0x6D1 JUMP JUMPDEST DUP5 DUP5 SLOAD PUSH2 0x656 JUMP JUMPDEST DUP3 SSTORE POP POP POP POP JUMP JUMPDEST PUSH0 SWAP1 JUMP JUMPDEST PUSH2 0x70B PUSH2 0x6FF JUMP JUMPDEST PUSH2 0x716 DUP2 DUP5 DUP5 PUSH2 0x6DA JUMP JUMPDEST POP POP POP JUMP JUMPDEST JUMPDEST DUP2 DUP2 LT ISZERO PUSH2 0x739 JUMPI PUSH2 0x72E PUSH0 DUP3 PUSH2 0x703 JUMP JUMPDEST PUSH1 0x1 DUP2 ADD SWAP1 POP PUSH2 0x71C JUMP JUMPDEST POP POP JUMP JUMPDEST PUSH1 0x1F DUP3 GT ISZERO PUSH2 0x77E JUMPI PUSH2 0x74F DUP2 PUSH2 0x629 JUMP JUMPDEST PUSH2 0x758 DUP5 PUSH2 0x63B JUMP JUMPDEST DUP2 ADD PUSH1 0x20 DUP6 LT ISZERO PUSH2 0x767 JUMPI DUP2 SWAP1 POP JUMPDEST PUSH2 0x77B PUSH2 0x773 DUP6 PUSH2 0x63B JUMP JUMPDEST DUP4 ADD DUP3 PUSH2 0x71B JUMP JUMPDEST POP POP JUMPDEST POP POP POP JUMP JUMPDEST PUSH0 DUP3 DUP3 SHR SWAP1 POP SWAP3 SWAP2 POP POP JUMP JUMPDEST PUSH0 PUSH2 0x79E PUSH0 NOT DUP5 PUSH1 0x8 MUL PUSH2 0x783 JUMP JUMPDEST NOT DUP1 DUP4 AND SWAP2 POP POP SWAP3 SWAP2 POP POP JUMP JUMPDEST PUSH0 PUSH2 0x7B6 DUP4 DUP4 PUSH2 0x78F JUMP JUMPDEST SWAP2 POP DUP3 PUSH1 0x2 MUL DUP3 OR SWAP1 POP SWAP3 SWAP2 POP POP JUMP JUMPDEST PUSH2 0x7CF DUP3 PUSH2 0x53E JUMP JUMPDEST PUSH8 0xFFFFFFFFFFFFFFFF DUP2 GT ISZERO PUSH2 0x7E8 JUMPI PUSH2 0x7E7 PUSH2 0x380 JUMP JUMPDEST JUMPDEST PUSH2 0x7F2 DUP3 SLOAD PUSH2 0x5F9 JUMP JUMPDEST PUSH2 0x7FD DUP3 DUP3 DUP6 PUSH2 0x73D JUMP JUMPDEST PUSH0 PUSH1 0x20 SWAP1 POP PUSH1 0x1F DUP4 GT PUSH1 0x1 DUP2 EQ PUSH2 0x82E JUMPI PUSH0 DUP5 ISZERO PUSH2 0x81C JUMPI DUP3 DUP8 ADD MLOAD SWAP1 POP JUMPDEST PUSH2 0x826 DUP6 DUP3 PUSH2 0x7AB JUMP JUMPDEST DUP7 SSTORE POP PUSH2 0x88D JUMP JUMPDEST PUSH1 0x1F NOT DUP5 AND PUSH2 0x83C DUP7 PUSH2 0x629 JUMP JUMPDEST PUSH0 JUMPDEST DUP3 DUP2 LT ISZERO PUSH2 0x863 JUMPI DUP5 DUP10 ADD MLOAD DUP3 SSTORE PUSH1 0x1 DUP3 ADD SWAP2 POP PUSH1 0x20 DUP6 ADD SWAP5 POP PUSH1 0x20 DUP2 ADD SWAP1 POP PUSH2 0x83E JUMP JUMPDEST DUP7 DUP4 LT ISZERO PUSH2 0x880 JUMPI DUP5 DUP10 ADD MLOAD PUSH2 0x87C PUSH1 0x1F DUP10 AND DUP3 PUSH2 0x78F JUMP JUMPDEST DUP4 SSTORE POP JUMPDEST PUSH1 0x1 PUSH1 0x2 DUP9 MUL ADD DUP9 SSTORE POP POP POP JUMPDEST POP POP POP POP POP POP JUMP JUMPDEST PUSH0 DUP2 SWAP1 POP SWAP3 SWAP2 POP POP JUMP JUMPDEST PUSH0 PUSH2 0x8AA DUP4 DUP6 PUSH2 0x895 JUMP JUMPDEST SWAP4 POP PUSH2 0x8B7 DUP4 DUP6 DUP5 PUSH2 0x428 JUMP JUMPDEST DUP3 DUP5 ADD SWAP1 POP SWAP4 SWAP3 POP POP POP JUMP JUMPDEST PUSH0 PUSH2 0x8CF DUP3 DUP5 DUP7 PUSH2 0x89F JUMP JUMPDEST SWAP2 POP DUP2 SWAP1 POP SWAP4 SWAP3 POP POP POP JUMP INVALID LOG2 PUSH5 0x6970667358 0x22 SLT KECCAK256 0xB4 0xAD PUSH6 0x4203C1B95BAA 0xEF PUSH5 0xC7445C0EAB DUP14 0xCB PUSH22 0x7141D911D2934D70CD1535F0B564736F6C634300081A STOP CALLER "
				},
				"gasEstimates": {
					"creation": {
						"codeDepositCost": "464200",
						"executionCost": "497",
						"totalCost": "464697"
					},
					"external": {
						"addPerson(string,uint256)": "infinite",
						"nameToFavoriteNumber(string)": "infinite",
						"people(uint256)": "infinite"
					}
				},
				"methodIdentifiers": {
					"addPerson(string,uint256)": "6f760f41",
					"nameToFavoriteNumber(string)": "8bab8dd5",
					"people(uint256)": "9e7a13ad"
				}
			},
			"storageLayout": {
				"storage": [
					{
						"astId": 10,
						"contract": "MemoryStorage.sol:MemoryStorage",
						"label": "people",
						"offset": 0,
						"slot": "0",
						"type": "t_array(t_struct(Person)6_storage)dyn_storage"
					},
					{
						"astId": 14,
						"contract": "MemoryStorage.sol:MemoryStorage",
						"label": "nameToFavoriteNumber",
						"offset": 0,
						"slot": "1",
						"type": "t_mapping(t_string_memory_ptr,t_uint256)"
					}
				],
				"types": {
					"t_array(t_struct(Person)6_storage)dyn_storage": {
						"base": "t_struct(Person)6_storage",
						"encoding": "dynamic_array",
						"label": "struct MemoryStorage.Person[]",
						"numberOfBytes": "32"
					},
					"t_mapping(t_string_memory_ptr,t_uint256)": {
						"encoding": "mapping",
						"key": "t_string_memory_ptr",
						"label": "mapping(string => uint256)",
						"numberOfBytes": "32",
						"value": "t_uint256"
					},
					"t_string_memory_ptr": {
						"encoding": "bytes",
						"label": "string",
						"numberOfBytes": "32"
					},
					"t_string_storage": {
						"encoding": "bytes",
						"label": "string",
						"numberOfBytes": "32"
					},
					"t_struct(Person)6_storage": {
						"encoding": "inplace",
						"label": "struct MemoryStorage.Person",
						"members": [
							{
								"astId": 3,
								"contract": "MemoryStorage.sol:MemoryStorage",
								"label": "name",
								"offset": 0,
								"slot": "0",
								"type": "t_string_storage"
							},
							{
								"astId": 5,
								"contract": "MemoryStorage.sol:MemoryStorage",
								"label": "favoriteNumber",
								"offset": 0,
								"slot": "1",
								"type": "t_uint256"
							}
						],
						"numberOfBytes": "64"
					},
					"t_uint256": {
						"encoding": "inplace",
						"label": "uint256",
						"numberOfBytes": "32"
					}
				}
			},
			"userdoc": {
				"kind": "user",
				"methods": {},
				"version": 1
			}
		}
	}
}